:100000003EC1000059C1000057C1000055C10000A9
:1000100053C1000051C100004FC100004DC100009C
:100020004BC1000049C1000047C1000045C10000AC
:1000300043C1000041C100003FC100003DC10000BC
:100040003BC1000039C1000037C1000035C10000CC
:1000500033C1000031C100002FC100002DC10000DC
:100060002BC1000029C1000027C1000025C10000EC
:1000700023C1000021C100001FC100001DC10000FC
:100080001BC1000019C1000017C1000015C100000C
:1000900013C1000011C100000FC100000DC100001C
:1000A0000BC1000009C1000007C1000005C100002C
:1000B00003C1000001C10000FFC00000FDC000003E
:1000C000FBC00000F9C00000F7C00000F5C0000050
:1000D000F3C00000F1C00000EFC00000EDC0000060
:1000E000EBC00000E9C00000E7C00000E5C0000070
:1000F000E3C00000E1C00000DFC00000DDC0000080
:10010000DBC00000D9C00000D7C00000D5C000008F
:10011000D3C00000D1C00000CFC00000CDC000009F
:10012000CBC00000C9C00000C7C00000C5C00000AF
:10013000C3C00000C1C00000BFC00000BDC00000BF
:10014000BBC00000B9C00000B7C00000B5C00000CF
:10015000B3C00000B1C00000AFC00000ADC00000DF
:10016000ABC00000A9C00000A7C00000A5C00000EF
:10017000A3C00000A1C000009FC000009DC00000FF
:100180009BC0000099C0000097C0000095C000000F
:1001900093C0000091C000008FC000008DC000001F
:1001A0008BC0000089C0000087C0000085C000002F
:1001B00083C0000081C000007FC000007DC000003F
:1001C0007BC0000079C0000077C0000075C000004F
:1001D00073C0000071C000006FC000006DC000005F
:1001E0006BC0000069C0000067C0000065C000006F
:1001F00063C000000C94F71F0C94AC2008000000B2
:10020000BE922449123EABAAAA2ABECDCCCC4C3E0B
:1002100000000080BEABAAAAAA3E00000000BF00FA
:100220000000803F0000000000084178D3BB4387F6
:10023000D1133D190E3CC3BD4282AD2B3E68EC820A
:1002400076BED98FE1A93E4C80EFFFBE01C4FF7F8F
:100250003F000000000007634236B79BD8A71A3959
:10026000685618AEBAAB558C1D3CB7CC5763BD6D04
:10027000EDFD753EF6177231BF000000803F11247E
:100280001FBECFEFCDBFDFE2DEBF13E2A0E0B0E2E2
:10029000E2E0F2E502C005900D92A83DB107D9F762
:1002A0002CE2A8EDB3E201C01D92AC3BB207E1F72E
:1002B0000E941B220C94FF28A3CECF93DF93CDB7CF
:1002C000DEB76B97CDBFDEBF8091D823811149C0C7
:1002D000CE0141960E94341B81E38093D92382E3AF
:1002E0008093DA239E012F5E3F4F89ED93E20296C1
:1002F000F3E2813F9F0761F1F90141919F0150E1D4
:10030000E5EAF3E2DE01119601900D925A95E1F7CC
:10031000542F52955F70E1E0F0E0EC0FFD1FE50F08
:10032000F11D5081FC01508350E1E5EAF3E2DE016A
:10033000119601900D925A95E1F74F70E1E0F0E0CF
:10034000EC0FFD1FE40FF11D4081FC014183CFCF75
:1003500085E48093F12386E48093F22381E0809307
:10036000D82389ED93E26B96CDBFDEBFDF91CF91AD
:10037000089580E00895089581E080930824089509
:100380000F931F9305E012E028E030E048EF53E2BE
:1003900060E088E00E94311F1F910F910895109234
:1003A0000C2410920A2481E080930824E9CF20EEE7
:1003B00031E04EE851E26AE074E28CE094E267C01A
:1003C0002091AE2C3091AF2C832F90E00397D9F47D
:1003D000211119C08091B22C9091B32C84309105D9
:1003E00091F424EF33E22093B42C3093B52C2BEB13
:1003F00031E02093B82C3093B92C8093B62C909395
:10040000B72C81E0089580E00895811107C068301D
:10041000710519F488EF93E2BBD0B2CF0895089527
:10042000FF920F931F93CF93DF931F92CDB7DEB749
:10043000FC0180910824882319F18FB78983F894EF
:10044000F98098E020E034E2D901892F1D928A9545
:10045000E9F7D90101900D929A95E1F70CEB11E0C3
:1004600028E030E040E054E260E087E80E94311F7D
:1004700091E0892780930824FFBE80910824892772
:100480000F90DF91CF911F910F91FF900895CF931F
:10049000DF93DC018091AC2C982F907687FF56C0BB
:1004A000911139C08091AD2C863009F06DC0EA0100
:1004B0000E940718FC018285813209F065C0809195
:1004C000AF2C90E08132910569F4CF0109968093B9
:1004D000B42C9093B52C81852091B22C3091B32C03
:1004E00090E010C0278530E02817390709F04CC08C
:1004F000C093B42CD093B52C2091B22C3091B32C56
:10050000808991892817390708F4C9018093B62C8E
:100510009093B72C37C09032B9F59091AD2C9230B2
:1005200029F0933041F0913079F51AC0A093B42CA2
:10053000B093B52C04C06093B42C7093B52C81E0BB
:1005400090E08093B62C9093B72C1FC09032E1F4CA
:100550009091AD2C9A3041F09B3051F09930A1F43C
:10056000F901DF91CF9109948091AF2C8C930AC04F
:100570008091B22C9091B32C892B31F48091AE2CC8
:10058000FB01808381E001C080E0DF91CF9108957D
:1005900068E070E026C36150710981099109D9F7BB
:1005A00008951F93CF93DF9360E570E080E090E0C3
:1005B000F2DFC0E0D6E014E01E8360E570E080E08A
:1005C00090E0E9DF1D83DF91CF911F9108950F9394
:1005D0001F93CF93DF93082F84E080930506C8E034
:1005E000D0E810E1802F8D2319F01093450602C04A
:1005F00010934606D6DFD695C150A1F7DF91CF9173
:100600001F910F9108958F929F92AF92BF92CF92B8
:10061000DF92EF92FF921F93CF93DF934B015C0128
:1006200084E080930506C0E0D0E0C12CD12C90E896
:10063000E92EF12C10E1D501C4018C219D21AE21C0
:10064000BF21892B8A2B8B2B19F01093450602C0F2
:1006500010934606A6DFF694E794D794C7942196A4
:10066000C831D10541F7DF91CF911F91FF90EF90F5
:10067000DF90CF90BF90AF909F908F900895CF92D2
:10068000DF92EF92FF926A017B01880F880F880F3B
:100690009EDFC701B601FF90EF90DF90CF90B3CF00
:1006A0008F929F92AF92BF92CF92DF92EF92FF9282
:1006B000CF93DF938091080681FF06C061E070E070
:1006C00080E090E068DFF6CF88E581DF80E180930D
:1006D0004506C8E1812C912C90E8A92EB12CC12CA3
:1006E000D12C7601D4E060E570E080E090E053DF4B
:1006F000D093060660E570E080E090E04CDF8091EA
:10070000080681FF04C0C828D928EA28FB28D0930E
:100710000506B694A79497948794C15021F7C70112
:10072000B601DF91CF91FF90EF90DF90CF90BF9017
:10073000AF909F908F900895CF93C5E08FEF47DFE4
:10074000C150E1F7CF9108959ACFE82FE695E6954D
:10075000E69540E2E49FF0011124FA5F877021E002
:1007600030E0A90102C0440F551F8A95E2F76623C5
:1007700011F04583089546830895E82FE695E695A0
:10078000E69540E2E49FF0011124FA5F613059F4EC
:10079000877021E030E0A90102C0440F551F8A95FF
:1007A000E2F74183089561110AC0877021E030E0CB
:1007B000A90102C0440F551F8A95E2F742830895AC
:1007C0006150710981099109D9F7089562E070E0DB
:1007D00080E090E0F5DF8091080681FDF7CF60E4CE
:1007E0007FE180E090E0ECCF80E1089580910F24DC
:1007F000089580910E24089581E080930E24089539
:1008000010920E24F8940E942C186091A20060644B
:1008100082EA90E00E942A1BEEEFF0E4099441E0A6
:1008200054E868E870E081E08FDFD0DF41E054E910
:1008300068EA70E081E088DFC9DF41E054E868E001
:1008400070E081E081DFC2CFBF92CF92DF92EF9262
:10085000FF920F931F93CF93DF93C8E1DCE285E013
:10086000888387E089838BE08A8386E08C8300E03D
:1008700016E080E2F801818361E087E07EDF61E0DD
:100880008A817BDF61E08C8178DF61E088815DDFD8
:1008900060E089815ADF60E08A8157DF61E08C8106
:1008A00054DFC3E1DCE289E088838CE189838DE158
:1008B0008A8386E18B8388E0E82EEC8292E0F92E31
:1008C000F092210661E08CE158DF61E08A8155DF1A
:1008D00061E08C8152DF60E08B814FDF61E08881D5
:1008E00034DF60E0898131DF60E08A812EDF61E002
:1008F0008C812BDFA0E8B6E0BB24B3941196BC92A8
:1009000011971196FC921197E0E6F6E0F18220E44F
:10091000C22E26E0D22E80E8E6018983F982B982D0
:10092000D4E01196DC9311971196EC921197E18225
:10093000D183B1821596DC931597D683E6821596FE
:10094000EC92B5824AED5FEF60E083E19CE227D64E
:1009500048E250E067E083E19CE221D640E052E9C2
:100960006BE083E19CE21BD640E05FEF68E083E14F
:100970009CE215D640E252EA69E083E19CE20FD6A0
:1009800044E15AE26CE083E19CE209D649E85DE982
:100990006DE083E19CE203D640E05BE36EE083E13F
:1009A0009CE2FDD544E15AE26FE083E19CE2F7D599
:1009B00049E85DE960E183E19CE2F1D548ED50E072
:1009C00061E183E19CE2EBD541E050E066E183E147
:1009D0009CE2E5D540E050E06DE183E19CE2DFD5AB
:1009E00040E050EC65E183E19CE2D9D54AED5FEF50
:1009F00060E088E19CE2D3D548E250E067E088E11E
:100A00009CE2CDD540E052E96BE088E19CE2C7D59D
:100A100040E05FEF68E088E19CE2C1D540E252EA45
:100A200069E088E19CE2BBD544E15EE16CE088E1ED
:100A30009CE2B5D541EB53E96DE088E19CE2AFD58E
:100A400040E05BE36EE088E19CE2A9D541E050E044
:100A500066E188E19CE2A3D540E050E06DE188E1E9
:100A60009CE29DD540E050EC65E188E19CE297D5A1
:100A700080E1F8018183F6018183F801F282D1835C
:100A800086835ADE60E47FE180E090E099DE44E511
:100A900051E060E070E082E057DE98DE41E054E82B
:100AA00068E070E081E050DE91DE20E038E24BE665
:100AB0005EEE60E070E080E090E003D2B0DEB092E5
:100AC0000F24DF91CF911F910F91FF90EF90DF9056
:100AD000CF90BF900895EDE1FCE291E09083818397
:100AE00082958F708283CF019BCCFC01108284E0C1
:100AF000818381E06F3F09F480E0828363838DE02E
:100B00008483158294E696838783E0E1F4E280E0B3
:100B100081938F5F8436E1F78FEF809310248FEC01
:100B2000809373240895FC0110921D2C91819130C3
:100B300081F040F09230B1F09330A9F455DE80930B
:100B40001E2C11C082E080931E2C8AE080931F2C03
:100B50000AC08281865091E0843008F090E0909342
:100B60001E2C01C038D48DE08093242C8DE19CE2B2
:100B700057CCEDE1FCE210821182CF0151CCFC0197
:100B80002181328132272327322724363105D8F4B8
:100B900084E690E0821B930B8830910510F087E08B
:100BA00090E0F901E05FFB4DAEE1BCE290E0219105
:100BB0002D939F5F9817D8F380958295880F807E3C
:100BC00080931D2C03C086E080931D2C8DE19CE258
:100BD00027CCEDE1FCE211928CE2E532F807D9F77F
:100BE0000895CF93DF93EC01F4DF8881982F9295DD
:100BF0009F709F3021F4CE01DF91CF9143C39A3093
:100C000049F468E08DE19CE270DF8DE19CE2DF91C8
:100C1000CF9106CC9B3021F4CE01DF91CF91AFCFA5
:100C20009D3021F4CE01DF91CF91A3CF9C3021F4F0
:100C3000CE01DF91CF9177CF853019F4DF91CF913D
:100C4000DBCDDF91CF9147CF6150710981099109C7
:100C5000D9F70895DF92EF92FF920F931F93CF93EE
:100C6000DF93FC01A02FD22EE32EF42ED52FC62F1A
:100C7000B72F202F312F4D2D5E2D6F2D7D2F8C2FD7
:100C80009B2F00E20E94982820832A2F312F4D2D80
:100C90005E2D6F2D7D2F8C2F9B2F08E10E949828B1
:100CA00021832A2F312F4D2D5E2D6F2D7D2F8C2FDF
:100CB0009B2F00E10E94982822832A2F312F4D2D4F
:100CC0005E2D6F2D7D2F8C2F9B2F08E00E94982882
:100CD0002383A483DF91CF911F910F91FF90EF9019
:100CE000DF9008959F92AF92BF92CF92DF92EF92E2
:100CF000FF920F931F93CF93DF937C01DC012C9124
:100D000030E040E050E060E070E080E090E000E241
:100D10000E947D28D22E132FD42FC52FB62FA72F98
:100D2000C82EB92EF701218130E040E050E060E0AC
:100D300070E080E090E008E10E947D28D22A132B29
:100D4000D42BC52BAB2EA62A9A2E972AFC2DF82B36
:100D5000EB2DE92BD70114968C911497D82A129673
:100D60002C91129730E040E050E060E070E080E0CD
:100D700090E000E10E947D28D22A132BD42BC52BB2
:100D8000CA2CC62AB92CB72AF82BE92B13962C911A
:100D900030E040E050E060E070E080E090E008E0AB
:100DA0000E947D282D29312B4D2B5C2B6C297B2912
:100DB0008F2B9E2BDF91CF911F910F91FF90EF9082
:100DC000DF90CF90BF90AF909F9008959BEF980FCA
:100DD00081E0953008F480E00895FC0186819781D8
:100DE000982789279827009739F08131F7E29F07E4
:100DF00028F080E197E2089581E090E0089587303F
:100E000071F128F4853049F08630C1F008958830BA
:100E1000B9F1893009F444C0089581E080938606D1
:100E200082E08093860688E080936506809386063C
:100E300084E08093650680938606089581E0809320
:100E4000860682E08093860688E08093650680931C
:100E5000850684E08093660680938606089581E087
:100E60008093850682E08093850688E080936606FD
:100E70008093850684E080936506809386060895B6
:100E800091E09093850692E09093850680936606A4
:100E90008093860684E08093650680938506089596
:100EA00081E08093860682E08093860688E08093C6
:100EB00065068093860684E08093660680938506A7
:100EC0000895FF920F931F93CF93DF932115EBEBC0
:100ED0003E07EEEE4E07E0EA5E076105710581050B
:100EE000910509F0B0F4205438464F41524A6F4FF3
:100EF0007F4F8F4F9F4F89019A01AB01BC0183E166
:100F00009CE2ECD382E08093650680E880934606FD
:100F100015C0205C3749404E5D4561097109810962
:100F2000910989019A01AB01BC0183E19CE2D6D30E
:100F300082E08093660680E88093450683E19CE228
:100F4000DF91CF911F910F91FF9002C35F926F923B
:100F50007F928F929F92AF92BF92CF92DF92EF9249
:100F6000FF920F931F93CF93DF93A22F532E3A013B
:100F70004B01D82FC92FB02FEDE1FCE200E10E9418
:100F8000982821832A2F352DA301B4018D2F9C2F62
:100F900008E00E9498282283A3839501A601B70147
:100FA0008B2F912F00E10E94982824839501A601A0
:100FB000B7018B2F912F08E00E9498282583A682E5
:100FC0008DE087831082CF01DF91CF911F910F9128
:100FD000FF90EF90DF90CF90BF90AF909F908F9059
:100FE0007F906F905F901CCA2F923F924F925F92BA
:100FF0006F927F928F929F92AF92BF92CF92DF9229
:10100000EF92FF920F931F93CF93DF93CDB7DEB78D
:101010002C97CDBFDEBF3C0143DB1B821C82412CE1
:10102000512C812C912C19821A82212C312C4B812C
:101030005C8146155705E1F033DB5B016C019B01D8
:10104000A60160E070E080E090E052016401E98078
:10105000FA8081010E94B42829014A0169837A83B8
:101060001C012B813C812F5F3F4F2B833C83DFCFC3
:101070009A0140E050E060E070E0CB012D833E83B8
:101080004F83588769877A878B879C875901C12C42
:10109000D12CE12CF12C00E010E09201A401698137
:1010A0007A81C1010E94E0272C96CDBFDEBFDF917F
:1010B000CF911F910F91FF90EF90DF90CF90BF9055
:1010C000AF909F908F907F906F905F904F903F90E8
:1010D0002F900895CF93DF93EC0181E08093460633
:1010E00068E070E080E090E0AFDDCE01DF91CF916D
:1010F0007BCFCF93DF93EC0181E08093450668E0DE
:1011000070E080E090E0A0DDCE01DF91CF916CCF68
:101110002F923F924F925F926F927F928F929F9207
:10112000AF92BF92CF92DF92EF92FF920F931F93F5
:10113000CF93DF93CDB7DEB72B97CDBFDEBF2901AD
:101140003A014B018B879987302EE886C982DA8273
:10115000AB82BC82802F53DE20917524309176249F
:1011600040917724509178246091792470917A2469
:1011700080917B2490917C245201630174010B8542
:1011800019850E94D22809F450C09201A301B4012C
:10119000C80197DE8091742491E0980F9093742495
:1011A000893C70F520907524B0917624A091772425
:1011B000F0917824E091792480917A248D83909124
:1011C0007B249E8380917C248F839201A301B401B0
:1011D0008B859985A22CBB2ECA2EDF2EEE2EFD808C
:1011E0000E811F810E94D22858F0222D3B2F4A2FBA
:1011F0005F2F6E2F7F2DC801A0E00E94DB2819F41D
:101200000EDB1092742440927524509276246092E2
:101210007724709278248092792490927A249B8506
:1012200090937B24E985E0937C249885892F90E036
:1012300089879A87632D4EDFEB81FC812083318380
:1012400042835383632D89859A8553DFE981FA812F
:1012500020833183428353832B96CDBFDEBFDF9142
:10126000CF911F910F91FF90EF90DF90CF90BF90A3
:10127000AF909F908F907F906F905F904F903F9036
:101280002F9008952F923F924F925F926F927F928C
:101290008F929F92AF92BF92CF92DF92EF92FF9286
:1012A0000F931F93CF93DF93CDB7DEB72897CDBFB2
:1012B000DEBF7C01FC01008199DA811107C083E067
:1012C00080931E2C8DE19CE2ABD86FC00F70802FF5
:1012D0007DDD882349F081E080931D2C00931E2C36
:1012E0008DE19CE29DD861C0C7010196FBDC322EE6
:1012F000132F2A013B014C01C7016FDDE82E232D7E
:10130000312FA201B301C401AFEF0E94BD282F3FCE
:101310003B4B404A55466140710581059105D1F02E
:10132000C8F0232D312FA201B301C401A0E00E9417
:10133000DB2811F085E001C084E080931D2C032D93
:101340009201A301B4018EE19CE284DC8DE19CE278
:1013500067D82BC01D821E821F82188619821A82AE
:101360001B821C82CE0101965C01FE0135966F0145
:10137000232D312FA201B301C401CADE09811A81D4
:101380002B813C818D819E81AF81B8851C012D010F
:1013900058016901E12CF12C00E010E09C01A20150
:1013A00060E070E080E090E0D1DD2896CDBFDEBF48
:1013B000DF91CF911F910F91FF90EF90DF90CF9031
:1013C000BF90AF909F908F907F906F905F904F9065
:1013D0003F902F9008956F927F928F929F92AF923D
:1013E000BF92CF92DF92EF92FF920F931F93CF9312
:1013F000DF9340E554E060E070E082E0A5D960E072
:101400007AE688E190E020DC4BD9DC01CB019C013D
:10141000AD0160E070E080E090E040585109610962
:10142000710981099109E8EEAE2EF3E0BF2EC12CBF
:10143000D12CE12CF12C00E010E00E946227AA24BC
:10144000AA94AAE0BA2E0E94B52749015A016B015D
:101450007C01E22F192DD42FCB2DB62FFD2D3C0171
:10146000A0E00E94DB284CF40E943C28E22F132FBE
:10147000D42FC52FB62FF72F3C012E2F312F4D2FF4
:101480005C2F6B2F7F2FC30108E10E9498282093C7
:101490001E2C2E2F312F4D2F5C2F6B2F7F2FC30132
:1014A00000E10E94982820931F2C2E2F312F4D2FC2
:1014B0005C2F6B2F7F2FC30108E00E949828209398
:1014C000202CE093212C9401A501B601C7010FE364
:1014D0000E9498282093222C4091BD235091BE2336
:1014E0006091BF237091C02382E02ED960E878E339
:1014F00081E090E0A9DBDF91CF911F910F91FF90E8
:10150000EF90DF90CF90BF90AF909F908F907F90A3
:101510006F9085C96150710981099109D9F70895C2
:10152000E82FE695E695E69540E2E49FF001112468
:10153000FA5F877021E030E0A90102C0440F551F17
:101540008A95E2F7662311F045830895468308954E
:101550000F931F93CF93DF93EC0101E010E08B8199
:10156000E82FE695E695E69540E2E49FF001112428
:10157000FA5F20858770A80102C0440F551F8A9525
:10158000E2F7CA01822331F461E070E080E090E08C
:10159000C1DFE5CFDF91CF911F910F910895CF92D9
:1015A000DF92EF92FF920F931F93CF93DF93EC01A3
:1015B000F62E6A0160E570E080E090E0ABDF61E06C
:1015C0008981AEDF60E570E080E090E0A3DF60E05D
:1015D0008981A6DF60E570E080E090E09BDF61E05C
:1015E00089819EDF60E570E080E090E093DF60E05D
:1015F000898196DF60E0888193DF60E08A8190DFF7
:1016000060E570E080E090E085DF61E0898188DF5F
:1016100060E570E080E090E07DDF60E0898180DF60
:1016200018E000E88F2D802321F061E08A8178DFC7
:1016300003C060E08A8174DF60E570E080E090E0E4
:1016400069DF61E089816CDF60E570E080E090E057
:1016500061DF60E0898164DF0695115019F710E1C0
:10166000E12C90E8F92EC6018E219F21892B21F0D3
:1016700061E08A8155DF03C060E08A8151DF60E567
:1016800070E080E090E046DF61E0898149DF60E55D
:1016900070E080E090E03EDF60E0898141DFF69419
:1016A000E794115001F761E088813ADF60E570E06E
:1016B00080E090E02FDF61E0898132DF60E570E05B
:1016C00080E090E027DF60E08981DF91CF911F917A
:1016D0000F91FF90EF90DF90CF9022CF2F923F920B
:1016E0004F925F926F927F928F929F92AF92BF9232
:1016F000CF92DF92EF92FF920F931F93CF93DF93DE
:10170000CDB7DEB76197CDBFDEBF4C0169017A016D
:101710006A8379839801A601B7018A8199810E9421
:1017200095240E94342528E73AE944E550E40E94D4
:101730007F259B01AC016DE372E581E092E40E949C
:1017400025230E942C24862F90E08D879E8721E000
:1017500030E001C0220F6A95EAF758010A81198129
:1017600030E040E050E060E070E080E090E00E9417
:10177000622719012A013B018A839B83211530428C
:101780004C4B5E4B610571058105910531F028F0E8
:1017900023E02C8784E0898304C092E09C87E2E008
:1017A000E98330E8A32E4AEBB42E5CE8C52EDD2495
:1017B000D394E12CF12C00E010E0298130E040E0EE
:1017C00050E060E070E080E090E00E946227298BAA
:1017D0003F874C835D836E837F8388879987590118
:1017E0006A017B018C019101A201B3018A819B8175
:1017F0000E94E0272A873B879101A201B3018A81D9
:101800009B810E94DE2708E10E947D2808850E94B6
:10181000E0272B833A838901242F352F412E522E26
:10182000632E7724C80199278F87988B99819230EE
:1018300021F0943021F013E003C011E001C012E068
:10184000EC854E2F50E0486D5F6F60E0C401A7DE6D
:101850004A855B855695542F4427579547958D8526
:101860009E8524E0880F991F2A95E1F7482B592B74
:1018700024E0129FC0011124482B592B6CE0C401B5
:101880008EDEA2016DE0C4018ADE40E05F856EE07D
:10189000C40185DE48E252EA69E0C4016196CDBF29
:1018A000DEBFDF91CF911F910F91FF90EF90DF90FE
:1018B000CF90BF90AF909F908F907F906F905F90F0
:1018C0004F903F902F906BCECF93DF93CDB7DEB785
:1018D0006197CDBFDEBF89838CEF8A8385E48B83DC
:1018E00082E58C838D839FE49E838F8368874987FD
:1018F0001A861B861C861D868BE08E878EE08F875E
:10190000888B8FE0898B61E170E0CE0101960E94A7
:101910001F236196CDBFDEBFDF91CF9108952F9237
:101920003F924F925F926F927F928F929F92AF926F
:10193000BF92CF92DF92EF92FF920F931F93CF93BC
:10194000DF93CDB7DEB72F97CDBFDEBF7BD6863016
:1019500009F448C030F4813059F0843009F413C1DF
:1019600032C1893009F44FC08A3009F405C12BC156
:10197000D7D4811135C069D64B015C0170D6E82EF1
:101980007ED6882339F0F82E24E1281728F484E144
:10199000F82E02C0FF24F3947DD68C01E11004C020
:1019A00040E06FEF84E012C1009721F440E06FEF58
:1019B00085E00CC1893C910520F0482F6FEF86E04F
:1019C00005C179D60817190729F075D6402F682F59
:1019D0008DE0FCC02F2D4E2DC501B4010ED1F7C0F6
:1019E0004AEFD5C09DD4882311F040EFD0C080E0ED
:1019F000B4D76FEF7FEFCB01B3D745E064E670E07B
:101A000080E194E2DCC08CD48111B4C01ED62B01DD
:101A10003C0125D68F8733D6882331F08E838531DC
:101A200028F084E18E8302C091E09E8333D6EF8557
:101A3000EE2309F4B5CF009711F0482F0EC060E0F7
:101A400070E0CB0143D62F3F3F4F4F4F5F4F6F4F5B
:101A500071058105910521F04BE06FEF81E0B6C083
:101A6000D3D659014F83588769877A878C01D1D69D
:101A70002B873C874D875E87962E872E382E292E02
:101A8000CDD66B017C01E7D6E82F95014F815885B3
:101A900069857A85C801A0E00E94DB2811F44EEF29
:101AA0001FC095014F81588569857A85C801211528
:101AB0003C4B404A5546614071058105910519F03E
:101AC00010F04EEF23C02B853C854D855E85692D3A
:101AD000782D832D922DA0E00E94DB2821F44DEF7C
:101AE0006FEF89E073C02B853C854D855E85692D40
:101AF000782D832D922D21153C4B404A554661404F
:101B000071058105910529F020F04DEF6FEF88E018
:101B10005DC0D701C6010197A109B1098F3F9F4F51
:101B2000A105B10520F04C2D6FEF80E14FC0E11110
:101B300004C040E06FEF81E149C0EF93FF92EF9264
:101B4000DF92CF922F923F928F929F928E858F93AA
:101B50009D859F93EC85EF93FB85FF93CF80D88481
:101B6000E984FA842E814F85C301B2016AD0CDBFCA
:101B7000DEBF2DC04CEF0BC0D3D34BEF6FEF811105
:101B800007C08EE023C0CCD3882321F04DEF6FEF48
:101B900082E01CC0B3D61AEA19831A838FE08B83C4
:101BA0000E94F4038C831D8380E0D7D66FEF7FEF14
:101BB000CB01D6D645E065E070E0CE010196D8D7DE
:101BC00036D759D704C0482F6EEE87E07DDE2F96BA
:101BD000CDBFDEBFDF91CF911F910F91FF90EF90AE
:101BE000DF90CF90BF90AF909F908F907F906F903D
:101BF0005F904F903F902F900895AF92BF92CF92F9
:101C0000DF92EF92FF920F931F93CF93DF936B01BD
:101C10007C01B42EA22EE80181E080937D246ED653
:101C20000A2D2B2DAE01C701B60142D3DF91CF9112
:101C30001F910F91FF90EF90DF90CF90BF90AF90EA
:101C400008952F923F924F925F926F927F928F9260
:101C50009F92AF92BF92CF92DF92EF92FF920F933B
:101C60001F93CF93DF93CDB7DEB72A97CDBFDEBFEB
:101C70002B013C01842E922E8F8D898398A19A830B
:101C800089A18B839AA19C838BA18D839CA19E8328
:101C90008DA18F839EA198878FA1898798A59A8708
:101CA00039A42AA489E080937D2428D68BA58F931C
:101CB0002F923F928A858F9399859F9388858F93E2
:101CC0009F819F938E818F939D819F938C818F9312
:101CD0009B819F938A818F9399819F93292D482D72
:101CE000C301B20165D2CDBFDEBF2A96CDBFDEBF34
:101CF000DF91CF911F910F91FF90EF90DF90CF90E8
:101D0000BF90AF909F908F907F906F905F904F901B
:101D10003F902F90089510927D2408952F923F9226
:101D20004F925F926F927F928F929F92AF92BF92EB
:101D3000CF92DF92EF92FF920F931F93CF93DF9397
:101D4000CDB7DEB76597CDBFDEBFE090E921E9866C
:101D5000F090EA21FA860091EB210B871091EC219B
:101D60001C872091ED212D873091EE213E87209018
:101D7000EF213090F0214090F1214091F2214D8BE4
:101D80005091F3215C8BB091F421F091F521E09119
:101D9000F621E090F721EF86F090F821F88A809004
:101DA000D2219090D321A090D421B090D52161155B
:101DB00071058105910509F48EC07B018C0120E03D
:101DC00030E0A9016983FA820B831C832D833E8353
:101DD0004F8358879401A50160E070E080E090E0B7
:101DE000AFEF0E94BD28522E632E742E852E962EA4
:101DF000798B8A8B9B8B29813A81A80160E070E006
:101E000080E090E0A52CB62CC72CD82CE92CF988C2
:101E10000A891B890E94D22809F465C0242D3D89B6
:101E20004C895B2F6F2F7E2F8F859889A984BA8468
:101E3000CB84DC84ED84FE8481010E94C928E8EE15
:101E4000AE2EF3E0BF2EC12CD12CE12CF12C00E002
:101E500010E00E946227A52CB62CC72CD82CE92CA8
:101E6000F9880A891B890E94E027A980BA80CB8063
:101E7000DC80E12CF12C00E010E00E9462272901B7
:101E80003A014B018F879983A8EEAA2EB3E0BB2EAF
:101E9000C12CD12C29853A854B855C856D857E8545
:101EA000C1010E94622759016A017B018C019201E4
:101EB000A301B4018F8599810E94B42818EEA12E48
:101EC00003E0B02EC12CD12CE12CF12C00E010E06D
:101ED0000E94E02710C029853A854B855C856D8579
:101EE0007E85C10108C0242D3D894C895B2F6F2F51
:101EF0007E2F8F8598896596CDBFDEBFDF91CF910C
:101F00001F910F91FF90EF90DF90CF90BF90AF9017
:101F10009F908F907F906F905F904F903F902F9009
:101F20000895EDECF1E213861486158616868FEF80
:101F30008787808B818B828B838B848B858B868B31
:101F4000178A108E0895EDECF1E215A68FEF9FEF42
:101F5000A0E0B0E083879487A587B687178A108EA4
:101F600015821682178210861082138E118E128EA1
:101F700008952F923F924F925F926F927F928F922D
:101F80009F92AF92BF92CF92DF92EF92FF920F9308
:101F90001F93CF93DF93CDB7DEB76197CDBFDEBF81
:101FA0002B013C01E091E921F091EA21B091EB2174
:101FB0008091EC2189838091ED218A838091EE21AB
:101FC0008B838091EF218C838091F0218D83809190
:101FD000F1218E838091F2218F838091F321888774
:101FE0008091F42189878091F5218A878091F6215B
:101FF0008B878091F7218C878091F8218D87809045
:10200000D2219090D321A090D421B090D521411419
:1020100051046104710409F45EC09401A50160E0FB
:1020200070E080E090E0AFEF0E94BD2819014A0106
:10203000698B788B8E879F87630152019201A6017D
:1020400060E070E080E090E051016401E988F88888
:102050000E851F850E94D22809F445C09F014B2F91
:1020600059816A817B818C819D810E9495246B01BD
:102070007C01C301B2010E9458242B013C01910153
:10208000A40169897889C8010E9495249B01AC014B
:10209000C301B2010E948A234B015C012E813F8162
:1020A000488559856A857B858C859D850E94952408
:1020B000A70196010E948A23A50194010E94E225AE
:1020C0009B01AC01C701B6010E947F250E942E260C
:1020D0000E94F72310C09F014B2F59816A817B8199
:1020E0008C819D8108C02E813F81488559856A85F4
:1020F0007B858C859D856196CDBFDEBFDF91CF91BD
:102100001F910F91FF90EF90DF90CF90BF90AF9015
:102110009F908F907F906F905F904F903F902F9007
:102120000895DF92EF92FF920F931F93CF93DF9367
:10213000CDB7DEB76497CDBFDEBFD82EF5D3F82E6E
:10214000E92EF7D3182F092FD9D3D9828CEC8A83A3
:10215000EDECF1E281819281238134813B832C83F8
:102160009D838E83838594859F83888787898987CC
:102170001A86EB86FC861D860E871F87188A8BE0E1
:10218000898B8EE08A8B8B8B8FE08C8B64E170E087
:10219000CE010196D0D46FD4D6DE6496CDBFDEBF1B
:1021A000DF91CF911F910F91FF90EF90DF900895F5
:1021B0005F926F927F929F92AF92BF92CF92DF9287
:1021C000EF92FF920F931F93CF93DF93CDB7DEB7BC
:1021D0009988BA89AB89FC89ED896E885F89388DC9
:1021E0007D8C5090FA21511054C00F2EF9E05F2ED3
:1021F000F02D5092CD216093CE217093CF2180930A
:10220000D0219093D121698D7A8D8B8D9C8D609397
:10221000D2217093D3218093D4219093D5214093E0
:10222000D7212093D6215092E821A092E921B092A3
:10223000EA21C092EB21D092EC21E092ED21F092C4
:10224000EE210093EF211093F0219092F121B093B1
:10225000F221A093F321F093F421E093F521609211
:10226000F6215093F7213093F8217092F92171E013
:10227000771619F089EB9FE002C08EE89EE080930C
:10228000E6219093E7214DDE1092FB2181E08093BF
:10229000FA21DF91CF911F910F91FF90EF90DF9086
:1022A000CF90BF90AF909F907F906F905F90089578
:1022B0000F93CF933091FA2131112FC0DC01CB0164
:1022C000C1E0C093CD218093CE219093CF21A093E4
:1022D000D021B093D12160E070E04093D22150939F
:1022E000D3216093D4217093D5212093D7210093DB
:1022F000D621C093E82181E1E9EEF1E2DF011D92F0
:102300008A95E9F786E693E18093E6219093E721A9
:1023100008DE1092FB21C093FA21CF910F9108950E
:102320008091FA21089581E08093FB2108952F92F6
:102330003F924F925F926F927F928F929F92AF9255
:10234000BF92CF92DF92EF92FF920F931F93CF93A2
:10235000DF93CDB7DEB76C97CDBFDEBF8091FA219A
:10236000882309F459C18091B5239091B623A09197
:10237000B723B091B8238D8B9E8BAF8BB88F809194
:10238000B9239091BA23A091BB23B091BC23898F2C
:102390009A8FAB8FBC8FDE015196A98BBA8B60915F
:1023A000D8217091D9218091DA219091DB21809000
:1023B000D2219090D321A090D421B090D52168153E
:1023C00079058A059B0508F027C12091FB2122236E
:1023D00019F08FE0A6DE20C1E091E621F091E7211F
:1023E00009952093DC213093DD214093DE21509329
:1023F000DF216093E0217093E1218093E2219093AB
:10240000E32162D34090DC215090DD216090DE21F9
:102410007090DF218090E0219090E121F090E22106
:102420001091E3219201A301B4018F2D912FAFEF01
:102430000E94BD282F3F3B4B404A554661407105E5
:102440008105910511F008F057C08D899E89AF89EB
:10245000B88D8D879E87AF87B88B898D9A8DAB8D10
:10246000BC8D89879A87AB87BC87DE011D96AB8BB5
:10247000BC8B1E01B9E02B0E311CEB89FC899191BC
:10248000EB8BFC8B8091D721892339F11D821E8231
:102490001F82188619821A821B821C828091FB215E
:1024A000811125C09E012F5F3F4F5901CE01059636
:1024B0006C01E090D621D1010C919201A301B401ED
:1024C0008F2D912F0E94880829813A814B815C8150
:1024D0006D817E818F8198858DD2BFEF2B1A3B0A4B
:1024E000EB89FC8929893A89E217F30731F6809153
:1024F000FB218823A9F06DCF9201A301B4018F2D98
:10250000912F21153C4B404A55466140710581058C
:10251000910509F010F489E001C088E002DE7CC07A
:102520009091D72121E091FF20E081E092FF80E0AF
:10253000820F292F2170820F21E093FF20E0820F6C
:10254000FDD14090D8215090D9216090DA2170902F
:10255000DB218090D2219090D321A090D421B09003
:10256000D521882359F0D501C4010197A109B109EA
:10257000481659066A067B0609F040C0B1E08B1A7E
:102580009108A108B1082091CE213091CF2140912E
:10259000D0215091D1216091E4217091E52181E019
:1025A000481459046A047B0408F480E081956BD2D6
:1025B000A5D1481459046A047B0418F0C4DCABDBD1
:1025C00009C08091E4219091E52101968093E42156
:1025D0009093E5218091D8219091D921A091DA2181
:1025E000B091DB210196A11DB11D8093D82190935C
:1025F000D921A093DA21B093DB210EC0EFEF4E1A60
:102600005E0A6E0A7E0A4092D8215092D9216092C9
:10261000DA217092DB21C3CE6C96CDBFDEBFDF9195
:10262000CF911F910F91FF90EF90DF90CF90BF90CF
:10263000AF909F908F907F906F905F904F903F9062
:102640002F90089580917F24089560918024709147
:10265000812480918224909183240C94512780912D
:10266000702890917128079718F08091842401C0F8
:1026700080E09FEF980F9F3008F080E008958091F0
:10268000702890917128089718F0809185240895FA
:1026900080E0089580917028909171280B9740F008
:1026A00080918624909187249827892798270895D8
:1026B00080E090E0089580917028909171280A97A9
:1026C00065E070E00E943D27CB0108958F929F92B4
:1026D000AF92BF92CF92DF92EF92FF920F931F9330
:1026E000CF93DF939B01AC01A5E0B0E00E94582797
:1026F0006B017C01DC01CB010A96A11DB11DFC011F
:10270000E258FB4D208130E040E050E060E070E0B6
:1027100080E090E000E20E947D28B22E132FD42F9B
:10272000C52F962EA72EF82FE92FD701C6010B969D
:10273000A11DB11DDC01A258BB4D2C9130E040E041
:1027400050E060E070E080E090E008E10E947D28C9
:102750002B29132BD42BC52B962A872E8A28F82BAE
:10276000E92BB701A601425F5F4F6F4F7F4F425881
:102770005B4DDA01BC90B22AB701A601445F5F4FFE
:102780006F4F7F4F42585B4DDA012C9130E040E0B3
:1027900050E060E070E080E090E000E10E947D2881
:1027A000B22A132BD42BC52BA92CA62A982C972AF6
:1027B000F82BE92BB701A601435F5F4F6F4F7F4FA7
:1027C000CA0182589B4DDC012C9130E040E050E082
:1027D00060E070E080E090E008E00E947D282B2916
:1027E000312B4D2B5C2B6A2979298F2B9E2BDF9166
:1027F000CF911F910F91FF90EF90DF90CF90BF90FE
:10280000AF909F908F90089561E070E080E090E03D
:102810005DCF62E070E080E090E058CF809170285A
:10282000909171284C9798F020919724609198246A
:10283000862F90E0A0E0B0E0BA2FA92F982F88272C
:10284000A22B20919924BC01CD01622B089560E058
:1028500070E0CB01089580917028909171284D9778
:1028600030F080919A249FEF980F923008F080E02A
:102870000895833F23E0920710F082EF93E0809366
:1028800070289093712808958EE794E2089582EF5E
:1028900093E00895E6E6FCE290E4DF011D929A954C
:1028A000E9F79FEF908381838DE082838AE08383C1
:1028B00084E08093742808958091662C8F3FE1F422
:1028C0008091672C8430A1F020F4833099F42BDDC3
:1028D00022CA853059F0873069F460E486E69CE2CC
:1028E0000E94750589E08093742808950C94FC0378
:1028F0008EE003C087E001C081E0CCCF8DE090E0A6
:1029000080934323909344231092452310924623AF
:10291000EBE3F3E28FEF808381838283838384837D
:1029200085838683878308958091432390914423F0
:102930000895809145239091462308952091432343
:102940003091442396E0899F200D311D112481E0B0
:102950002B33314008F080E008958093FC210895E6
:10296000ECEFF1E291838283738364830895ECEF4B
:10297000F1E2958386830895DF92EF92FF920F93A1
:102980001F93CF93DF93A22FD32E7A01162FD72F29
:10299000C82FB92FECEFF1E200E20E9498282087BF
:1029A0002A2F3D2DA701612F7D2F8C2F9B2F08E112
:1029B0000E94982821872A2F3D2DA701612F7D2F66
:1029C0008C2F9B2F00E10E94982822872A2F3D2DD3
:1029D000A701612F7D2F8C2F9B2F08E00E94982844
:1029E0002387A487DF91CF911F910F91FF90EF90E4
:1029F000DF900895CF93DF93A5E4B3E2ED91FC91CE
:102A000011973196ED93FC93C3E4D3E2A881B98189
:102A1000FD01E450FE4D80837183628343833483E0
:102A20001696A883B9832583DF91CF9108952091CD
:102A3000432330914423F901E450FE4D4DE040839F
:102A40008EE081838AE08283C901049680934323C8
:102A5000909344234383AC014F735527452B51F486
:102A60002B5F3F4F2093432330934423FC01E450DA
:102A7000FE4D1082089560914323709144238CEFA2
:102A800091E20C941F230F931F93CF93DF938B013D
:102A9000CCEFD1E28883CA01B90162DFC80167DFE8
:102AA000809145238F83EBE3F3E2208131814281E2
:102AB000538164817581868197815EDFB8DFDF9104
:102AC000CF911F910F91D7CFFF920F931F93CF9369
:102AD000DF93F22E032F142FD52FC62FB72FF82FE9
:102AE000E92F20913B2330913C2340913D2350918D
:102AF0003E2360913F237091402380914123909128
:102B00004223AFEF0E94DB2881F4F0923B23009335
:102B10003C2310933D23D0933E23C0933F23B09397
:102B20004023F0934123E0934223DF91CF911F9103
:102B30000F91FF900895CF93DF936B3321E07207DD
:102B400018F4D62FC72F02C0DBE3C1E01092432355
:102B5000109244234D2F5C2FBC018CEF91E20E9418
:102B6000F628D0934323C0934423DF91CF91089557
:102B70000F931F93CF93DF93042F10E02BE331E0EB
:102B8000E901C01BD10B6C177D0708F4EB01109213
:102B9000432310924423AE01BC01C80184509E4DD2
:102BA0000E94F628C00FD11FC0934323D093442323
:102BB000DF91CF911F910F91089508950895089581
:102BC00008950895CF93DF931F92CDB7DEB78FB7E7
:102BD0008983F89489810F90DF91CF910895F2DF76
:102BE000A0E5B0E016969C911697997F16969C9357
:102BF0001697E0E6F0E090E895839BEB96831696B7
:102C00009C911697946016969C9390819160908306
:102C10008FBF0895CF93DF9300D000D0CDB7DEB73C
:102C20008FEF809370008093710080937200809387
:102C300073008093740080937500809376006CE13C
:102C400070E082E038D58C836DE170E082E033D5AE
:102C50008B838B819C81019621F480E493E28B83AA
:102C60009C838B819C8189839A83809362008A8173
:102C700080936300A7DF9091500092609093500082
:102C80008FBF8091510081FFFCCFA9DF61E080E41C
:102C900090E0E0D497DF909150009E7F9093500099
:102CA0008FBF2496CDBFDEBFDF91CF910895CF9324
:102CB000DF93C82FD62F86DFEC2FF0E0E059FF4FCF
:102CC000D0959081D923D0838FBFDF91CF91089584
:102CD000CF93DF93C82FD62F75DFEC2FF0E0E059AC
:102CE000FF4F9081D92BD0838FBFDF91CF91089573
:102CF000CF93863011F0C0E001C0C8E1809151004F
:102D000081FD0CC05FDF9091500092609093500065
:102D10008FBF8091510081FFFCCF61DF6C2F63601A
:102D200084E490E097D460E480E0CF91C0CF60E489
:102D300080E0CEDF60E084E490E08CC4CF93DF934A
:102D4000FC01DC0180E090E0262F30E0E901082E54
:102D500002C0D595C7950A94E2F7C0FF03C050960C
:102D60005C935097019611968830910579F740FF52
:102D700007C041FF02C0658301C06683618301C053
:102D80006283DF91CF910895809175280895809195
:102D90007528813011F40C94EC22089538D1FC018F
:102DA000838180937528813011F40C94E02281E0B6
:102DB00008959091AC2C892F807697FF08C08034BD
:102DC000A1F48091AD2C811110C00C9407238034A4
:102DD00061F48091AD2C811108C08091B22C90914A
:102DE000B32C892B11F00C94EF2280E008950F93FF
:102DF0001F939B018A01AC0160E081E80E94311FB2
:102E00001F910F9108950F931F939B018A01AC01AD
:102E100060E082E00E94311F1F910F9108950F938F
:102E20001F939B018A01AC0160E083E80E94311F7F
:102E30001F910F9108950F931F939B018A01AC017D
:102E400060E084E00E94311F1F910F9108950F935D
:102E50001F939B018A01AC0160E085E80E94311F4D
:102E60001F910F9108950F931F939B018A01AC014D
:102E700060E086E0F6D71F910F9108958091AE2C07
:102E80008F776AC790917C28911102C080E00895E5
:102E9000E0917A28F0917B280190F081E02D9481D7
:102EA0008917A0F7E0937828F0937928228133815D
:102EB0002E0F3F1FE217F30798F49181943061F4CD
:102EC0009281891309C09381691306C0E093782821
:102ED000F093792881E008959081E90FF11DEACF00
:102EE000E0937828F0937928D1CFE0917A28F09177
:102EF0007B280190F081E02D228133812E0F3F1F2E
:102F0000FC014081E40FF11DE217F30748F48181D1
:102F1000843031F0853039F08081E80FF11DF4CF35
:102F200080E090E00895CF0108951F93CF93DF9341
:102F3000182FA8DF882339F1C0917828D0917928FB
:102F4000CE01D3DFEC01892B41F04C815D816B8197
:102F50008A8114D78111F4CF16C0E0917A28F091BC
:102F60007B2892818381E92FF82FE10FF11DE10F7A
:102F7000F11D0190F081E02D0190F081E02DDF91B5
:102F8000CF911F91099480E0DF91CF911F91089517
:102F9000EF92FF921F93CF93DF93C82F60E072DF11
:102FA000811102C010E02CC0E0917A28F0917B28BA
:102FB00092818381E92FF82FEC0FF11DEC0FF11DA9
:102FC000E080F180D7011696ED91FC911797099555
:102FD000682F8C2F57DF182F882321F3C091782872
:102FE000D0917928CE0181DFEC01892B19F08A81FB
:102FF000E5D7F8CFD7011296ED91FC91139709957B
:10300000812FDF91CF911F91FF90EF9008958091D4
:10301000782890917928089532C6CF9380917C28A2
:10302000882311F0C0E00AC010927C2881E090E073
:103030008093802890938128CF910895E0917A28F9
:10304000F0917B280190F081E02D8481C81760F712
:103050008C2F9EDFCF5FF2CFDCD5DFCFCF93809177
:103060007C288823F1F0C0E0E0917A28F0917B2859
:10307000A081B18114968C91C81798F492818381B4
:10308000E92FF82FEC0FF11DEC0FF11D0190F081ED
:10309000E02D0084F185E02D309709F00995CF5F90
:1030A000E3CFCF9108950F931F93CF93DF931092A7
:1030B000B62C1092B72C1092B82C1092B92C1092FA
:1030C000BA2C1092BB2C8091AC2C87FF07C02091AA
:1030D000B22C3091B32C232B09F42FC2982F907669
:1030E00009F0EBC187FF0AC12091B22C3091B32CBB
:1030F0002115310509F4E1C18F7109F0ADC080914E
:10310000AD2C863071F0883009F49CC08111D5C196
:103110002230310509F0D1C162E070E080E898E228
:1031200099C08091AE2C9091AF2C292F332722305B
:103130003105A1F060F42130310509F0BEC1809164
:10314000082190910921DC016C9170E069C0233065
:10315000310589F12F30310509F1AFC1E091082126
:10316000F09109212189821708F0A7C19927880FBA
:10317000991F880F991FE0910A21F0910B21E80F08
:10318000F91F80819181FC0162817381F0D5E0910A
:10319000B42CF091B52C82E0818343C080910C2146
:1031A00090910D21009709F488C1DC0112966D9170
:1031B0007C91139735C099278230910571F028F4DE
:1031C000009779F00197B1F078C18330910571F0E3
:1031D0008E3E910509F4B3C170C169E08EE893E2B7
:1031E0000CC064E070E080EA93E21AC00E945D01C6
:1031F0006AE103C066E088E993E2282FAAE5B3E21A
:10320000FC01819190E08D939D938E2F821B8617F8
:10321000C0F3660F6E5F6093582370E088E593E219
:10322000A6D58091B22C9091B32C2091B62C3091E0
:10323000B72C8217930708F086C18093B62C909321
:10324000B72C81C12130310509F037C161E070E050
:103250008CE798E28CD577C18130C1F58091AD2C97
:103260008A3009F02AC12130310509F026C1809148
:103270007C28882309F421C1C091B02CD091B12CB5
:1032800000917A2810917B28D801ED91FC918481DE
:10329000C81708F012C160E08C2FF4DD882309F410
:1032A0000CC1DD27CC0FDD1FF80182819381C80F8F
:1032B000D91FE881F9810680F781E02D0995809377
:1032C0007E2861E070E08EE798E2C4CF823009F09A
:1032D000F4C08091AD2C8111F0C02230310509F08D
:1032E000ECC08091B02C9DD590E08093762890938F
:1032F000772862E070E086E798E2ACCF8F7109F042
:1033000090C08091AD2C833059F118F48130A1F038
:10331000D4C0853019F08930D9F1CFC08091B22C5A
:103320009091B32C892B09F0C8C08EE397E180936C
:10333000B82C9093B92C07C18091B22C9091B32CEA
:10334000892B09F0BAC08091AE2C9091AF2C0197D7
:1033500009F0B3C080918028909181288D7F13C09F
:103360008091B22C9091B32C892B09F0A6C080914A
:10337000AE2C9091AF2C019709F09FC080918028CE
:103380009091812882608093802890938128DBC06F
:103390008091B22C9091B32C892B09F08EC0DFD490
:1033A000882309F48AC02091AE2C3091AF2C3327AA
:1033B000E0910821F0910921818990E0821793071B
:1033C00008F47BC02ADE8091AE2C9091AF2C8093C4
:1033D0007C28882309F4B7C099278150904C880F26
:1033E000991F880F991F20910A2130910B21820F7C
:1033F000931F80937A2890937B28C0E0E0917A28ED
:10340000F0917B280190F081E02D8481C81708F0AD
:103410009AC060E08C2F89DD882309F44EC0CF5F0D
:10342000EDCF8130E9F48091AD2C8B3009F045C0AF
:103430008091B22C9091B32C892B09F03EC08091E1
:103440007C28882309F439C0C091B02CD091AE2CCF
:103450008C2F9EDD882389F16D2F8C2F66DD2BC08C
:10346000823059F58091AD2C813019F0833089F08C
:1034700024C08091B22C9091B32C892BF1F48091CF
:10348000AE2C9091AF2C892BC1F48091B02CD0D46C
:1034900012C08091B22C9091B32C892B71F4809141
:1034A000AE2C9091AF2C892B41F48091B02C56D545
:1034B0008091B02C8CD5811146C08091AC2C8F713D
:1034C000813009F042C080917C28882309F470C0C3
:1034D000C091B02CD091B12C00917A2810917B280A
:1034E000D801ED91FC918481C81708F061C060E0BB
:1034F0008C2FC8DC882349F1FE01FF27EE0FFF1F48
:10350000D80112968D919C911397E80FF91F0081B5
:103510001181D8011696ED91FC9117970995682FA6
:103520008C2FB0DC882389F0D8011496ED91FC91A2
:1035300015970995811107C008C080E03EC069E079
:1035400081EC93E25ACE81E038C08091AC2C8F712F
:10355000823071F580917C28882351F1C0E0E091A0
:103560007A28F0917B28A081B18114968C91C8179C
:10357000F8F492818381E92FF82FEC0FF11DEC0F05
:10358000F11D00811181D8011696ED91FC911797DC
:103590000995682F8C2F76DC882351F0D80114967A
:1035A000ED91FC91159709958111CDCFCF5FD7CFC4
:1035B000DF91CF911F910F919AC7DF91CF911F910A
:1035C0000F91089543E050E061E080E096E0B6DBC3
:1035D00043E050E062E080E096E0B0DB43E050E0A2
:1035E00064E080E096E0AADB43E050E068E080E041
:1035F00096E0A4DB43E050E060E180E096E09EDBF3
:1036000043E050E060E280E096E098DB43E050E089
:1036100060E480E096E092DB43E050E060E880E028
:1036200096E08CDB40E058E161E080E296E086DBEA
:1036300040E058E162E080E296E080DB40E058E163
:1036400064E080E296E07ADB40E058E168E080E206
:1036500096E074CB1BBEFC0128ED24BF6083089567
:10366000682F70E082E027C0CF93DF93EC0188E001
:10367000F7DF888389E0F4DF89838AE0F1DF8A83DA
:103680008BE0EEDF8B838CE0EBDF8C838DE0E8DF7B
:103690008D8380E1E5DF8E8382E1E2DF8F8383E14A
:1036A000DFDF888784E1DCDF898785E1D9DF8A87EE
:1036B000DF91CF9108954091CA01E62FF72F8093B3
:1036C000CA0184914093CA010895CF93DF931F925A
:1036D000CDB7DEB78FB78983F89489810F90DF91DA
:1036E000CF910895CF93DF93C82FD0E0CA55D34D23
:1036F00088818F3F09F4FFCFE8DF98819F5F98832F
:103700008FBFDF91CF910895CF93DF93C82FD0E083
:10371000CA55D34D8881811101C0FFCFD6DF988172
:10372000915098838FBFDF91CF910895CF93C82F89
:103730008091102CC11105C0882339F081E0E4DFAD
:1037400004C0811102C081E0CDDFC093102CCF9165
:103750000895282F2F70082E000C990B392F331F36
:103760003327331F832F90E0820F911D820F911D0D
:1037700023E0880F991F2A95E1F78458944D089506
:103780000F93E8ECF4E080818F7D808380818F7DD2
:103790008083E4E8FBE202E005931092862B10920E
:1037A000872B00E2069300E40693ECE7FBE200E2DD
:1037B000069300E40693ECEAFCE21486158616866E
:1037C0001786128613861092572B0F9108950F9328
:1037D00085E08093572BE5E8FBE204E00593EDE7F5
:1037E000FBE204E005930F9108950F9383E080932B
:1037F000572B1092862B1092872BE4E8FBE202E015
:1038000006930F910895E091B82CF091B92C309760
:1038100009F009940895282F2F70082E000C990B99
:10382000392F331F3327331F832F90E0820F911DD1
:10383000820F911D029749E0489F9001499F300DEA
:103840001124C9018D57954D0895AF92BF92DF9213
:10385000EF92FF920F931F93CF93DF93D82EDBDF6E
:10386000EC018D2D76DF7C01DC011196EC91E77087
:10387000E150E73040F4F0E0EE0FFF1FE653FC4D5F
:103880000081118102C008E010E02D813E818B8112
:103890009C814881D7FE4CC0F70166817781260F55
:1038A000371F2D833E8328173907B1F1BC01621BF6
:1038B000730B9B01211574E0370740F02FEF33E0C5
:1038C000C901B8010E943D27281B390B41FF0BC0DD
:1038D000C901B8010E943D27AC0191E0452B09F0D8
:1038E00090E0892F01C080E0988180FB91F9988356
:1038F000D70116961D921C92179712962D933C9302
:10390000139729813A818D819E81820F931F14968E
:103910008D939C93159708C041FF7CC04D7F4883D1
:103920001682178212821382F70102E0069389C081
:10393000D7011296AD90BC90139742FF11C0E98158
:10394000FA81B8010E943D27B0E4DB9EB00111244A
:103950006D5B774DAC01CF01820F931F0E94F6285B
:103960002D813E812A0D3B1D2D833E838B819C81C1
:103970008217930710F48D839E83F7012681378188
:10398000A216B30609F046C02D813E818217930727
:1039900009F440C0AC01421B530B9A01211554E0BD
:1039A000350758F02FEF33E0C901B8010E943D27D9
:1039B000B901681B790BCB0108C0C901B8010E948D
:1039C0003D27D901A81BB90BCD01F7011282138243
:1039D0008017910798F4888184608883F0E4DF9EE3
:1039E000C00111248D5B974DD70114968D939C9344
:1039F000159716960D931C93179796CF49815A8168
:103A00002D813E81240F351FF70124833583868362
:103A100097838ACF888180FF14C08E7F8883EF814F
:103A2000F885309771F06D817E814D2D80E0DF91BA
:103A3000CF911F910F91FF90EF90DF90BF90AF90CB
:103A40000994DF91CF911F910F91FF90EF90DF903C
:103A5000BF90AF9008950F93CF93DF938091572B32
:103A6000833029F4D0DEDF91CF910F9189CE209160
:103A7000532B3091542BC091B62CD091B72CC21B34
:103A8000D30B61F58091552B9091562B820F931F8C
:103A90008093552B9093562B2091B22C3091B32CC0
:103AA0008217930721F080918228882331F084E0E7
:103AB0008093572BECE7FBE236C0E091BA2CF091F3
:103AC000BB2C309799F00995882381F01092532BE5
:103AD0001092542BC091B62CD091B72CC034D10584
:103AE00028F010928228C0E4D0E003C081E08093E7
:103AF0008228C093862BD093872B8091532B909153
:103B0000542B2091B42C3091B52C280F391F2093C1
:103B1000882B3093892BC80FD91FC093532BD09378
:103B2000542BE4E8FBE202E00693DF91CF910F9182
:103B300008950F93CF938091CC0480FF63C021E060
:103B40002093CC048CE79BE2FC0100E80693E4E8B8
:103B5000FBE200E806932093CA04FC0100E106930F
:103B60008091572B882329F08350823008F44BDE54
:103B700007DE80917E2B90917F2B089709F044C03F
:103B800088E0E3E1FBE2ACEABCE201900D928A95A9
:103B9000E1F78091C80480628093C8048091C804D2
:103BA00080628093C8047FDAC82F811102C00FDEC3
:103BB0002BC08091AC2C87FF0DC01092552B10921A
:103BC000562B1092532B1092542B82E08093572B3C
:103BD00042DF1BC08091B22C9091B32C892B11F441
:103BE00004DE13C01092552B1092562B1092532BBB
:103BF0001092542B81E08093572BECE7FBE202E01C
:103C0000069303C0C0E001C0C1E08C2FCF910F919B
:103C10000895CF935ADDC82FE1ECF4E080818E7FC8
:103C200080831092C004108282D880E07FDD85E01E
:103C30006BDDCFBFCF910895CF9347DDC82F81E0D3
:103C400075DDEAECF4E080E4808380E28083E1ECDF
:103C5000F4E0808181608083A9ECB4E08C91826083
:103C60008C93E8ECF4E08081806480838C918160A7
:103C70008C93808180688083CFBFCF910895CF934C
:103C80001092600080E334D88091C00480648093F7
:103C9000C00481E08093600018DDC82F80E090E0D0
:103CA000FC0123E0EE0FFF1F2A95E1F7E85AF44DDF
:103CB00015A201968231910599F780E090E039E0F4
:103CC000389FF001399FF00D1124ED57F54D2081FB
:103CD0002E7F208301968031910591F76AE170E093
:103CE00082E0E9DC8F3F09F48FE18093FA046BE115
:103CF00070E082E0E0DC8F3F09F48FE18093FB0409
:103D00008091C00488608093C0048091C004806862
:103D10008093C0048091C00480618093C0048CE7CC
:103D20009BE28093C6049093C7048091C004806294
:103D30008093C0048FEF8093C5048091C804816094
:103D40008093C8041092102C85E0CCDC75DFCFBFC7
:103D5000CF91089580E008958093C30408958091E1
:103D6000C304089580910C2C90910D2C0895ECEAD9
:103D7000FCE2808791876287738708951F93CF93B2
:103D8000DF93162FEA01E5DCFC018181807C09F0DC
:103D900041C0612F6370613019F020F080E803C0EA
:103DA00080EC01C080E4C038D105E1F050F4C032AD
:103DB000D105A1F0C034D10599F06097C9F491E024
:103DC00018C0C11592E0D90779F0CF3F93E0D90729
:103DD00069F0C115D14061F495E00BC092E009C0D3
:103DE00093E007C094E005C096E003C097E001C0EF
:103DF00090E0118226E02083982B91838181807C42
:103E0000803C21F481818770873031F0818180622C
:103E1000818302C080E001C081E0DF91CF911F91DA
:103E2000089597DCFC01818182FB882780F9089541
:103E3000CF93C82F8EDCFC01818182FF0FC081816E
:103E40008B7F81838C2FE7DCFC01908190FF06C083
:103E50009E7F90830780F085E02D099581E0CF91CA
:103E600008958F929F92AF92BF92CF92DF92EF927E
:103E7000FF920F931F93CF93DF93B82EA62E4A0184
:103E80007901C9DCEC018B2D64DC6C01DC0111963D
:103E90008C911197807C09F453C011968C911197E5
:103EA000807C803C21F011968C9182FD49C00DDC14
:103EB000988190FF02C08FBF43C0916098838FBFED
:103EC00089829A82EB82FC821D821E820F83188770
:103ED00091E0A11004C0E114F10409F090E08881A0
:103EE00090FB81F98B7F8883B7FE02C0F60122C068
:103EF000D60111968C911197807C803CC1F411966B
:103F0000EC91E770E150E73040F4F0E0EE0FFF1F76
:103F1000E653FC4D6081718102C068E070E0C7012A
:103F2000ACD7892B21F088818E7F888309C0F60168
:103F300012821382168217828B2D87DC81E001C0EA
:103F400080E0DF91CF911F910F91FF90EF90DF9074
:103F5000CF90BF90AF909F908F900895EF92FF9277
:103F60000F93CF93C82FF5DB7C018C2F54DCDC0141
:103F7000F70102E005939C9190FF1BC09E7F9C93EC
:103F80001796ED91FC911897309799F0D701C7FFDC
:103F900005C016966D917C91179704C012966D918D
:103FA0007C9113974C2F81E0CF910F91FF90EF9070
:103FB0000994CF910F91FF90EF900895CF93C82F60
:103FC000CDDF8C2FC6DBFC011182CF9108950F93BA
:103FD000CF93C82FBEDBFC0181818460818301E027
:103FE00006938C2FBBDF81E0CF910F9108951F9234
:103FF0000F920FB60F9211240F932F933F934F936D
:104000005F936F937F938F939F93AF93BF93CF9360
:10401000EF93FF938091CB0487FF06C080E88093E5
:10402000CA041CD85CD285C08091CB0482FF18C022
:1040300084E08093CA048091842B86FF7AC08091AB
:10404000CC0481FD76C075DD811173C08091572B42
:10405000813011F4CADB6DC0843009F06AC021C020
:104060008091CB0481FF26C082E08093CA048091B6
:104070007C2B86FF5EC08091CC0481FD5AC059DD47
:10408000811157C08091572B823041F484E0809396
:10409000572BECE7FBE202E006934BC0833009F0BC
:1040A00048C0E5E8FBE204E00593EDE7FBE204E04D
:1040B00005933FC08091CB0484FF26C080E18093AC
:1040C000CA04C1E08C2F4ADF8C2F806847DFCF5FA6
:1040D000C930C1F70E940D181092C30410927D2BB5
:1040E00096E090937C2B83E480937D2B1092852B1C
:1040F0009093842B8093852B83E19BE28093802B8C
:104100009093812B3DDB15C08091CB0486FF07C0C7
:1041100080E48093CA0480E009DBDDD10AC080918D
:10412000CB0485FF06C080E28093CA0481E0FEDAFA
:10413000D4D1FF91EF91CF91BF91AF919F918F918A
:104140007F916F915F914F913F912F910F910F90C0
:104150000FBE0F901F9018951F920F920FB60F92DF
:1041600011240F931F932F933F934F935F936F935C
:104170007F938F939F93AF93BF93CF93DF93EF93EF
:10418000FF938091CC0481FF1AC082E08093CC041D
:104190008091C5048195880FECE7FBE2E81BF109EB
:1041A000208131812C573B4283E0369527958A95B3
:1041B000E1F7822F869520FD06C0C0E005C0B9DC7E
:1041C000882319F386C0C0E8C80F8C2FC2DAFC011F
:1041D000208125FF7EC000E20693C11174C080914A
:1041E000572B843019F40FDBCBDA73C000917E2B90
:1041F00010917F2B8091B62C9091B72CC091532BAE
:10420000D091542B98012C0F3D1F8217930718F45F
:104210008C010C1B1D0B8091B42C9091B52CA80126
:1042200063E17BE28C0F9D1FE1D7C00FD11FC093CC
:10423000532BD093542B0034110569F48091552BE6
:104240009091562B8C0F9D1F2091B22C3091B32C46
:104250008217930788F0C093B62CD093B72CE091C7
:10426000BA2CF091BB2C309729F00995811102C02E
:10427000AEDA2FC0BADA2DC08091B62C9091B72C4F
:10428000C817D907D9F4E091BA2CF091BB2C30971C
:1042900079F30995882361F32091552B3091562BA2
:1042A0008091532B9091542B820F931F8093552B09
:1042B0009093562B1092532B1092542BECE7FBE269
:1042C00002E0069306C0C03811F4C5DB02C08C2F93
:1042D000BCDAFF91EF91DF91CF91BF91AF919F91A8
:1042E0008F917F916F915F914F913F912F911F918E
:1042F0000F910F900FBE0F901F90189580E00C94B7
:10430000E01580E00E94E01540E951E260E470E0D1
:1043100086E69CE20C940317811101C0F2CF089548
:1043200081110EC081E00E94E0150E945C14609132
:10433000742870E04CE851E286E69CE20C94F71693
:104340000895CF93DF9381E08093A42380E00E94BF
:10435000E01580E090E00E9439140E944714EC01BF
:104360000E9444144DEB51E2BE01DF91CF910C94B9
:104370001B17811101C0E5CF0895CF93DF93811101
:104380000BC0EB0181E00E94E015CE010E943914C0
:10439000DF91CF910C948F0CDF91CF910895EF9224
:1043A000FF920F931F93CF93DF937C010E944414DD
:1043B000EC010E9447148C0116950795E114F10455
:1043C00089F081E00E94E0152091112C209FC0010E
:1043D000219F900D11244EE751E2B7018C0F9D1FD4
:1043E0000E94271721E08091112C811120E0209359
:1043F000112C30E0029FC001039F900D129F900D81
:104400001124C80FD91FA6DC811103C060E071E040
:1044100002C060E470E046E152E2CE01DF91CF914C
:104420001F910F91FF90EF900C943317811102C0F0
:10443000CB01B5CF089587E08093A20078941092C5
:10444000A62C1092A72C1092A82C1092A92C109296
:10445000AA2C81E08093AB2C0E940A16B3D80E944C
:10446000DD150E94DE150E9424040E940C180E9493
:104470009011882339F08091A423882319F00E9499
:10448000971105C00E94F90381110E940004F8945D
:10449000A6EABCE2E0E08D91811102C0EF5FFBCFA4
:1044A000E11102C07894E3CF80914800F0E0E95B2D
:1044B000FC4D817F9081892B80934800809148003A
:1044C00081608093480078948895809148008E7F21
:1044D00080934800CCCF0C94DE150C94DF158091AE
:1044E000122C882319F03EDC0C94E11508950F93EB
:1044F0001F938091AC2C80768034F1F58091AD2CA7
:104500008132D1F58091B02C9091B12C84309105FD
:1045100019F00597C9F050C08091B22C9091B32C3E
:104520004091E0205091E1206091E2207091E320E1
:104530008C0120E030E0401751076207730708F54F
:10454000CA0120EE30E222C08091B22C9091B32CAF
:104550004091002050910120609102207091032031
:104560008C0120E030E0401751076207730760F4C8
:10457000CA0120E030E20AC080E090E020E030E0B4
:1045800005C020EE30E202C020E030E28093B62C7D
:104590009093B72C892B51F41092B82C1092B92C0F
:1045A0001092BA2C1092BB2C81E007C02093B42C3F
:1045B0003093B52C81E001C080E01F910F910895E8
:1045C00081E08093122C9DDEBCDE1092112C80E0E5
:1045D00090E0E5DE81E008951092122C089581E0CC
:1045E0000E94E01586E29CE28093B42C9093B52C57
:1045F0008091B22C9091B32C8134910510F080E41D
:1046000090E08093B62C9093B72C81E0089580E0E1
:104610000E94E01586E29CE28093B42C9093B52C26
:104620008091B22C9091B32C8134910510F080E4EC
:1046300090E08093B62C9093B72C81E0089510926F
:10464000A42349EB51E20C940F175058BB27AA271B
:104650000ED0D0C1C1D130F0C6D120F031F49F3F8F
:1046600011F41EF4A6C10EF4E095E7FB9CC1E92FFE
:10467000D2D180F3BA17620773078407950718F041
:1046800071F49EF5EAC10EF4E0950B2EBA2FA02D21
:104690000B01B90190010C01CA01A0011124FF27EF
:1046A000591B99F0593F50F4503E68F11A16F040EA
:1046B000A22F232F342F4427585FF3CF46953795E9
:1046C0002795A795F0405395C9F77EF41F16BA0BAE
:1046D000620B730B840BBAF09150A1F0FF0FBB1F5C
:1046E000661F771F881FC2F70EC0BA0F621F731FA5
:1046F000841F48F4879577956795B795F7959E3F02
:1047000008F0B3CF9395880F08F09927EE0F97958F
:10471000879508950CD06EC166D140F05DD130F020
:1047200021F45F3F19F03FC1511198C142C173D1CB
:1047300098F39923C9F35523B1F3951B550BBB2768
:10474000AA2762177307840738F09F5F5F4F220F15
:10475000331F441FAA1FA9F333D00E2E3AF0E0E80E
:1047600030D091505040E695001CCAF729D0FE2F5A
:1047700027D0660F771F881FBB1F261737074807EC
:10478000AB07B0E809F0BB0B802DBF01FF279358A2
:104790005F4F2AF09E3F510568F005C15FC15F3F42
:1047A000ECF3983EDCF3869577956795B795F7958A
:1047B0009F5FC9F7880F911D9695879597F9089582
:1047C000E1E0660F771F881FBB1F6217730784071E
:1047D000BA0720F0621B730B840BBA0BEE1F88F72D
:1047E000E0950895BEE304D008F490E80895BFE38F
:1047F00022273327A90117D158F19F5740F1B91744
:1048000038F1BFE3B91B9927B8503AF4660F771F08
:10481000881F991FB395D2F316C0B8504AF0232FC2
:10482000342F452F562F672F782F8827B850BAF787
:10483000B85F49F086957795679557954795379571
:104840002795BA95B9F70EF4B7D08894089588944F
:1048500060E070E0CB010895E6D088F09F5790F0BB
:10486000B92F9927B751A0F0D1F0660F771F881F95
:10487000991F1AF0BA95C9F712C0B13081F0EDD086
:10488000B1E00895EAC0672F782F8827B85F39F024
:10489000B93FCCF3869577956795B395D9F73EF4F4
:1048A00090958095709561957F4F8F4F9F4F08959C
:1048B000E89409C097FB3EF49095809570956195BA
:1048C0007F4F8F4F9F4F9923A9F0F92F96E9BB2770
:1048D0009395F695879577956795B795F111F8CFEC
:1048E000FAF4BB0F11F460FF1BC06F5F7F4F8F4F57
:1048F0009F4F16C0882311F096E911C0772321F04D
:104900009EE8872F762F05C0662371F096E8862FE4
:1049100070E060E02AF09A95660F771F881FDAF73B
:10492000880F9695879597F90895E894F92F96EB57
:10493000FF2381F0121613061406440B9395F69587
:1049400087957795679557954040FF23B9F71BC02A
:1049500099270895882351F49850D2F7872B762F02
:10496000652F542F432F322F20E0B1F31216130678
:104970001406440B88233AF09A95440F551F661F7E
:10498000771F881FCAF755234AF4440F551F11F4A7
:1049900060FF04C06F5F7F4F8F4F9F4F880F9695CA
:1049A000879597F9089597F99F6780E870E060E030
:1049B00008959FEF80EC089590958095709560958F
:1049C00050954095309521953F4F4F4F5F4F6F4F1A
:1049D0007F4F8F4F9F4F089500240A941616170695
:1049E00018060906089500240A94121613061406E0
:1049F00005060895092E0394000C11F4882352F043
:104A0000BB0F40F4BF2B11F460FF04C06F5F7F4FFA
:104A10008F4F9F4F089557FD9058440F551F59F0E1
:104A20005F3F71F04795880F97FB991F61F09F3F9B
:104A300079F087950895121613061406551FF2CFC4
:104A40004695F1DF08C0161617061806991FF1CF14
:104A500086957105610508940895E894BB2766273B
:104A60007727CB0197F908950AD029ED3BE54EED64
:104A70005EE345C00EF05EC19CCF689494CFD3DF57
:104A8000C8F39923D1F3C6F3DF93CF931F930F930A
:104A9000FF92C92FDD2788232AF02197660F771F01
:104AA000881FDAF720E030E040E85FEB9FE38839C9
:104AB00020F0803E30F021968F77C8DDECEFF1E0FA
:104AC00003C0C4DDE9E2F2E043D18B01BE01EC0199
:104AD000FB2E6F5771097595771F880B990BEADECE
:104AE00028E132E741E35FE316D0AF2D9801AE0134
:104AF000FF900F911F91CF91DF91B9DD7BCF0BD04C
:104B000079CF6ADF28F06FDF18F0952309F04BCFDB
:104B100050CF1124A3CF7FDFA0F3959FD1F3950F42
:104B200050E0551F629FF001729FBB27F00DB11D31
:104B3000639FAA27F00DB11DAA1F649F6627B00DC1
:104B4000A11D661F829F2227B00DA11D621F739FAA
:104B5000B00DA11D621F839FA00D611D221F749FB8
:104B60003327A00D611D231F849F600D211D822FFF
:104B7000762F6A2F11249F5750408AF0E1F0882346
:104B80004AF0EE0FFF1FBB1F661F771F881F915053
:104B90005040A9F79E3F510570F005CF5FCF5F3FB2
:104BA000ECF3983EDCF3869577956795B795F79586
:104BB000E7959F5FC1F7FE2B880F911D969587950E
:104BC00097F90895FA01EE0FFF1F30962105310580
:104BD00099F16115710561F48038BFE39B0749F1D4
:104BE00068949038810561F08038BFEF9B0741F0F1
:104BF000992342F5FF3FE1053105210511F1E894C4
:104C00000894E795D901AA2329F4AB2FBE2FF85FAA
:104C1000D0F310C0FF5F70F4A695E0F7F73950F0BD
:104C200019F0FF3A38F49F779F930CD00F9007FC50
:104C3000905808953EF0BDCE60E070E080E89FE3BC
:104C400008954FE79F775F934F933F932F9317DF1D
:104C50002F913F914F915F9152DF25C0E4DEE0F04C
:104C60009E37D8F09639B8F49E3848F4672F782FDD
:104C70008827985FF9CF86957795679593959539AD
:104C8000D0F3B62FB1706B0F711D811D20F4879585
:104C900077956795939533C04DC0E0CE19F40EF02B
:104CA00082CEDBCE86CEBFDEC8F39638C0F707F8DB
:104CB0000F92E8942BE33AEA48EB5FE72EDF0F927E
:104CC0000F920F924DB75EB70F92A4D0E6E5F2E0D7
:104CD0003FD04F915F91EF91FF91E595EE1FFF1F40
:104CE00049F0FE57E0684427EE0F441FFA95E1F7BC
:104CF0004195550B5BD00F9007FE4FC00895882358
:104D000071F4772321F09850872B762F07C0662304
:104D100011F499270DC09051862B70E060E02AF0C5
:104D20009A95660F771F881FDAF7880F96958795F3
:104D300097F908959F3F31F0915020F4879577952A
:104D40006795B795880F911D9695879597F9089562
:104D5000DF93CF931F930F93FF92EF92DF927B012C
:104D60008C01689405C0DA2EEF01D5DEFE01E894CF
:104D7000A5912591359145915591AEF3EF0177DCE1
:104D8000FE019701A801DA9479F7DF90EF90FF9088
:104D90000F911F91CF91DF9108959B01AC0160E0CD
:104DA00070E080E89FE3B6CCFECDC4CF3CDEE8F3F4
:104DB0009923D9F3940F511DBBF39150504094F0B7
:104DC00059F0882332F0660F771F881F91505040AA
:104DD000C1F79E3F510544F7880F911D9695879521
:104DE00097F908955F3FACF0983E9CF0BB278695FD
:104DF00077956795B79508F4B1609395C1F7BB0FA8
:104E000058F711F460FFE8CF6F5F7F4F8F4F9F4FD0
:104E1000E3CF24CEFA01DC01AA0FBB1F9B01AC013A
:104E2000BF5728F422273327442750781FC0B75193
:104E300088F4AB2F0024469537952795011CA39540
:104E4000D2F3002069F0220F331F441FB395DAF329
:104E50000DD0FBCB61307105A0E88A07B94630F46C
:104E60009B01AC016627772788279078309621F040
:104E700020833183428353830895AA1BBB1B51E1D6
:104E800007C0AA1FBB1FA617B70710F0A61BB70BBA
:104E9000881F991F5A95A9F780959095BC01CD015F
:104EA00008956927962769277827872778270895FF
:104EB0008ED1A59F900DB49F900DA49F800D911D44
:104EC00011240895DF93CF931F930F939A9DF02D94
:104ED000219FF00D8B9DF00D8A9DE02DF10D039F1C
:104EE000F00D029FE00DF11D4E9DE00DF11D5E9D48
:104EF000F00D4F9DF00D7F936F93BF92AF925F9334
:104F00004F93D50164D18B01AC01D70160D1EB0186
:104F1000E80FF91FD6011FD02F913F91D60157D12D
:104F2000C60FD71FE81FF91FAF91BF9114D02F9163
:104F30003F914DD1C60FD71FE81FF91FD60147D1AA
:104F4000E60FF71F9801BE01CF0111240F911F91A9
:104F5000CF91DF9108953BD1460F571FC81FD91F2E
:104F600008F431960895689401C0E894F92FF12B64
:104F70000AF027C0A0E0B0E0EFEBF7E293C0092E03
:104F800005941AF479D0112392F4F0E80F26FFEF7C
:104F9000E094F09400951095B094C094D094A194AE
:104FA000BF0ACF0ADF0AEF0AFF0A0F0B1F0B13D04D
:104FB00007FC62D0CDB7DEB7ECE08DC0689401C0CD
:104FC000E8948F929F92CF93DF9305D0DF91CF919A
:104FD0009F908F90089588249924F401E401B0E40F
:104FE0009F93AA279A158B049C04ED05FE05CF0517
:104FF000D007A10798F4AD2FDC2FCF2FFE2FE92D7E
:10500000982C892E982F872F762F652F542F432F7A
:10501000322F2227B85031F7BF9127C01B2EBF91E6
:10502000BB27220F331F441F551F661F771F881F82
:10503000991F881C991CEE1FFF1FCC1FDD1FAA1F84
:10504000BB1F8A149B04EC05FD05CE05DF05A007F8
:10505000B10748F08A189B08EC09FD09CE09DF0961
:10506000A00BB10B21601A94E1F62EF49401AF016C
:10507000BE01CD01000C08956095709580959095C6
:1050800030954095509521953F4F4F4F5F4F6F4F53
:105090007F4F8F4F9F4F08952F923F924F925F9275
:1050A0006F927F928F929F92AF92BF92CF92DF9238
:1050B000EF92FF920F931F93CF93DF93CDB7DEB79D
:1050C000CA1BDB0BCDBFDEBF09942A88398848880C
:1050D0005F846E847D848C849B84AA84B984C88414
:1050E000DF80EE80FD800C811B81AA81B981CE0F0B
:1050F000D11DCDBFDEBFED0108950F93083090F0B4
:10510000982F872F762F652F542F432F322F22274A
:105110000850F4CF220F331F441F551F661F771FFF
:10512000881F991F0A95B2F70F91089597FB10F801
:10513000169400080F93083098F00850232F342F4E
:10514000452F562F672F782F892F902DF4CF059458
:1051500097958795779567955795479537952795AF
:105160000A95AAF70F9108952A0D3B1D4C1D5D1D50
:105170006E1D7F1D801F911F08950024A7FD0094C0
:105180002A0F301D401D501D601D701D801D901D7B
:1051900008952A193B094C095D096E097F09800BA6
:1051A000910B08952A153B054C055D056E057F059D
:1051B0008007910708950024A7FD00942A17300561
:1051C0004005500560057005800590050895A29F73
:1051D000B001B39FC001A39F700D811D1124911DCB
:1051E000B29F700D811D1124911D0895FB01DC01FA
:1051F00002C001900D9241505040D8F70895F894A4
:02520000FFCFDE
:10520200E0000000000105000100D60000000700D8
:1052120000002A0044006500760069006300650012
:1052220049006E0074006500720066006100630050
:1052320065004700550049004400730000009E00CD
:1052420000007B00650036006300640065006500B5
:10525200320030002D0037003700620034002D008C
:1052620034003400310032002D0039006500310075
:1052720063002D0034003800330063003900610000
:105282003500660033006600630030007D000000D8
:105292007B0063006300380031006100330063006B
:1052A20030002D0034003800650064002D00340009
:1052B2003600640032002D0062003900660064008E
:1052C2002D003700310036006500300033006500E4
:1052D200650062003500630066007D00000000008A
:1052E200280000000001040001000000000000008E
:1052F200010157494E5553420000000000000000D2
:1053020000000000000000007C210E210000162198
:105312001221C3214E2309026500020100E0320975
:1053220004000002030000000921110100012235DE
:10533200000705870308000407050803080004099D
:1053420004010000FFFFFF000904010106FFFFFF47
:105352000007058103400001070502034000010721
:10536200058302400000070504024000000705858E
:1053720001000101070506010001010012010002FE
:1053820000000040EB03FB3E0A020102030106FF9C
:10539200FF0901A10109020903150026FF00750892
:1053A2009508810209040905150026FF0075089574
:1053B20008910209060907150026FF0075089504E1
:1053C200B102C0CF010F02D701B9010000000000F5
:1053D2000000000000000000FFFF0000FFFFFFFFD1
:1053E200FFFFFFFF000000000000000000000000BF
:1053F20000000000000000000000000000000000AB
:10540200000000000000000000000000000000009A
:10541200000000000000000000000000000000008A
:10542200000000000000000000000000000000007A
:10543200000000000000000000000000000000006A
:10544200000000000000000000000000000000005A
:10545200000000000000000000000000000000004A
:10546200000000000000000000000000000000003A
:10547200000000000000000000000000000000002A
:10548200000000000000000000000000000000001A
:10549200000000000000000000000000000000000A
:1054A20000000000000000000000000000000000FA
:1054B20000000000000000000000000000000000EA
:1054C20000000000000000000000000000000000DA
:1054D20000000000000000000000000000000000CA
:1054E20000000000000000000000000000000000BA
:1054F20000000000000000000000000000000000AA
:105502000000000000000000000000000000000099
:105512000000000000000000000000000000000089
:105522000000000000000000000000000000000079
:105532000000000000000000000000FFFFFFFFFF6E
:10554200FFFFFF0000000000000E060C0400CE1654
:10555200C716D916C41600000003000000000000A0
:105562000000000000000000000000000000000039
:105572000000000000000000000000000000000029
:105582000000000000000000000000000000506F5A
:10559200636B6574564E41004D617274696E000012
:1055A2000403090401303132333435363738394196
:1055B2004243444546020104080706090854010013
:1055C200004D53465431303021001000200040007D
:0855D200800000010002FF034C
:00000001FF
