:10000000B2C10000CDC10000CBC10000C9C10000D9
:10001000C7C10000C5C10000C3C10000C1C10000CC
:10002000BFC10000BDC10000BBC10000B9C10000DC
:10003000B7C10000B5C10000B3C10000B1C10000EC
:10004000AFC10000ADC10000ABC10000A9C10000FC
:10005000A7C10000A5C10000A3C10000A1C100000C
:100060009FC100009DC100009BC1000099C100001C
:1000700097C1000095C1000093C1000091C100002C
:100080008FC100008DC10000DAC5000089C10000E9
:1000900087C1000085C1000083C1000081C100004C
:1000A0007FC100007DC100007BC1000079C100005C
:1000B00077C1000075C1000073C1000071C100006C
:1000C0006FC100006DC100006BC1000069C100007C
:1000D00067C1000065C1000063C1000061C100008C
:1000E0005FC100005DC100005BC1000059C100009C
:1000F00057C1000055C1000053C1000051C10000AC
:100100004FC100004DC100004BC1000049C10000BB
:1001100047C1000045C1000043C1000041C10000CB
:100120003FC100003DC100003BC1000039C10000DB
:1001300037C1000035C1000033C1000031C10000EB
:100140002FC100002DC100002BC1000029C10000FB
:1001500027C1000025C1000023C1000021C100000B
:100160001FC100001DC100001BC1000019C100001B
:1001700017C1000015C1000013C1000011C100002B
:100180000FC100000DC100000BC1000009C100003B
:1001900007C1000005C1000003C1000001C100004B
:1001A000FFC00000FDC00000FBC00000F9C000005F
:1001B000F7C00000F5C00000F3C00000F1C000006F
:1001C000EFC00000EDC00000EBC00000E9C000007F
:1001D000E7C00000E5C00000E3C00000E1C000008F
:1001E000DFC00000DDC00000DBC00000D9C000009F
:1001F000D7C000000C9461170C941A183F132D13EC
:1002000030133313361339133C1308000000BE9229
:100210002449123EABAAAA2ABECDCCCC4C3E00004B
:100220000080BEABAAAAAA3E00000000BF000000EA
:10023000803F0000000000084178D3BB4387D11302
:100240003D190E3CC3BD4282AD2B3E68EC8276BEAA
:10025000D98FE1A93E4C80EFFFBE01C4FF7F3F0074
:10026000000000006E616E00696E660000407A104A
:10027000F35A00A0724E18090010A5D4E80000E857
:100280007648170000E40B54020000CA9A3B0000B5
:1002900000E1F505000080969800000040420F0044
:1002A0000000A08601000000102700000000E80305
:1002B000000000006400000000000A0000000000D0
:1002C0000100000000002C76D888DC674F0823DF8F
:1002D000C1DFAE59E1B1B796E5E3E453C63AE65162
:1002E000997696E8E6C28426EB898C9B62ED407C89
:1002F0006FFCEFBC9C9F40F2BAA56FA5F490055A25
:100300002AF75C936B6CF9676DC11BFCE0E40D4749
:10031000FEF520E6B500D0ED902E0300943577056C
:100320000080841E080000204E0A000000C80C3324
:100330003333330F986E12831141EF8D2114893BB3
:10034000E65516CFFEE6DB18D1844B381BF77C1D33
:10035000901DA4BBE424203284725E228100C9F186
:1003600024ECA1E53D2711241FBECFEFCDBFDFE276
:10037000DEBF10E2A0E0B0E2E6E8F8E402C00590DB
:100380000D92A03CB107D9F722E2A0ECB0E201C087
:100390001D92AB36B207E1F70E94361B0C94412444
:1003A0002FCEDC0113969C911397E92FE695E695E5
:1003B000E69520E2E29FF0011124FA5F40859770F4
:1003C00021E030E0B90102C0660F771F9A95E2F78D
:1003D000CB018423C9F481E090E013963C911397FC
:1003E000E32FE695E695E69570E2E79FF00111248C
:1003F000FA5F40853770BC0102C0660F771F3A95DF
:10040000E2F79B01242349F308950F931F93CF93A1
:10041000DF93FC0180E090E0019680359105E1F7E3
:100420008181A82FA695A695A69500E2A09FD00150
:100430001124BA5F282F277081E090E002C0880F56
:10044000991F2A95E2F715968C9380E090E001962B
:1004500080359105E1F78181A82FA695A695A695EF
:1004600010E2A19FD0011124BA5F282F277081E0EC
:1004700090E002C0880F991F2A95E2F716968C9398
:1004800080E090E0019680359105E1F78181A82F09
:10049000A695A695A69530E2A39FD0011124BA5F38
:1004A000282F277081E090E002C0880F991F2A95BD
:1004B000E2F715968C9380E090E0019680359105E7
:1004C000E1F78181A82FA695A695A69590E2A99F10
:1004D000D0011124BA5F282F277081E090E0EC0151
:1004E00002C0CC0FDD1F2A95E2F71696CC9320812F
:1004F000A22FA695A695A695D0E2AD9FD001112476
:10050000BA5F27708C0102C0000F111F2A95E2F715
:1005100016960C932281A22FA695A695A69510E279
:10052000A19FD0011124BA5F277002C0880F991FC4
:100530002A95E2F716968C9320E030E02F5F3F4F2C
:1005400020353105D9F78181A82FA695A695A695C6
:1005500030E2A39FD0011124BA5F282F277081E0D9
:1005600090E002C0880F991F2A95E2F715968C93A8
:1005700020E030E02F5F3F4F20353105D9F78181F2
:10058000A82FA695A695A69590E2A99FD001112423
:10059000BA5F282F277081E090E002C0880F991F72
:1005A0002A95E2F716968C93C8E070E881E090E017
:1005B000272F2623A1F02281A22FA695A695A695E6
:1005C000D0E2AD9FD0011124BA5F27708C0102C028
:1005D000000F111F2A95E2F715960C9313C0228184
:1005E000A22FA695A695A69510E2A19FD001112451
:1005F000BA5F27708C0102C0000F111F2A95E2F725
:1006000016960C9320E030E02F5F3F4F20353105E8
:10061000D9F72181A22FA695A695A69510E2A19FB4
:10062000D0011124BA5F27708C0102C0000F111F86
:100630002A95E2F715960C9320E030E02F5F3F4FAC
:1006400020353105D9F72181A22FA695A695A6952B
:1006500010E2A19FD0011124BA5F27708C0102C063
:10066000000F111F2A95E2F716960C937695C1504C
:1006700009F09ECFC0E160E070E881E090E09B016E
:1006800024233523232BA1F02281A22FA695A69502
:10069000A69510E2A19FD0011124BA5F27708C01AA
:1006A00002C0000F111F2A95E2F715960C9313C094
:1006B0002281A22FA695A695A69510E2A19FD00112
:1006C0001124BA5F27708C0102C0000F111F2A95F8
:1006D000E2F716960C9320E030E02F5F3F4F203575
:1006E0003105D9F72181A22FA695A695A69510E2EE
:1006F000A19FD0011124BA5F27708C0102C0000FA6
:10070000111F2A95E2F715960C9320E030E02F5F39
:100710003F4F20353105D9F72181A22FA695A69507
:10072000A69510E2A19FD0011124BA5F27708C0119
:1007300002C0000F111F2A95E2F716960C937695CA
:100740006795C15009F09BCF8081A82FA695A695EB
:10075000A69510E2A19FD0011124BA5F282F27701F
:1007600081E090E002C0880F991F2A95E2F7159664
:100770008C9320E030E02F5F3F4F20353105D9F7D3
:100780008181A82FA695A695A69530E2A39FD001BA
:100790001124BA5F282F277081E090E002C0880FF3
:1007A000991F2A95E2F715968C9320E030E02F5F91
:1007B0003F4F20353105D9F78181E82FE695E69541
:1007C000E69590E2E99FF0011124FA5F282F277047
:1007D00081E090E002C0880F991F2A95E2F7868396
:1007E000DF91CF911F910F9108952F923F924F92D9
:1007F0005F926F927F928F929F92AF92BF92CF92B1
:10080000DF92EF92FF920F931F93CF93DF93CDB7B9
:10081000DEB76097CDBFDEBF4C01C22ED32EE42ED3
:10082000F52E662E772E202F312F4C2D5D2D6E2D1F
:100830007F2D862D972D0E94471C0E94D61C28E7ED
:100840003AE944E550E40E94211D9B01AC016DE3AF
:1008500072E581E092E40E94B61B0E941B1C862F69
:1008600090E08D879E8781E090E09C0102C0220F7E
:10087000331F6A95E2F7A02EB12E062D172D30E01A
:1008800040E050E060E070E080E090E00E946A218B
:10089000622E3B834C835D83688B7F878E839F832F
:1008A000211530424C4B5E4B610571058105910568
:1008B00009F030F4F2E0FC876894772471F805C001
:1008C00083E08C876894772472F8272D30E040E02D
:1008D00050E060E070E080E090E003E00E944A2297
:1008E000A72CB12CC12CD12CE12CF12C00E010E074
:1008F0000E949622A22EB32EC42ED52EE62EF72EBF
:10090000E82F192F03E00E944A220E2F0E94962200
:1009100003E00E944A22A72CB12CC12CD12CE12C3F
:10092000F12C00E010E00E94962202E00E944A2290
:1009300000E00E94962201E00E944A2200E00E940C
:100940009622222E332E442E552EB62FA72FF82F67
:10095000E92F06E00E944A22A22EB32EC42ED52EE5
:10096000E62EF72E082F192F222D332D442D552D2D
:100970006B2F7A2F8F2F9E2F0E94812207E00E94DB
:100980004A22688779878A879B87A22EB32EC42E36
:10099000D52EE62EF72E082F192F262D3B814C81C0
:1009A0005D8168897F858E819F810E94BD21298319
:1009B0003A83262D3B814C815D8168897F858E81BC
:1009C0009F810E94BB2108E10E944A220A850E9461
:1009D000BD21022F132F242F352FC12ED22EE32E0F
:1009E000FF24112792E0791621F0E4E07E1207C07F
:1009F00003C07724739403C06894772471F8FC854E
:100A00004F2F50E0486D5F6F60E0C401FEDC49810C
:100A10005A815695542F4427579547958D859E8525
:100A200082959295907F9827807F9827482B592B05
:100A3000872D90E0880F991F880F991F482B592BFD
:100A40006CE0C401E2DCA6016DE0C401DEDC40E044
:100A5000502F6EE0C401D9DC48E252EA69E0C401DB
:100A6000D4DC6096CDBFDEBFDF91CF911F910F9197
:100A7000FF90EF90DF90CF90BF90AF909F908F90BE
:100A80007F906F905F904F903F902F90089594E0EB
:100A9000E0E0F6E0958348E090E8A0E4B6E060E1AD
:100AA00054E0292F282321F015966C93159703C045
:100AB00016966C93169720E030E02F5F3F4F20355D
:100AC0003105D9F7568320E030E02F5F3F4F2035C6
:100AD0003105D9F755839695415019F708958F92AE
:100AE0009F92AF92BF92CF92DF92EF92FF920F93BD
:100AF0001F93CF93DF9324E0E0E0F6E0258320E02E
:100B000030E0812C912C54016894A7F8C0E4D6E021
:100B100000E114E075016401C622D722E822F9221F
:100B2000CD28CE28CF2811F00D8301C00E8340E0E0
:100B300050E04F5F5F4F40355105D9F7168340E0D5
:100B400050E04F5F5F4F40355105D9F71583B6949C
:100B5000A794979487942F5F3F4F28313105D1F6A2
:100B6000DF91CF911F910F91FF90EF90DF90CF9089
:100B7000BF90AF909F908F900895CF92DF92EF92A9
:100B8000FF926A017B01880F880F880F80DFC70101
:100B9000B601A5DFFF90EF90DF90CF900895CF9240
:100BA000DF92EF92FF92CF93DF93E0E0F6E0808553
:100BB00081FF03C0808581FDFDCF88E568DF80E18E
:100BC000E0E4F6E08583C8E1C12CD12C760168947D
:100BD000E7F860E070E0CB01E0E0F6E0D4E020E090
:100BE00030E02F5F3F4F20353105D9F7D68320E025
:100BF00030E02F5F3F4F20353105D9F7208521FFA9
:100C000004C06C297D298E299F29D583F694E79409
:100C1000D794C794C15019F7DF91CF91FF90EF900F
:100C2000DF90CF900895CF93C5E08FEF30DFC150B4
:100C3000E1F7CF91089508950895089508951F92BA
:100C40000F920FB60F9211242F933F934F935F9300
:100C50006F937F938F939F93AF93BF93EF93FF9384
:100C600081E0E0E2F6E084870E94A415FF91EF9115
:100C7000BF91AF919F918F917F916F915F914F91B4
:100C80003F912F910F900FBE0F901F9018950895D0
:100C90008091C0208F5F883218F48093C02008951F
:100CA0001092C0200895109226211092272186E2EA
:100CB00091E292C60895FC01A181B0E0BA2FAA2763
:100CC0008281A82BA436B10518F584E690E08A1B32
:100CD0009B0B8830910510F087E090E0382F882337
:100CE00069F0AE53BF4D87E291E2FC012D91219353
:100CF0002E2F281B2317D0F3383018F487E0831BDE
:100D000001C080E08295880F807E8093262103C0F9
:100D100086E08093262186E291E25EC60895E6E2AF
:100D2000F1E28EE291E21192E817F907E1F70895F6
:100D3000DF92EF92FF920F931F93CF93DF93FC010B
:100D4000208130E040E050E060E070E080E090E042
:100D500000E20E944A22D22EE32EF42E152FD62F27
:100D6000C72FB82FA92F218130E040E050E060E08C
:100D700070E080E090E008E10E944A22D22AE32A53
:100D8000F42A152BD62BC72BB82BA92B8481D82A54
:100D9000228130E040E050E060E070E080E090E0F0
:100DA00000E10E944A22D22AE32AF42A152BD62BEC
:100DB000C72BB82BA92B238130E040E050E060E046
:100DC00070E080E090E008E00E944A222D293E2950
:100DD0004F29512B6D2B7C2B8B2B9A2BDF91CF9195
:100DE0001F910F91FF90EF90DF900895DF92EF92A7
:100DF000FF920F931F93CF93DF93FC01A02FD22E6E
:100E0000E32EF42ED52FC62FB72F202F312F4D2DA7
:100E10005E2D6F2D7D2F8C2F9B2F00E20E9465226F
:100E200020832A2F312F4D2D5E2D6F2D7D2F8C2F5E
:100E30009B2F08E10E94652221832A2F312F4D2DFF
:100E40005E2D6F2D7D2F8C2F9B2F00E10E94652240
:100E500022832A2F312F4D2D5E2D6F2D7D2F8C2F2C
:100E60009B2F08E00E9465222383A483DF91CF910A
:100E70001F910F91FF90EF90DF9008952F923F9276
:100E80004F925F926F927F928F929F92AF92BF929A
:100E9000CF92DF92EF92FF920F931F93CF93DF9346
:100EA000CDB7DEB76D97CDBFDEBF6C0184E6E2EC57
:100EB000F0E2DF011D928A95E9F7F60180818F70DB
:100EC000898B80914922811107C083E0809327217B
:100ED00086E291E281D5C8C389898550853050F07A
:100EE00081E080932621F989F093272186E291E21F
:100EF00073D5BAC3C60101961BDF022F132FF42E40
:100F0000652E762E872E982EB92FF6018681E82F32
:100F1000F0E03E2F2227F6018781F901E82B309778
:100F200069F02F01F1E14F16F7E25F0650F00F2E46
:100F3000F0E14F2EF7E25F2EF02D03C044244394DE
:100F4000512C202F312F4F2D562D672D782D892D87
:100F50009B2FAFEF0E948A222F3F3B4B404A5546C2
:100F60006140710581059105F9F0F0F0202F312FD6
:100F70004F2D562D672D782D892D9B2FA0E00E9497
:100F80009F2211F484E001C085E0809326212F2D5B
:100F9000362D472D582D692D7B2F87E291E226DFD4
:100FA00086E291E219D560C3E989E630A1F440E810
:100FB00056E081E0FA01868382E0868320E636E00F
:100FC00088E0F9018583FA01858384E0F90186834D
:100FD000FA0186835BC0F989F730A1F440E856E056
:100FE00081E0FA01858382E0858320E636E088E0AF
:100FF000F9018683FA01858384E0F9018583FA018A
:10100000868344C0F989F830A1F440E856E081E0D5
:10101000FA01858382E0858320E636E088E0F901E5
:101020008683FA01868384E0F9018583FA0185834A
:101030002DC0F989F930A1F440E856E081E0FA01C9
:10104000868382E0868320E636E088E0F9018583A6
:10105000FA01868384E0F9018683FA01858316C04C
:10106000F989F53099F440E856E081E0FA01868389
:1010700082E0868320E636E088E0F9018583FA0184
:10108000868384E0F9018583FA018683202F312F3E
:101090004F2D562D672D782D892D9B2F2115FBEB7C
:1010A0003F07FEEE4F07F0EA5F0761057105810516
:1010B000910509F0E0F4205438464F41524A6F4FF1
:1010C0007F4F8F4F9F4F022F132F242F352F462FE7
:1010D000572F682F792F81E692E287DB82E0E0E6E6
:1010E000F6E0858380E8E0E4F6E0868323C0202FE5
:1010F000312F4F2D562D672D782D892D9B2F205C5C
:101100003749404E5D456109710981099109022FF6
:10111000132F242F352F462F572F682F792F81E635
:1011200092E263DB82E0E0E6F6E0868380E8E0E4DA
:10113000F6E0858381E0E0E4F6E0868381E692E2F2
:1011400030D9E0E6F6E084E0858388E0858327DD1A
:1011500041145104E1F1812C912C212C312C612C72
:10116000712CD12CC12CA12CB12C19DD7B018C014F
:1011700020E030E0A901FA820B831C832D833E839B
:101180004F8358872D2D3C2D422D532D662D772DC5
:101190008A2D9B2DAE2CBF2CC02ED12EE12CF12CF4
:1011A00000E010E00E948122D22EC32E242E352E84
:1011B000662E772EA82EB92E0FEF801A900A84146F
:1011C000950499F629833A8B8C8B9B8B08C01982E6
:1011D0001A8A212C312C612C712C1C8A1B8A9201B9
:1011E00040E050E060E070E0CB0149863A874B87F1
:1011F0005C876D877E878F87988BA42CB32EC12C3C
:10120000D12CE12CF12C00E010E029813A89422D0B
:10121000532D662D772D8C899B890E94BD212C8BA7
:101220003D8B4E8B5F8B688F798F8A8F9B8F39892F
:10123000363039F4E0E6F6E088E0858384E08683A2
:1012400027C04989473039F4E0E6F6E088E0868334
:1012500084E085831DC05989583039F4E0E6F6E012
:1012600088E0868384E0858313C06989693039F416
:10127000E0E6F6E088E0858384E0868309C079892A
:10128000753031F4E0E6F6E088E0858384E085831C
:1012900086DC4114510409F444C000E010E0212C24
:1012A000312C612C712C812C912C49825A820C8F0B
:1012B0001D8F10E0F22CE32CD62CC72CB82CA92CB7
:1012C0006EDC1B012C01212F302F4F2D5E2D6D2D3B
:1012D0007C2D8B2D9A2DA22CB32CC42CD52CE12C3B
:1012E000F12C00E010E00E948122122F032FF42E37
:1012F000E52ED62EC72EB82EA92E8C8D9D8D01964B
:101300008C8F9D8FA981BA818A179B07C9F62D0101
:101310001A8B0B8B2F2C3E2C6D2C7C2C8B2C9A2C0F
:1013200008C01A8A1B8A212C312C612C712C812C2B
:10133000912CA984BA84CB84DC84ED84FE840F854F
:1013400018892A893B89422D532D662D772D882DAA
:10135000992D0E94BD21A22F732E642EB52F362EFB
:10136000E72F882E992E20E030E040E850E060E042
:1013700070E080E090E0AC88BD88CE88DF88E88CA3
:10138000F98C0A8D1B8D0E949622AA2EB72CC62C92
:10139000DB2EE32CFE2E082D192D0E948122E22F38
:1013A000F32E142FD52EE62EB72FA82FF92F00E1FC
:1013B0000E94652220932A212E2F3F2D412F5D2D43
:1013C0006E2D7B2F8A2F9F2F08E00E94652220938D
:1013D0002B21E0932C2181E0E0E4F6E08583E0E638
:1013E000F6E084E0858388E08583D9DB41145104ED
:1013F00009F445C000E010E0312C212C612C712C47
:10140000812C912C49825A820C8F1D8F132D022D15
:10141000F62CE72CD82CC92CB12CA12CC0DB1B013D
:101420002C01212F302F4F2D5E2D6D2D7C2D8B2DDE
:101430009A2DA22CB32CC42CD52CE12CF12C00E03D
:1014400010E00E948122122F032FF42EE52ED62EBB
:10145000C72EB82EA92EEC8DFD8D3196EC8FFD8F09
:1014600029813A81E217F307C9F62901312E202E8E
:10147000642E752E862E972E8A8B9B8B08C0312C5E
:10148000212C612C712C812C912C1A8A1B8AA98405
:10149000BA84CB84DC84ED84FE840F851889232DE7
:1014A000322D462D572D682D792D8A899B890E94D2
:1014B000BD212A8B3B8B4C8B5D8B6E8B7F8B888FFA
:1014C000998F3989363039F4E0E6F6E088E0858393
:1014D00084E0868327C04989473039F4E0E6F6E0A6
:1014E00088E0868384E085831DC05989583039F4AB
:1014F000E0E6F6E088E0868384E0858313C06989AE
:10150000693039F4E0E6F6E088E0858384E086839C
:1015100009C07989753031F4E0E6F6E088E085832A
:1015200084E085833CDB41145104E1F1212C312C12
:10153000612C712C812C912CA12CD12CC12CB12C83
:101540002EDB7B018C0120E030E0A901FA820B83C5
:101550001C832D833E834F8358872A2D3D2D4C2D90
:101560005B2D662D772D882D992DAE2CBF2CC02E8E
:10157000D12EE12CF12C00E010E00E948122A22E5D
:10158000D32EC42EB52E662E772E882E992E0FEFD1
:10159000201A300A2414350499F62B8F3A8F498388
:1015A000598B08C01B8E1A8E1982198A612C712CD6
:1015B000812C912CA984BA84CB84DC84ED84FE84B4
:1015C0000F8518892B8D3A8D49815989662D772D84
:1015D000882D992D0E94BD21822E932EE42F752EE9
:1015E000B62FA72F682E592E20E030E040E850E0BB
:1015F00060E070E080E090E0AA88BB88CC88DD885D
:10160000EE88FF88088D198D0E949622A82CB92C8F
:10161000CE2ED72CEB2EFA2E062D152D0E948122D0
:10162000E22F932E142FE52EF62EB72FA82FF92F89
:1016300000E10E946522209327212E2F392D412F72
:101640005E2D6F2D7B2F8A2F9F2F08E00E94652231
:1016500020932821E09329218DE080932D21109261
:10166000262186E291E2B8D16D96CDBFDEBFDF9133
:10167000CF911F910F91FF90EF90DF90CF90BF908F
:10168000AF909F908F907F906F905F904F903F9022
:101690002F900895CF93DF93EC0141DB9881892F40
:1016A00082958F708F3019F4CE01E8DB40C08A300C
:1016B00021F51092262183E08093272181E08093F9
:1016C000282188E0809329218DE080932A2110929F
:1016D0002B2194E690932C2180932D2122EC30E253
:1016E00086E291E2F9014E2F421B4193E817F90778
:1016F000D1F786E291E270D11AC08B3019F4CE0195
:10170000DADA15C08D3019F4CE01CDDA10C095307B
:1017100021F481E08093C1200AC021E0209326219A
:10172000909327218093282186E291E255D1DF9181
:10173000CF910895CF93DF9300D000D0CDB7DEB71F
:101740008FEF80937000809371008093720080937C
:1017500073008093740080937500809376006CE131
:1017600070E082E07AD68A836DE170E082E075D61F
:10177000898389819A81019621F480E493E28983A7
:101780009A8389819A818B839C83E0E6F0E082834F
:101790008C8183838FB7F894E0E5F0E090819260CC
:1017A00090838FBF818181FFFDCF8FB7F894A0E533
:1017B000B0E016969C911697997F16969C93169773
:1017C000E0E6F0E090E895839BEB968316969C917B
:1017D0001697946016969C939081916090838FBF2A
:1017E00061E080E490E033D68FB7F894E0E5F0E074
:1017F00090819E7F90838FBF2496CDBFDEBFDF9107
:10180000CF9108959FB7F894E82FF0E0E059FF4F8B
:1018100060958081682360839FBF08959FB7F89487
:10182000E82FF0E0E059FF4F8081682B60839FBF75
:101830000895863011F468E101C060E0E0E5F0E071
:10184000818181FD24C08FB7F8949081926090834C
:101850008FBF818181FFFDCF8FB7F894A0E5B0E005
:1018600016969C911697997F16969C931697E0E68C
:10187000F0E090E895839BEB968316969C911697E3
:10188000946016969C939081916090838FBF636063
:1018900084E490E0DCD560E480E0B4CF089560E4B7
:1018A00080E0BCDF60E084E490E0D1C50895CF9390
:1018B000DF93FC01709620E030E0C62FD0E0DE011F
:1018C000022E02C0B595A7950A94E2F7A0FD5083B9
:1018D0002F5F3F4F31962830310589F740FF0AC00E
:1018E00041FF03C0FC01658302C0FC016683FC016B
:1018F000618302C0FC016283DF91CF91089580E093
:1019000008953091532220915422822F90E0039722
:10191000E1F431111CC08091572290915822049714
:10192000C1F48EE291E28093592290935A2281EE83
:101930009CE080935D2290935E2284E090E080930F
:101940005B2290935C2281E0089580E0089580E01E
:10195000089580E0089581E08093422108950F93D7
:101960001F930AEC1CE028E030E042E351E260E023
:1019700082E00E9462161F910F91089510924621F5
:101980001092442181E080934221E9DF81110C947F
:10199000AE1B0895811107C06830710519F482E308
:1019A00091E278DEDCCF08950C94B21B089521E813
:1019B0003CE046E050E264E471E286E491E23DC03E
:1019C000089580915B2290915C22049721F48EE22D
:1019D00091E20C94B51B08950F931F93CF93209120
:1019E0004221222329F1CFB7F89428E0EAE3F1E27B
:1019F000DF011D922A95E9F728E0FC01AAE3B1E294
:101A000001900D922A95E1F70BEA1CE028E030E006
:101A10004AE351E260E081E80E94621691E0892782
:101A200080934221CFBF9091422181E0892701C05C
:101A300080E0CF911F910F910895CF93DF93EA013A
:101A40004091512244230CF067C0407609F040C019
:101A5000509152225630E1F573D1FC01228521329A
:101A600099F5209154222132B9F49C01275F3F4F10
:101A70002093592230935A22818520915722309108
:101A8000582290E02817390708F4C90180935B2297
:101A900090935C2281E069C0FC013785231316C056
:101AA000C0935922D0935A2220893189809157229C
:101AB000909158222817390708F4C90180935B22B6
:101AC00090935C2281E051C080E04FC080E04DC027
:101AD000403209F041C040915222423039F0433047
:101AE00081F04130D9F5F90109953FC08093592221
:101AF00090935A2281E090E080935B2290935C2245
:101B000034C06093592270935A2281E090E0809310
:101B10005B2290935C2229C04076403209F54091C7
:101B200052224A3039F04B3059F04930D9F4F9019A
:101B300009951BC020915422FC01208381E015C02F
:101B40008091572290915822892B71F480915322D1
:101B5000FB01808381E009C080E007C080E005C010
:101B600080E003C080E001C080E0DF91CF91089564
:101B7000E0914C21F0914D210190F081E02D2281E6
:101B800033812E0F3F1FFC014081E40FF11DE2174E
:101B9000F307A0F481818430A1F0861306C014C03D
:101BA00081818430A1F08617A9F08081E80FF11DB2
:101BB000E217F307A8F380E090E0089580E090E05A
:101BC000089580E090E008958E2F9F2F089580E083
:101BD00090E008958E2F9F2F0895809153228F7744
:101BE000A8C7089590914E21992381F1E0914C214D
:101BF000F0914D210190F081E02D9481891740F5FD
:101C0000E0934A21F0934B21228133812E0F3F1F15
:101C1000E217F307F8F49181943061F492819813FC
:101C200009C09381961306C0E0934A21F0934B219B
:101C300081E008959081E90FF11DE217F30758F351
:101C4000E0934A21F0934B2180E0089580E00895CD
:101C500080E0089580E00895FF920F931F93CF9343
:101C6000DF93C82F60E0BEDFF82E882381F1A091BA
:101C70004C21B0914D21EC2FF0E0EE0FFF1F12969A
:101C80002D913C911397E20FF31F00811181D80130
:101C90001696ED91FC9117970995682F8C2FA2DF6E
:101CA000F82E8823A1F0C0914A21D0914B2165E004
:101CB000CE015EDFEC01009721F08A810E9423179C
:101CC000F6CFD8011296ED91FC91139709958F2DBF
:101CD000DF91CF911F910F91FF9008951F93CF93A4
:101CE000DF93182F7FDF882339F1C0914A21D091EB
:101CF0004B2165E0CE013CDFEC01009741F04C81C7
:101D00005D816B818A8138D78111F3CF15C0A09195
:101D10004C21B0914D21812F90E0880F991F129690
:101D2000ED91FC911397E80FF91F0190F081E02DE0
:101D30000190F081E02D0995DF91CF911F910895D9
:101D400080914A2190914B2108957CC60895CF93AC
:101D500080914E218823C1F0E0914C21F0914D21DA
:101D60000190F081E02D8481882371F0C0E08C2FF8
:101D700073DFCF5FE0914C21F0914D210190F08114
:101D8000E02D8481C81798F310924E218091522142
:101D900081FD0E94AB1B81E090E0809352219093E3
:101DA0005321CF9108950CD6D2CF0895CF9380912F
:101DB0004E21882341F1E0914C21F0914D21A081E9
:101DC000B18114968C918823F1F0C0E08C2F90E0C3
:101DD000880F991F0280F381E02DE80FF91F019011
:101DE000F081E02D0084F185E02D309709F0099510
:101DF000CF5FE0914C21F0914D21A081B1811496EB
:101E00008C91C81718F3CF910895EF92FF920F931A
:101E10001F93CF93DF9310925B2210925C2210925B
:101E20005D2210925E2210925F2210926022209119
:101E3000512222230CF0A8C280915722909158225F
:101E4000009709F0A6C29CC22F7109F0B2C0309170
:101E50005222363081F0383009F4A0C03111A9C0C7
:101E6000029739F462E070E082E591E27CD601E00D
:101E70000AC200E008C22091532230915422832FDD
:101E800099278230910599F01CF4019739F07CC0B4
:101E900083309105D9F10F9759F176C08091452093
:101EA00090914620DC016C9170E05DD65CC0E091C1
:101EB0004520F09146208189281708F067C0C901A4
:101EC0009927880F991F880F991FE0914720F0915B
:101ED0004820E80FF91F80819181FC0162817381A4
:101EE00042D6E0915922F0915A2282E081833BC090
:101EF0008091492090914A20009709F449C0DC0163
:101F000012966D917C9113972ED62DC033272130D8
:101F1000310581F048F02230310509F43FC2233009
:101F2000310509F43FC236C064E070E084EB90E212
:101F30001AD619C08CEA90E226E0382FA0E9B0E268
:101F4000E82FF92F819190E08D939D938E2F831B25
:101F50008217C0F3220F62E0620F60938E2070E060
:101F60008EE890E200D680915722909158222091DD
:101F70005B2230915C228217930770F480935B227E
:101F800090935C2201E07FC100E07DC100E07BC155
:101F900000E079C100E077C101E075C1019739F433
:101FA00061E070E08EE491E2DED501E06CC100E01A
:101FB0006AC1213009F03FC0309152223A30D9F540
:101FC000019799F580914E21882389F1C09155227E
:101FD000D0915622E0904C21F0904D21D701ED9107
:101FE000FC918481C81728F560E08C2FFBDD082F59
:101FF000882309F448C1CE019927880F991FD7017A
:102000001296ED91FC911397E80FF91F0190F08162
:10201000E02D0680F781E02D09958093502161E045
:1020200070E080E591E29FD52EC100E02CC100E078
:102030002AC100E028C1223009F027C12091522294
:1020400021111EC1029779F480915522F6D590E0B6
:10205000809348219093492162E070E088E491E206
:1020600082D501E010C100E00EC12F7109F0AFC0B0
:10207000809152228330B9F118F48130B9F0A7C0B1
:10208000853021F0893009F44BC0A1C080915722DE
:1020900090915822892B41F48DEE9DE080935D2232
:1020A00090935E2201E0EFC000E0EDC080915722E6
:1020B00090915822892B99F4809153229091542227
:1020C000019779F480915221909153218D7F8093D3
:1020D0005221909353210E94AB1B01E0D4C000E039
:1020E000D2C000E0D0C08091572290915822892B15
:1020F00099F48091532290915422019779F4809120
:1021000052219091532182608093522190935321C8
:102110000E94A81B01E0B7C000E0B5C000E0B3C05A
:102120008091572290915822892B09F046C004D5FE
:10213000882309F444C0209153223091542233273C
:10214000E0914520F0914620818990E08217930725
:10215000C0F1FDDD809153229091542280934E2155
:10216000882389F199278150904C880F991F880FF7
:10217000991FE0914720F0914820E80FF91FE09364
:102180004C21F0934D210190F081E02D8481882332
:10219000E1F0C0E060E08C2FA1DD082F882309F476
:1021A00072C0CF5FE0914C21F0914D210190F08100
:1021B000E02D8481C81770F366C000E064C000E0C1
:1021C00062C000E060C001E05EC001E05CC02130A0
:1021D00009F5809152228B30E9F480915722909139
:1021E0005822892B99F480914E21882389F0C0913F
:1021F0005522D09153228C2F2FDD082F882309F4EC
:1022000042C06D2F8C2F6ADD082F3DC000E03BC01F
:1022100000E039C02230C9F580915222813019F096
:102220008330B1F02FC08091572290915822892B92
:1022300059F48091532290915422892B39F4809142
:10224000552216D5082F1FC000E01DC000E01BC09E
:102250008091572290915822892B71F480915322BA
:1022600090915422892B51F4C5E5D2E28881B2D5F0
:10227000888106D6082F07C000E005C000E003C033
:1022800000E001C000E0011191C0809151228F71E6
:102290008130C1F580914E218823A1F1C091552252
:1022A000D091562200914C2110914D21D801ED91F1
:1022B000FC918481C81730F560E08C2F93DC882373
:1022C00009F1CE019927880F991FD8011296ED9137
:1022D000FC911397E80FF91F00811181D801169620
:1022E000ED91FC9117970995682F8C2F7BDC882343
:1022F00049F0D8011496ED91FC9115970995082F96
:10230000811154C0809151228F718230D9F5809112
:102310004E21882389F1E0914C21F0914D21A0813B
:10232000B18114968C91882349F110E0212F30E07F
:10233000220F331F0280F381E02DE20FF31FC081D3
:10234000D181EE81FF810995682F812F4BDC082F09
:10235000882361F1EC81FD810995082F811126C048
:102360001F5FE0914C21F0914D21A081B181149625
:102370008C911817D8F21AC000E018C000E016C0FF
:1023800000E014C000E012C0822F807609F07DCFFB
:102390006CCE322F307609F078CF56CD29E082EA24
:1023A00090E2CBCD27E088EB90E2C7CD802FDF9184
:1023B000CF911F910F91FF90EF90089543E050E06F
:1023C00061E080E096E073DA43E050E062E080E0B4
:1023D00096E06DDA43E050E064E080E096E067DA92
:1023E00043E050E068E080E096E061DA43E050E0EE
:1023F00060E180E096E05BDA43E050E060E280E09C
:1024000096E055DA43E050E060E480E096E04FDA91
:1024100043E050E060E880E096E049DA40E058E1CF
:1024200061E080E296E043DA40E058E162E080E279
:1024300096E03DDA40E058E164E080E296E037DA89
:1024400040E058E168E080E296E031CA08951BBEA2
:10245000FC0128ED24BF608308954091CA01E62F56
:10246000F72F8093CA0184914093CA010895811186
:1024700022C0909148229923D9F090914C22911139
:1024800001C0FFCF9FB7F894ECE4F2E22081215025
:1024900020839FBF0DC090914C229F3F09F4FFCF36
:1024A0009FB7F894ECE4F2E220812F5F20839FBF76
:1024B00080934822089590914822992361F3F8CFA0
:1024C0000F93E8ECF4E080818F7D808380818F7DA5
:1024D0008083ECE1F2E202E0059310921E2210925A
:1024E0001F2200E2069300E40693E4E1F2E200E238
:1024F000069300E4069310925D2210925E221092E1
:102500005F221092602210925B2210925C22109245
:1025100005220F9108950F9385E080930522EDE148
:10252000F2E204E00593E5E1F2E204E005930F91A5
:1025300008950F9383E08093052210921E2210923B
:102540001F22ECE1F2E202E006930F910895E09180
:102550005D22F0915E22309709F0099508950F935E
:10256000CF93DF9380910522833019F4F0DFA8DF49
:1025700060C08091012290910222C0915B22D09193
:102580005C22C81BD90B71F52091032230910422E3
:10259000820F931F8093032290930422209157224D
:1025A000309158228217930721F08091542188237B
:1025B00041F084E080930522E4E1F2E202E0069338
:1025C00038C0E0915F22F0916022309799F0099530
:1025D000882381F01092012210920222C0915B2286
:1025E000D0915C22C830D10528F010925421C8E067
:1025F000D0E003C081E080935421C0931E22D09389
:102600001F22809101229091022220915922309123
:102610005A22280F391F2093202230932122C80FDD
:10262000D91FC0930122D0930222ECE1F2E202E032
:102630000693DF91CF910F910895FC0181818770FE
:1026400090E0FC013197E730F10520F4E250FF4FB4
:102650000C94642188E090E0089580E290E0089571
:1026600080E490E0089580E890E0089580E091E0B3
:10267000089580E092E008958FEF93E0089580E15F
:1026800090E00895282F2F7030E0220F331F9927F4
:1026900087FD90958827990F881F9927820F931F90
:1026A00002979C01220F331F220F331F220F331F6B
:1026B000820F931F8B529E4D08950F93CF9380915D
:1026C000CC0480FF62C081E08093CC04E4E1F2E2BC
:1026D00000E80693ECE1F2E200E806938093CA0476
:1026E000E4E1F2E200E1069380910522882329F0DB
:1026F0008350823008F42BDFE3DE80911622909124
:102700001722089709F043C088E0E9EFF1E2A1E55C
:10271000B2E201900D928A95E1F7E8ECF4E0808155
:10272000806280838081806280836FDBC82F81110B
:1027300003C0F1DEC1E02CC08091512288236CF4EB
:10274000109203221092042210920122109202226F
:1027500082E08093052203DF1BC020915722309135
:102760005822232B11F4E5DE13C01092032210929D
:102770000422109201221092022281E0809305220D
:10278000E4E1F2E202E0069303C0C0E001C0C1E070
:102790008C2FCF910F910895BF92CF92DF92EF923D
:1027A000FF920F931F93CF93DF93B82E6BDFEC0153
:1027B0001B2D111F1127111F8B2D8F70E82EF12C4F
:1027C000EE0CFF1CE10EF11CC701880F991F880F4A
:1027D000991F880F991F9C012C5E3D4D7901C901FD
:1027E0002CDF6C01112309F45BC0D70116962D91E3
:1027F0003C9117978D819E81280F391F2D833E8331
:102800008B819C8128173907C9F1FC01E21BF30B6E
:102810009F012115F4E03F0740F02FEF33E0C9019D
:10282000B6010E945021281B390B888181FF0AC004
:10283000C901B6010E94502141E0892B09F040E016
:10284000942F01C090E0888190FB81F98883D701A3
:1028500016961D921C92179712962D933C931397E0
:1028600029813A818D819E81820F931F14968D93C9
:102870009C931597F70102E0069398C0888181FF29
:1028800087C08D7F8883D70116961D921C9217975B
:1028900012961D921C921397F70102E0069386C0D0
:1028A000D70112960D911C911397888182FF15C054
:1028B000E981FA812D813E818B819C81B6010E9444
:1028C0005021B0E4BB9EB00111246B5E7E4DAC0183
:1028D000CF01820F931F0E949D232D813E81200FE7
:1028E000311F2D833E83EB81FC81E217F30710F447
:1028F000ED83FE83D70116968D919C9117978017D3
:10290000910709F045C08D819E81E817F90709F408
:102910003FC0E81BF90BE115B4E0FB0748F0EFEF0F
:10292000F3E0CF01B6010E945021E81BF90B06C06D
:10293000CF01B6010E945021E81BF90BD701129676
:102940001D921C921397EC15FD0578F48881846024
:102950008883B0E4BB9EC00111248B5E9E4DF701BD
:1029600084839583C682D7820FC029813A818D8165
:102970009E81820F931FD70114968D939C93159778
:102980001696ED93FC931797F70102E006930EC09D
:10299000888180FF0BC08E7F8883EF81F885309718
:1029A00029F06D817E814B2D80E00995DF91CF91DB
:1029B0001F910F91FF90EF90DF90CF90BF900895FF
:1029C000CF93CFB7F894E1ECF4E080818E7F8083E1
:1029D0001092C00410820E944F0C80E048DD80916C
:1029E0005022811101C0FFCF8FB7F894E0E5F2E2E9
:1029F0009081915090838FBFCFBFCF910895CF9397
:102A0000CFB7F89481E033DDEAECF4E080E4808332
:102A100080E28083E1ECF4E0808181608083A9EC36
:102A2000B4E08C9182608C93E8ECF4E08081806467
:102A300080838C9181608C93808180688083CFBFFC
:102A4000CF910895CF93DF93C0E6D0E0188280E362
:102A50000E94190CE0ECF4E080818064808381E0C6
:102A60008883CFB7F8941092152210921D221092ED
:102A7000252210922D221092352210923D22E5ED52
:102A8000F1E280818E7F8083EEEDF1E280818E7FA6
:102A90008083E7EEF1E280818E7F8083E0EFF1E2D8
:102AA00080818E7F80836AE170E082E0D6DC8F3F98
:102AB00019F08093FA0403C08FE18093FA046BE16C
:102AC00070E082E0CADC8F3F19F08093FB0403C002
:102AD0008FE18093FB04E0ECF4E0808182608083EE
:102AE00080818068808380818061808384E192E23C
:102AF000868397838081806280838FEF8093C50473
:102B0000E8ECF4E08081816080831092482280911B
:102B100050228F3F09F4FFCF8FB7F894E0E5F2E23F
:102B200090819F5F90838FBF6ADFCFBFDF91CF918E
:102B300008958093C30408958091C30408958091FB
:102B400044229091452208958091482281110AC023
:102B500081E08DDCE1ECF4E080818B7F80838081FB
:102B60008460808308958093592290935A226093C1
:102B70005B2270935C220895E82FEF70F0E0EE0F77
:102B8000FF1F992787FD90958827990F881F992700
:102B9000E80FF91FEE0FFF1FEE0FFF1FEE0FFF1FD5
:102BA000EC5EFD4D8181807C09F043C06370613033
:102BB00029F010F480E403C080E801C080EC4038C4
:102BC0005105E1F050F440325105A1F04034510577
:102BD00099F04031510561F419C0411592E059074F
:102BE00089F04F3F93E0590779F04115514041F08A
:102BF00020E00DC022E00BC023E009C024E007C0A4
:102C000025E005C026E003C027E001C021E01182D5
:102C100096E09083822B81838181807C803C21F4AB
:102C200081818770873039F081818062818381E082
:102C3000089580E0089581E00895E82FEF70F0E0B6
:102C4000EE0FFF1F992787FD90958827990F881F02
:102C50009927E80FF91FEE0FFF1FEE0FFF1FEE0F72
:102C6000FF1FEC5EFD4D818182FB882780F908956E
:102C7000E82FEF70F0E0EE0FFF1F282F332727FD1E
:102C800030952227330F221F3327E20FF31FEE0F59
:102C9000FF1FEE0FFF1FEE0FFF1FEC5EFD4D91813A
:102CA00092FF0EC091819B7F9183ECDCFC018081BF
:102CB00080FF06C08E7F80830780F085E02D099518
:102CC00081E008957F928F929F92AF92BF92CF92B0
:102CD000DF92EF92FF920F931F93CF93DF93982E83
:102CE000862E5A016901CEDC7C01792C771C772471
:102CF000771CC92DCF70D0E0CC0FDD1FC70DD11DC3
:102D0000CC0FDD1FCC0FDD1FCC0FDD1FCC5EDD4DEA
:102D10008981807C09F44CC08981807C803C19F0D9
:102D2000898182FD47C08FB7F894F701908190FFA9
:102D300003C08FBF712C3FC0F701908191609083D9
:102D40008FBFF701A182B282C382D482158216821C
:102D500007831087811006C091E0C114D10419F0D7
:102D600090E001C091E0F701808190FB81F98B7FB9
:102D70008083772019F01E821F8215C08981807C94
:102D8000803C69F4CE0159DCBC01C6010E9450218F
:102D9000892B29F0F70180818E7F80830CC01A82F5
:102DA0001B821E821F82892DF7DC7724739403C057
:102DB000712C01C0712C872DDF91CF911F910F9144
:102DC000FF90EF90DF90CF90BF90AF909F908F904B
:102DD0007F900895FF920F931F93CF93DF93182F47
:102DE000F82EFF1CFF24FF1CC82FCF70D0E0CC0FA3
:102DF000DD1FCF0DD11DCC0FDD1FCC0FDD1FCC0F84
:102E0000DD1FCC5EDD4D3EDCDC01FE0102E0059302
:102E10008C9180FF12C08E7F8C931796ED91FC9160
:102E20001897309751F0FF2019F06E817F8102C012
:102E30006A817B81412F81E00995DF91CF911F91BC
:102E40000F91FF900895CF93C82FC4DFEC2FEF7040
:102E5000F0E0EE0FFF1F8C2F992787FD90958827B4
:102E6000990F881F9927E80FF91FEE0FFF1FEE0F2C
:102E7000FF1FEE0FFF1FEC5EFD4D1182CF910895F5
:102E80000F93E82FEF70F0E0EE0FFF1F282F33278E
:102E900027FD30952227330F221F3327E20FF31F20
:102EA000EE0FFF1FEE0FFF1FEE0FFF1FEC5EFD4D3D
:102EB00091819460918301E006938CDF81E00F9112
:102EC00008951F920F920FB60F9211240F932F9314
:102ED0003F934F935F936F937F938F939F93AF93A2
:102EE000BF93EF93FF938091CB0488233CF480E859
:102EF0008093CA040E94D60E23D48AC08091CB044A
:102F000082FF20C084E08093CA0480911C2286FF47
:102F10007FC08091CC0481FD7BC0CFDB811178C064
:102F200080910522813011F404DB72C0843009F0F5
:102F30006FC0EDE1F2E204E00593E5E1F2E204E0C6
:102F4000059366C08091CB0481FF5DC082E08093D1
:102F5000CA048091142286FF5BC08091CC0481FD5D
:102F600057C0ABDB811154C080910522823041F4FF
:102F700084E080930522E4E1F2E202E0069348C097
:102F8000833009F045C0EDE1F2E204E00593E5E1AC
:102F9000F2E204E005933CC080E18093CA0481E042
:102FA00019DF81E817DF0E94A70E1092C304E5E144
:102FB000F2E2108296E09093142280E48083EDE1A7
:102FC000F2E2108290931C22808389EF91E2809339
:102FD00018229093192274DA1BC08091CB0486FFCB
:102FE00007C080E48093CA0480E041DAA3D310C014
:102FF0008091CB0485FF0CC080E28093CA0481E0FD
:1030000036DA9BD305C08091CB0484FFE6CFC4CFD2
:10301000FF91EF91BF91AF919F918F917F916F91B0
:103020005F914F913F912F910F910F900FBE0F9095
:103030001F9018951F920F920FB60F9211240F93A5
:103040001F932F933F934F935F936F937F938F9330
:103050009F93AF93BF93CF93DF93EF93FF938091B1
:10306000CC0481FD03C029DB8111B8C082E08093CC
:10307000CC048091C5048195880FE4E1F2E2E81B5D
:10308000F1092081318124513242369527953695B8
:10309000279536952795822F869520FF02C090E8C8
:1030A00001C090E0890FE82FEF70F0E0EE0FFF1FF6
:1030B000282F332727FD30952227330F221F332750
:1030C000E20FF31FEE0FFF1FEE0FFF1FEE0FFF1FAC
:1030D000EC5EFD4D908195FF81C000E20693811169
:1030E00078C080910522843019F431DAE9D976C0AC
:1030F000C0911622D091172280915B2290915C2280
:10310000009101221091022298012C0F3D1F82177D
:10311000930718F4EC01C01BD10B809159229091B8
:103120005A22AE0169EF71E2800F911F0E949D2328
:103130000C0F1D1F0093012210930222289769F49F
:103140008091032290910422800F911F2091572299
:10315000309158228217930788F000935B221093D6
:103160005C22E0915F22F0916022309729F009956E
:10317000811102C0D0D932C0DCD930C080915B222D
:1031800090915C2208171907F9F4E0915F22F09101
:103190006022309711F4BFD921C00995811102C076
:1031A000BAD91CC0209103223091042280910122BF
:1031B00090910222820F931F809303229093042206
:1031C0001092012210920222E4E1F2E202E0069360
:1031D00005C0803811F4C3D901C0DEDAFF91EF9148
:1031E000DF91CF91BF91AF919F918F917F916F911F
:1031F0005F914F913F912F911F910F910F900FBEB3
:103200000F901F9018958F929F92AF92BF92CF927E
:10321000DF92EF92FF920F931F93CF93DF9385E09E
:103220008093662247E652E287E0DA018C93A8E6B3
:10323000B2E28BE08C930F2EFAE6CF2EF2E2DF2E75
:10324000F02D06E0F6010083C0E0D6E06894FF248C
:10325000F5F8F98281E090E06894AA24A7F8A982A1
:10326000BB24B39420E236E06894EE24E3F8F9013D
:10327000E182BC0102C0660F771F0A95E2F78B015D
:1032800060E076E0FB010183FD82FA016081462F58
:10329000469546954695F0E24F9FA00111245A5F4E
:1032A0006770FC0102C0EE0FFF1F6A95E2F7BF01D5
:1032B000FA0166834C91A42FA695A695A695F0E2F7
:1032C000AF9FD0011124BA5F4770BC0102C0660FE6
:1032D000771F4A95E2F716966C93D6014C91E42F2E
:1032E000E695E695E695B0E2EB9FF0011124FA5FD2
:1032F0004770BC0102C0660F771F4A95E2F76583ED
:1033000049E04093612242E652E21CE1DA011C935B
:10331000A3E6B2E26DE16C9364E672E206E1FB01C2
:1033200000830F2EF5E68F2EF2E29F2EF02DF40192
:10333000E0826894FF24F1F8F901F182C12E012F97
:10334000069506950695F0E20F9F800111241A5FFD
:10335000EC2DE770CE2EFC0102C0EE0FFF1FCA94C9
:10336000E2F76F01F801C182CC900C2D069506950D
:103370000695F0E20F9F800111241A5FEC2DE77093
:10338000CE2EFC0102C0EE0FFF1FCA94E2F76F01C0
:10339000F801C182F401C0800C2D069506950695B2
:1033A000F0E20F9F800111241A5FEC2DE770CE2E02
:1033B000FC0102C0EE0FFF1FCA94E2F76F01F80193
:1033C000C182FB010081602F669566956695F0E2EB
:1033D0006F9FB00111247A5F0770FC0102C0EE0FED
:1033E000FF1F0A95E2F78F01FB010283F901F582C5
:1033F000FA014081242F269526952695F0E22F9FED
:10340000900111243A5F4770BC0102C0660F771F1C
:103410004A95E2F7F90166832C91A22FA695A6950D
:10342000A695F0E2AF9FD0011124BA5F2770AC01DE
:1034300002C0440F551F2A95E2F716964C93D4010B
:103440002C91E22FE695E695E695B0E2EB9FF00130
:103450001124FA5F277002C0880F991F2A95E2F79E
:10346000858380E896E0FC01B182F182E0E6F6E037
:10347000F18200E416E0D8011196AC9211971196F2
:10348000FC9211971196BC926894DD24D2F8DC016D
:103490001196DC9211971196EC921197E182D182EC
:1034A000B1821596DC921597D682E6821596EC923B
:1034B000B5824AED5FEF60E081E692E20E9405028C
:1034C00048E250E067E081E692E20E94050240E0B7
:1034D00052E96BE081E692E20E94050240E05FEF74
:1034E00068E081E692E20E94050240E252EA69E069
:1034F00081E692E20E94050244E15AE26CE081E634
:1035000092E20E94050249E85DE96DE081E692E2FF
:103510000E94050240E05BE36EE081E692E20E94D9
:10352000050244E15AE26FE081E692E20E94050260
:1035300049E85DE960E181E692E20E94050248ED1A
:1035400050E061E181E692E20E94050241E050E034
:1035500066E181E692E20E94050240E050E06DE102
:1035600081E692E20E94050240E050EC65E181E6CE
:1035700092E20E9405024AED5FEF60E086E692E289
:103580000E94050248E250E067E086E692E20E946F
:10359000050240E052E96BE086E692E20E940502F5
:1035A00040E05FEF68E086E692E20E94050240E2BA
:1035B00052EA69E086E692E20E94050244E15EE199
:1035C0006CE086E692E20E94050241EB53E96DE071
:1035D00086E692E20E94050240E05BE36EE086E64A
:1035E00092E20E94050241E050E066E186E692E246
:1035F0000E94050240E050E06DE186E692E20E9402
:10360000050240E050EC65E186E692E20E94050288
:1036100080E18983F8018183FA82D9828E830E94B6
:10362000130680E090E001968034FFE19F07D9F710
:1036300044E551E060E070E082E00E94BD0541E0B9
:1036400054E868E070E081E00E94BD0581E080936D
:103650004922DF91CF911F910F91FF90EF90DF9062
:10366000CF90BF90AF909F908F90089587E0E0EA51
:10367000F0E08283789410924B2210924C221092A8
:103680004D2210924E2210924F2281E080935022C0
:103690000E949A0B0E94DE110E941B060E941C06CB
:1036A000B2DD0E94A50E0F2EF0EAAF2EB12CF02D48
:1036B0000F2EFEEFCF2EF0E4DF2EF02D0BE412E202
:1036C0000F2EFCE4EF2EF2E2FF2EF02DC8E4D0E046
:1036D0008091C120882371F01092C120F8940E943B
:1036E000D30EF5016281606482EA90E00E942712A5
:1036F000F6010995F894F8018081811108C0D7017D
:10370000E0E0EF5F8D918823E1F3E11102C078944E
:10371000DFCF8881F0E0E150F04E817F9081892BEE
:1037200088838881816088837894889588818E7F5A
:103730008883CECF0C941C0608950C9447060895F8
:1037400080914A22882319F0FAD90C9448060895EA
:103750000C941D0608950C941E06089581E0809334
:103760004A22089510924A22089508955058BB277E
:10377000AA270ED0E1C0D2D030F0D7D020F031F45B
:103780009F3F11F41EF4C7C00EF4E095E7FBBDC0E7
:10379000E92FE3D080F3BA17620773078407950710
:1037A00018F071F49EF5FBC00EF4E0950B2EBA2FC5
:1037B000A02D0B01B90190010C01CA01A001112437
:1037C000FF27591B99F0593F50F4503E68F11A16E3
:1037D000F040A22F232F342F4427585FF3CF469574
:1037E00037952795A795F0405395C9F77EF41F1696
:1037F000BA0B620B730B840BBAF09150A1F0FF0F60
:10380000BB1F661F771F881FC2F70EC0BA0F621F4B
:10381000731F841F48F4879577956795B795F7953B
:103820009E3F08F0B3CF9395880F08F09927EE0FCD
:1038300097958795089599D088F09F5790F0B92F64
:103840009927B751A0F0D1F0660F771F881F991FF5
:103850001AF0BA95C9F712C0B13081F0A0D0B1E02A
:1038600008959DC0672F782F8827B85F39F0B93F3A
:10387000CCF3869577956795B395D9F73EF49095F7
:103880008095709561957F4F8F4F9F4F0895E89475
:10389000F92F96EBFF2381F0121613061406440B42
:1038A0009395F69587957795679557954040FF23B3
:1038B000B9F71BC099270895882351F49850D2F77F
:1038C000872B762F652F542F432F322F20E0B1F313
:1038D000121613061406440B88233AF09A95440FE7
:1038E000551F661F771F881FCAF755234AF4440FD8
:1038F000551F11F460FF04C06F5F7F4F8F4F9F4FC4
:10390000880F9695879597F9089597F99F6780E8AE
:1039100070E060E008959FEF80EC089500240A9421
:103920001616170618060906089500240A9412169A
:103930001306140605060895092E0394000C11F4CD
:10394000882352F0BB0F40F4BF2B11F460FF04C07A
:103950006F5F7F4F8F4F9F4F089557FD9058440FD3
:10396000551F59F05F3F71F04795880F97FB991FDE
:1039700061F09F3F79F0879508951216130614069B
:10398000551FF2CF4695F1DF08C016161706180628
:10399000991FF1CF86957105610508940895E89403
:1039A000BB2766277727CB0197F908950AD029ED21
:1039B0003BE54EED5EE345C00EF0E3C0ACCF68944E
:1039C000A4CFD3DFC8F39923D1F3C6F3DF93CF930A
:1039D0001F930F93FF92C92FDD2788232AF0219789
:1039E000660F771F881FDAF720E030E040E85FEBD2
:1039F0009FE3883920F0803E30F021968F77B7DE44
:103A0000EAE0F2E003C0B3DEE7E3F2E0C8D08B0106
:103A1000BE01EC01FB2E6F5771097595771F880B5E
:103A2000990B74D028E132E741E35FE316D0AF2D64
:103A30009801AE01FF900F911F91CF91DF91A8DE09
:103A40007BCF0BD079CF6ADF28F06FDF18F095239A
:103A500009F05BCF60CF1124A3CF7FDFA0F3959F48
:103A6000D1F3950F50E0551F629FF001729FBB2765
:103A7000F00DB11D639FAA27F00DB11DAA1F649F11
:103A80006627B00DA11D661F829F2227B00DA11DC4
:103A9000621F739FB00DA11D621F839FA00D611D4A
:103AA000221F749F3327A00D611D231F849F600D6B
:103AB000211D822F762F6A2F11249F5750408AF0A4
:103AC000E1F088234AF0EE0FFF1FBB1F661F771F30
:103AD000881F91505040A9F79E3F510570F015CFB7
:103AE0005FCF5F3FECF3983EDCF386957795679563
:103AF000B795F795E7959F5FC1F7FE2B880F911D4E
:103B00009695879597F90895E89409C097FB3EF438
:103B100090958095709561957F4F8F4F9F4F99231A
:103B2000A9F0F92F96E9BB279395F6958795779598
:103B30006795B795F111F8CFFAF4BB0F11F460FF58
:103B40001BC06F5F7F4F8F4F9F4F16C0882311F0B0
:103B500096E911C0772321F09EE8872F762F05C0C4
:103B6000662371F096E8862F70E060E02AF09A955F
:103B7000660F771F881FDAF7880F9695879597F954
:103B800008959F3F31F0915020F487957795679580
:103B9000B795880F911D9695879597F90895DF93AE
:103BA000CF931F930F93FF92EF92DF927B018C01D3
:103BB000689405C0DA2EEF0150DFFE01E894A5916C
:103BC0002591359145915591AEF3EF01E1DDFE016F
:103BD0009701A801DA9479F7DF90EF90FF900F91A9
:103BE0001F91CF91DF910895A3E1B0E0E9EFFDE1EE
:103BF00020C47C011B016A01FC01168217828381AB
:103C000081FF49C3BE016F5F7F4F4B01F701938175
:103C1000F10193FD859193FF81911F01882309F4A0
:103C200036C3853239F493FD859193FF81911F014D
:103C3000853231F4B70190E094D556016501E6CFA5
:103C400010E0512C20E02032A0F48B3269F030F4E7
:103C5000803259F0833269F420612CC08D3239F002
:103C6000803339F4216026C02260246023C028609C
:103C700021C027FD27C030ED380F3A3078F426FFF9
:103C800006C0FAE01F9F300D1124132F13C06AE005
:103C9000569E300D1124532E20620CC08E3221F41A
:103CA00026FDF5C2206406C08C3611F4206802C0DF
:103CB000883641F4F10193FD859193FF81911F01B5
:103CC0008111C1CF9BEB980F933018F42061805E77
:103CD00006C09BE9980F933008F09AC12F7E26FF0B
:103CE00016E02F73722E853621F4F22FF0647F2EAA
:103CF00008C0863621F4622F6068762E02C011114A
:103D0000115077FE07C01C3348F444244394410EFD
:103D100027E00BC0183030F4212F06C027E04CE319
:103D2000442E03C027E017E0412C560174E0A70E93
:103D3000B11CF6016081718182819381042DA401FF
:103D400019D46C01098100FF02C003FF06C071FC99
:103D500007C072FC08C0612C08C03DE2632E05C09C
:103D60002BE2622E02C090E2692E802F8C7081F1CE
:103D7000662011F084E001C083E0851510F0512C1D
:103D80000AC0581A73FC07C0B70180E290E0E9D47A
:103D90005A94D1F7F4CF662021F0B701862D90E038
:103DA000E0D403FD03C008E612E002C004E612E01E
:103DB000F72DF0717F2EF8018491882309F45EC2FB
:103DC00071108052B70190E0CCD40F5F1F4FF3CF3A
:103DD00077FE0FC04C0C04FF04C08A81813309F4C4
:103DE0004A94141474F5F8E0F41578F588E0482E38
:103DF0002CC076FC2AC0812F90E08C159D059CF08C
:103E00006CEFC6166FEFD60674F0772D7068772EBC
:103E10000AC0E2E0F0E0EC0FFD1FE10FF11D808130
:103E2000803319F411501111F4CF77FE0EC04424E1
:103E30004394410E812F90E0C816D9062CF41C192A
:103E400004C04424439401C010E077FE07C01C1452
:103E50001D043CF496012F5F3F4F05C025E030E084
:103E600002C021E030E0662011F02F5F3F4F1123A8
:103E700031F0412F50E04F5F5F4F240F351F452D2C
:103E800050E02417350714F4521A01C0512C872D25
:103E9000897041F4552031F0B70180E290E061D49F
:103EA0005A94F8CF662021F0B701862D90E059D4BE
:103EB00073FC08C0552031F0B70180E390E051D485
:103EC0005A94F8CF77FE5DC09C2D8D2DD7FE02C091
:103ED00090E080E0692E782E40E050E0C601841921
:103EE00091098C879D87960126193709280D391D60
:103EF000812F90E0EE27FF27E81BF90BEE87FF8765
:103F0000FFEF6F167F0661F4B7018EE290E02B8B16
:103F10003A8B488B598B25D4598948893A892B8902
:103F2000C614D70454F06C857D85661577052CF48E
:103F3000F901E40FF51F818101C080E371E0671A88
:103F400071084F5F5F4FEE85FF856E167F0664F048
:103F5000B70190E02B8B3A8B488B598B02D42B897D
:103F60003A8948895989CCCF6C147D0439F49A81F7
:103F7000963318F4953311F404FF81E3B70190E010
:103F800045C08A81813309F00F7EB70190E0E9D303
:103F9000111105C074FE16C085E490E015C0B7018C
:103FA0008EE290E0DED382E066246394680EF40132
:103FB000E80FF11D8081B70190E0D3D3115051F388
:103FC000862DF2CF85E690E0B701CBD3D7FC05C0B4
:103FD000C114D10439F404FF05C0D194C194D108AF
:103FE0008DE201C08BE2B70190E0BBD380E36AE0D1
:103FF000C616D1042CF08F5FFAE0CF1AD108F7CFA4
:10400000B70190E0AED3B701C601C096AAD336C1BE
:10401000833631F0833779F0833509F054C020C0FE
:10402000560172E0A70EB11CF6018081898301E080
:1040300010E0640113C05601F2E0AF0EB11CF601AE
:10404000C080D18026FF03C0612F70E002C06FEFF7
:104050007FEFC6012B8B7AD38C012B892F7714C06D
:104060005601F2E0AF0EB11CF601C080D18026FFF0
:1040700003C0612F70E002C06FEF7FEFC6012B8B92
:1040800051D38C012B892068722E23FD18C0852DF9
:1040900090E00817190798F4B70180E290E061D327
:1040A0005A94F5CFF60177FC859177FE81916F01E7
:1040B000B70190E056D351105A94015011090115DF
:1040C000110581F7DBC0843611F0893649F55601B8
:1040D00027FF09C0F4E0AF0EB11CF60160817181C9
:1040E000828193810AC0F2E0AF0EB11CF6016081BB
:1040F0007181882777FD8095982F022F0F7697FF83
:1041000008C090958095709561957F4F8F4F9F4F18
:1041100000682AE030E0A40156D3C82EC8183DC07C
:10412000022F853721F40F7E2AE030E01DC0097F81
:104130008F3691F018F4883559F0A9C0803719F0FE
:10414000883711F0A4C0006104FF09C0046007C0F3
:1041500024FF08C0066006C028E030E005C020E16A
:1041600030E002C020E132E0560107FF09C0F4E070
:10417000AF0EB11CF601608171818281938108C00C
:10418000F2E0AF0EB11CF6016081718180E090E039
:10419000A40119D3C82EC8180F7706FF0BC0202F13
:1041A0002E7FC11650F404FF0AC002FD08C0202F64
:1041B0002E7E05C0DC2C202F03C0DC2C01C0D12EAC
:1041C00024FF0DC0FE01EC0DF11D8081803311F440
:1041D000297E09C022FF06C0D394D39404C0822F45
:1041E000867809F0D39423FD12C020FF06C01C2D51
:1041F000D51418F4150D1D19D52CD51460F4B7017C
:1042000080E290E02B8BADD2D3942B89F6CFD514DE
:1042100010F45D1801C0512C24FF11C0B70180E3D8
:1042200090E02B8B9ED22B8922FF16C021FF03C06A
:1042300088E590E002C088E790E0B7010CC0822FCB
:10424000867851F021FD02C080E201C08BE227FD9B
:104250008DE2B70190E085D2C11630F4B70180E35A
:1042600090E07FD21150F8CFCA94F401EC0DF11D0B
:104270008081B70190E075D2C110F6CF552009F4C6
:10428000DDCCB70180E290E06CD25A94F7CFF70111
:104290008681978102C08FEF9FEF6396E2E1E2C0D3
:1042A000AA1BBB1B51E107C0AA1FBB1FA617B7075C
:1042B00010F0A61BB70B881F991F5A95A9F7809578
:1042C0009095BC01CD010895EE0FFF1F0590F4916C
:1042D000E02D0994DF93CF931F930F939A9DF02DB8
:1042E000219FF00D8B9DF00D8A9DE02DF10D039F18
:1042F000F00D029FE00DF11D4E9DE00DF11D5E9D44
:10430000F00D4F9DF00D7F936F93BF92AF925F932F
:104310004F93D50120D18B01AC01D7011CD1EB010A
:10432000E80FF91FD6011FD02F913F91D60113D16D
:10433000C60FD71FE81FF91FAF91BF9114D02F915F
:104340003F9109D1C60FD71FE81FF91FD60103D12E
:10435000E60FF71F9801BE01CF0111240F911F91A5
:10436000CF91DF910895F7D0460F571FC81FD91F6F
:1043700008F431960895689401C0E8948F929F9252
:10438000CF93DF9305D0DF91CF919F908F900895C9
:1043900088249924F401E401B0E49F93AA279A1594
:1043A0008B049C04ED05FE05CF05D007A10798F40A
:1043B000AD2FDC2FCF2FFE2FE92D982C892E982F93
:1043C000872F762F652F542F432F322F2227B85057
:1043D00031F7BF9127C01B2EBF91BB27220F331F80
:1043E000441F551F661F771F881F991F881C991C23
:1043F000EE1FFF1FCC1FDD1FAA1FBB1F8A149B04CB
:10440000EC05FD05CE05DF05A007B10748F08A18C9
:104410009B08EC09FD09CE09DF09A00BB10B216057
:104420001A94E1F62EF49401AF01BE01CD01000C07
:1044300008952F923F924F925F926F927F928F9248
:104440009F92AF92BF92CF92DF92EF92FF920F9323
:104450001F93CF93DF93CDB7DEB7CA1BDB0BCDBF66
:10446000DEBF09942A88398848885F846E847D84F9
:104470008C849B84AA84B984C884DF80EE80FD800C
:104480000C811B81AA81B981CE0FD11DCDBFDEBFAA
:10449000ED0108950F93083090F0982F872F762F15
:1044A000652F542F432F322F22270850F4CF220F8D
:1044B000331F441F551F661F771F881F991F0A95BA
:1044C000B2F70F91089597FB10F8169400080F9318
:1044D000083098F00850232F342F452F562F672F80
:1044E000782F892F902DF4CF059497958795779500
:1044F000679557954795379527950A95AAF70F9190
:1045000008952A0D3B1D4C1D5D1D6E1D7F1D801FD6
:10451000911F08950024A7FD00942A0F301D401D0F
:10452000501D601D701D801D901D08952A193B09A6
:104530004C095D096E097F09800B910B08950024D9
:10454000A7FD00942A173005400550056005700549
:10455000800590050895A29FB001B39FC001A39F5D
:10456000700D811D1124911DB29F700D811D1124AC
:10457000911D0895283008F027E03327DA01990FBC
:10458000311D87FD916000966105710539F4326037
:104590002E5F3D9330E32A95E1F708959F3F30F079
:1045A00080387105610509F03C5F3C5F3D939130B7
:1045B00008F08068911DDF93CF931F930F93FF92B4
:1045C000EF92192F987F9695E92F96959695E90F7A
:1045D000FF27EA53FD4F99273327EE24FF24A70135
:1045E000E70105900894079428F4360FE71EF81E9B
:1045F000491F511D660F771F881F991F0694A1F749
:104600000590079428F4E70EF81E491F561FC11D98
:10461000770F881F991F661F0694A1F705900794CE
:1046200028F4F80E491F561FC71FD11D880F991F68
:10463000661F771F0694A1F70590079420F4490F91
:10464000561FC71FD81F990F661F771F881F069414
:10465000A9F784911095177041F0D695C795579595
:104660004795F794E7941A95C1F7ECE6F2E0689461
:104670001590159135916591959105907FE273950F
:10468000E118F10A430B560BC90BD009C0F7E10C36
:10469000F11E431F561FC91FD01D7EF4703311F445
:1046A0008A95E6CFE894015030F0080F0AF400270D
:1046B000021708F4202F2395022F7A3328F079E38C
:1046C0007D932A95E9F710C07D932A9589F6069483
:1046D00097956795379517951794E118F10A430B4D
:1046E000560BC90BD00998F023957E9173957A33B8
:1046F00008F070E37C932013B8F77E9170617D938E
:1047000030F0839571E37D9370E32A95E1F71124EE
:10471000EF90FF900F911F91CF91DF91992787FD27
:1047200090950895FC010590615070400110D8F7F4
:10473000809590958E0F9F1F0895FB01DC0102C0AC
:1047400001900D9241505040D8F70895FC016150FE
:10475000704001900110D8F7809590958E0F9F1FA3
:1047600008950F931F93CF93DF93182F092FEB0119
:104770008B8181FD03C08FEF9FEF20C082FF10C0AF
:104780004E815F812C813D81421753077CF4E88183
:10479000F9819F012F5F3F4F28833983108306C023
:1047A000E885F985812F0995892B29F72E813F818D
:1047B0002F5F3F4F2E833F83812F902FDF91CF912B
:1047C0001F910F910895FA01AA27283051F1203145
:1047D00081F1E8946F936E7F6E5F7F4F8F4F9F4F95
:1047E000AF4FB1E03ED0B4E03CD0670F781F891FD7
:1047F0009A1FA11D680F791F8A1F911DA11D6A0FA5
:10480000711D811D911DA11D20D009F468943F9157
:104810002AE0269F11243019305D3193DEF6CF0156
:104820000895462F4770405D4193B3E00FD0C9F71C
:10483000F6CF462F4F70405D4A3318F0495D31FD89
:104840004052419302D0A9F7EACFB4E0A6959795DC
:10485000879577956795BA95C9F7009761057105B2
:1048600008959B01AC010A2E0694579547953795FC
:104870002795BA95C9F7620F731F841F951FA01D56
:064880000895F894FFCF3B
:10488600000E060C040006FFFF0901A1010902093A
:1048960003150026FF00750895088102090409051D
:1048A600150026FF007508950891020906090715E7
:1048B6000026FF0075089504B102C0BE0CD40CD7C3
:1048C6000C7F0C00007C204B20000052204F203B28
:1048D600200009022900010100E03209040000025B
:1048E600030000000921110100012235000705819E
:1048F6000308000407050203080004001201000271
:1049060000000008EB030224000201020301000379
:104916000000000000000000000000000000000091
:104926000000506F636B6574564E41004D617274A2
:10493600696E000004030904313278787845460030
:00000001FF
