:100000002AC1000045C1000043C1000041C10000F9
:100010003FC100003DC100003BC1000039C10000EC
:1000200037C1000035C1000033C1000031C10000FC
:100030002FC100002DC100002BC1000029C100000C
:1000400027C1000025C1000023C1000021C100001C
:100050001FC100001DC100001BC1000019C100002C
:1000600017C1000015C1000013C1000011C100003C
:100070000FC100000DC100000BC1000009C100004C
:1000800007C1000005C1000002C5000001C1000059
:10009000FFC00000FDC00000FBC00000F9C0000070
:1000A000F7C00000F5C00000F3C00000F1C0000080
:1000B000EFC00000EDC00000EBC00000E9C0000090
:1000C000E7C00000E5C00000E3C00000E1C00000A0
:1000D000DFC00000DDC00000DBC00000D9C00000B0
:1000E000D7C00000D5C00000D3C00000D1C00000C0
:1000F000CFC00000CDC00000CBC00000C9C00000D0
:10010000C7C00000C5C00000C3C00000C1C00000DF
:10011000BFC00000BDC00000BBC00000B9C00000EF
:10012000B7C00000B5C00000B3C00000B1C00000FF
:10013000AFC00000ADC00000ABC00000A9C000000F
:10014000A7C00000A5C00000A3C00000A1C000001F
:100150009FC000009DC000009BC0000099C000002F
:1001600097C0000095C0000093C0000091C000003F
:100170008FC000008DC000008BC0000089C000004F
:1001800087C0000085C0000083C0000081C000005F
:100190007FC000007DC000007BC0000079C000006F
:1001A00077C0000075C0000073C0000071C000007F
:1001B0006FC000006DC000006BC0000069C000008F
:1001C00067C0000065C0000063C0000061C000009F
:1001D0005FC000005DC000005BC0000059C00000AF
:1001E00057C0000055C0000053C0000051C00000BF
:1001F0004FC000000C94AC170C94E81808000000E5
:10020000BE922449123EABAAAA2ABECDCCCC4C3E0B
:1002100000000080BEABAAAAAA3E00000000BF00FA
:100220000000803F0000000000084178D3BB4387F6
:10023000D1133D190E3CC3BD4282AD2B3E68EC820A
:1002400076BED98FE1A93E4C80EFFFBE01C4FF7F8F
:100250003F000000000011241FBECFEFCDBFDFE242
:10026000DEBF10E2A0E0B0E2EAE5FFE302C00590E5
:100270000D92AA3CB107D9F722E2AAECB0E201C084
:100280001D92A337B207E1F70E94B71B0C94AB1F76
:10029000B7CEDC0113968C911397E82FE695E6957F
:1002A000E69530E2E39FF0011124FA5F2085382FB4
:1002B000377081E090E0032E01C0880F0A94EAF7BE
:1002C0002823C1F481E090E013962C911397E22F3C
:1002D000E695E695E69560E2E69FF0011124FA5F67
:1002E00040852770BC0102C0660F771F2A95E2F790
:1002F000462351F308950F931F93CF93DF93FC018F
:1003000080E090E0019680359105E1F78181A82F8A
:10031000A695A695A69500E2A09FD0011124BA5FEC
:10032000282F277081E090E0022E01C0880F0A94E8
:10033000EAF715968C9380E090E001968035910560
:10034000E1F78181A82FA695A695A69510E2A19F19
:10035000D0011124BA5F282F277081E090E0022E8F
:1003600001C0880F0A94EAF716968C9380E090E01B
:10037000019680359105E1F78181A82FA695A69574
:10038000A69530E2A39FD0011124BA5F282F2770D1
:1003900081E090E0022E01C0880F0A94EAF71596DA
:1003A0008C9380E090E0019680359105E1F78181A2
:1003B000A82FA695A695A69590E2A99FD0011124F5
:1003C000BA5F282F277081E090E0EC0102C0CC0FCB
:1003D000DD1F2A95E2F71696CC932081A22FA695D1
:1003E000A695A695D0E2AD9FD0011124BA5F2770E3
:1003F0008C0102C0000F111F2A95E2F716960C938C
:100400002281A22FA695A695A69510E2A19FD001C4
:100410001124BA5F277001C0880F2A95EAF7169653
:100420008C9320E030E02F5F3F4F20353105D9F726
:100430008181A82FA695A695A69530E2A39FD0010D
:100440001124BA5F282F277081E090E001C0880F47
:100450002A95EAF715968C9320E030E02F5F3F4F06
:1004600020353105D9F78181A82FA695A695A695A7
:1004700090E2A99FD0011124BA5F282F277081E054
:1004800090E001C0880F2A95EAF716968C93C8E091
:1004900070E881E090E0272F262309F405C122812E
:1004A000A22FA695A695A695D0E2AD9FD0011124C6
:1004B000BA5F27708C0102C0000F111F2A95E2F766
:1004C00015960C9320E030E02F5F3F4F203531052B
:1004D000D9F72181A22FA695A695A69510E2A19FF6
:1004E000D0011124BA5F27708C0102C0000F111FC8
:1004F0002A95E2F715960C9320E030E02F5F3F4FEE
:1005000020353105D9F72181A22FA695A695A6956C
:1005100010E2A19FD0011124BA5F27708C0102C0A4
:10052000000F111F2A95E2F716960C937695C1508D
:1005300009F0B1CFC0E160E070E881E090E09B019C
:1005400024233523232B09F49BC02281A22FA695B7
:10055000A695A69510E2A19FD0011124BA5F27703D
:100560008C0102C0000F111F2A95E2F715960C931B
:1005700020E030E02F5F3F4F20353105D9F7218152
:10058000A22FA695A695A69510E2A19FD0011124B1
:10059000BA5F27708C0102C0000F111F2A95E2F785
:1005A00015960C9320E030E02F5F3F4F203531054A
:1005B000D9F72181A22FA695A695A69510E2A19F15
:1005C000D0011124BA5F27708C0102C0000F111FE7
:1005D0002A95E2F716960C9376956795C15009F027
:1005E000AECF8081A82FA695A695A69510E2A19FD3
:1005F000D0011124BA5F282F277081E090E001C05C
:10060000880F2A95EAF715968C9320E030E02F5F4B
:100610003F4F20353105D9F78181A82FA695A695A2
:10062000A69530E2A39FD0011124BA5F282F27702E
:1006300081E090E001C0880F2A95EAF715968C9327
:1006400020E030E02F5F3F4F20353105D9F7818121
:10065000E82FE695E695E69590E2E99FF0011124F2
:10066000FA5F282F277081E090E0022E01C0880FEA
:100670000A94EAF78683DF91CF911F910F91089535
:100680002281A22FA695A695A69510E2A19FD00142
:100690001124BA5F27708C0102C0000F111F2A9528
:1006A000E2F716960C9364CF2281A22FA695A69509
:1006B000A69510E2A19FD0011124BA5F27708C018A
:1006C00002C0000F111F2A95E2F716960C93FACE7E
:1006D0002F923F924F925F926F927F928F929F9252
:1006E000AF92BF92CF92DF92EF92FF920F931F9340
:1006F000CF93DF93CDB7DEB72697CDBFDEBF8D8317
:100700009E83580169017A018B019501A601B70109
:10071000C8010E94BB1C0E944A1D28E73AE944E533
:1007200050E40E94951D9B01AC016DE372E581E0F0
:1007300092E40E942A1C0E948F1C862F90E08B83DB
:100740009C8321E030E001C0220F6A95EAF730E097
:1007500040E050E060E070E080E090E00E947C1EAD
:1007600019012A013B014C01211530424C4B5E4BD3
:10077000610571058105910511F008F06DC0A12C8E
:10078000F5E7BF2EA9E1CA2EB3E0DB2EE12CF12C58
:1007900000E010E09101A201B301C4010E94CF1E4C
:1007A00029833A839101A201B301C4010E94CD1EA5
:1007B00008E10E942B1F00E00E94CF1E89019A01D0
:1007C000812E922EA32EBB241127D02E4AED5FEF4F
:1007D00094E0E92EF12C60E08D819E818CDD4981D1
:1007E0005A815695542F4427579547958B819C8164
:1007F00082959295907F9827807F9827482B592B38
:100800004E295F296CE08D819E8175DDA4016DE02C
:100810008D819E8170DD40E05D2D6EE08D819E8139
:100820006ADD48E252EA69E08D819E812696CDBF5D
:10083000DEBFDF91CF911F910F91FF90EF90DF907E
:10084000CF90BF90AF909F908F907F906F905F9070
:100850004F903F902F904FCDA12C4AEEB42E52E3F3
:10086000C52E66E0D62EE12CF12C00E010E09101BF
:10087000A201B301C4010E94CF1E29833A839101D2
:10088000A201B301C4010E94CD1E08E10E942B1FEA
:1008900000E00E94CF1E89019A01812E922EA32E84
:1008A000BB241127D02E4BED5FEFE8E0EE2EF12CAC
:1008B00092CF0F931F93CF93DF93880F880F880FEA
:1008C00094E090930506E8E090E8A0E1F4E0292F99
:1008D000282309F450C0A093450620E030E02F5FA4
:1008E0003F4F20353105D9F7F093060620E030E080
:1008F0002F5F3F4F20353105D9F7F09305069695C8
:10090000E15029F784E080930506E0E0F0E080E024
:1009100090E0A0E8B0E0D0E1C4E08C019D010423A8
:10092000152326233723012B022B032B09F1D09308
:10093000450620E030E02F5F3F4F20353105D9F7E5
:10094000C093060620E030E02F5F3F4F2035310591
:10095000D9F7C0930506B695A795979587953196D3
:10096000E831F105D1F6DF91CF911F910F910895F4
:10097000D0934606DECFA0934606AFCFCF92DF924C
:10098000EF92FF928091080681FF04C080910806D3
:1009900081FDFCCF84E08093050638E020E850E13B
:1009A00044E0822F887509F447C05093450680E0E3
:1009B00090E0019680359105E1F74093060680E0CE
:1009C00090E0019680359105E1F740930506269564
:1009D000315039F780E180934506E8E1C12CD12CF4
:1009E00030E8E32EF12C60E070E0CB01F4E020E091
:1009F00030E02F5F3F4F20353105D9F7F0930606E1
:100A000020E030E02F5F3F4F20353105D9F72091AE
:100A1000080621FF04C06C297D298E299F29F093A7
:100A20000506F694E794D794C794E15001F7FF9038
:100A3000EF90DF90CF90089550934606B8CF65E0D1
:100A400044E050E14093050638E020E82223C1F05D
:100A50005093450680E090E0019680359105E1F7DE
:100A60004093060680E090E0019680359105E1F71D
:100A7000409305062695315049F7615019F70895BE
:100A800050934606E7CF08950895089508951F925C
:100A90000F920FB60F9211242F933F934F935F93B2
:100AA0006F937F938F939F93AF93BF93EF93FF9336
:100AB00081E0E0E2F6E084870E946415FF91EF9107
:100AC000BF91AF919F918F917F916F915F914F9166
:100AD0003F912F910F900FBE0F901F901895089582
:100AE0008091CA208F5F883218F01092CA20089532
:100AF0008093CA2008952F923F924F925F926F92F7
:100B00007F928F929F92AF92BF92CF92DF92EF929D
:100B1000FF920F931F93CF93DF93CDB7DEB76C9700
:100B2000CDBFDEBFFC0184E62CEC30E2D9011D9282
:100B30008A95E9F710811F7080915122882309F46A
:100B4000F0C08AEF810F823008F0BBC0218130E015
:100B500040E050E060E070E080E090E000E20E9461
:100B60002B1FF22E432E542E652E762E872E982E76
:100B7000E92E228130E040E050E060E070E080E06B
:100B800090E008E10E942B1FF22A432A542A652A8A
:100B9000762A872A982AE92A8581F82A238130E053
:100BA00040E050E060E070E080E090E000E10E9412
:100BB0002B1FF22A432A542A652A762A872A982A42
:100BC000E92A248130E040E050E060E070E080E01D
:100BD00090E008E00E942B1FF22A432A542A652A3B
:100BE000762A872A982AE92AA681B0E0BA2FAA276E
:100BF0008781A82B109709F481C01D01B1E12B1644
:100C0000B7E23B0608F091C02F2D342D452D562D0F
:100C1000672D782D892D9E2DAFEF0E946B1F2F3FE2
:100C20003B4B404A5546614071058105910509F0ED
:100C300008F468C02F2D342D452D562D672D782DA5
:100C4000892D9E2DA0E00E94801F09F473C085E0CD
:100C5000809330212F2D342D452D562D672D782D45
:100C6000892D9E2D00E20E94461F209331212F2DB9
:100C7000342D452D562D672D782D892D9E2D08E17B
:100C80000E94461F209332212F2D342D452D562DA5
:100C9000672D782D892D9E2D00E10E94461F2093FF
:100CA00033212F2D342D452D562D672D782D892D4F
:100CB0009E2D08E00E94461F20933421F09235219A
:100CC00005C081E0809330211093312180E391E2CF
:100CD0006C96CDBFDEBFDF91CF911F910F91FF903A
:100CE000EF90DF90CF90BF90AF909F908F907F90CC
:100CF0006F905F904F903F902F900EC422242394CA
:100D0000312C82CF81E01630B9F08093850682E0E5
:100D10008093850688E08093850684E0809365064D
:100D200018C083E080933121D1CF90E1292E97E242
:100D3000392E6ACF84E08CCF8093860682E0809340
:100D4000860688E08093850684E08093660680931B
:100D500086062F2D342D452D562D672D782D892D66
:100D60009E2D2F3FFAEB3F07FEEE4F07F0EA5F079D
:100D7000610571058105910509F008F4ECC12F2D7D
:100D8000342D452D562D672D782D892D9E2D205CD7
:100D90003749404E5D456109710981099109890111
:100DA0009A01AB01BC0189E692E292DC82E0809379
:100DB000660690E8909345068093450681E080930F
:100DC000460689E692E265DA84E08093650688E06B
:100DD0008093650680E090E0019680340FE19007F3
:100DE000D9F7812C912C20E030E040E050E0612CDC
:100DF000712C412C512C2F8B388F498F5A8FBEDD8F
:100E00005B016C01E12CF12C87016983BA82CB82F2
:100E1000DC82ED82FE820F8318872F89388D498D01
:100E20005A8DB301C201E12CF12C00E010E00E94C8
:100E3000621F3B012C010FEF801A900A8214930469
:100E4000D0F25101C12CD12CE12CF12C8701298643
:100E5000BA86CB86DC86ED86FE860F87188BC12C82
:100E6000D12CE12CF12C00E010E0C2010E94CF1E39
:100E7000298B3A8B4B8B5C8B2B018D8B9E8B84E06B
:100E80008093660688E08093660680E090E0019695
:100E900080340FE19007D9F7612C712C20E030E00D
:100EA00040E050E0812C912C1C8E80E08B8F2F8BAA
:100EB000388F498F5A8F62DD5B016C01E12CF12C78
:100EC0008701BA82CB82DC82ED82FE820F83188793
:100ED0002F89388D498D5A8DB4018B8D9C8DE12CD5
:100EE000F12C00E010E00E94621F4B018B8F9C8F61
:100EF0000FEF601A700A62147304C8F28983A98420
:100F0000BA84CB84DC84ED84FE840F8518890E942A
:100F1000CF1EB22FA32F742E652EFB014C0120E0B3
:100F200030E040E850E060E070E080E090E0A988C8
:100F3000BA88CB88DC8872010D891E890E94771FD0
:100F4000AB2EBA2EC72CD62C7F0184010E94621FC3
:100F5000E22FF32E142FE52E962EB72FA82FF92F60
:100F600000E10E94461F209334212E2F3F2D412F58
:100F70005E2D692D7B2F8A2F9F2F08E00E94461F30
:100F800020933521E093362181E08093450682E06D
:100F90008093460684E08093650688E0809365062A
:100FA00080E090E0019680341FE19107D9F7612C31
:100FB000712C20E030E040E050E0812C912C412C5D
:100FC000512C2F8B388F498F5A8FD8DC5B016C01E5
:100FD000E12CF12C87016983BA82CB82DC82ED821D
:100FE000FE820F8318872F89388D498D5A8DB40161
:100FF000C201E12CF12C00E010E00E94621F4B01C5
:101000002C010FEF601A700A62147304D0F2A984E5
:10101000BA84CB84DC84ED84FE840F851889C201F8
:101020000E94CF1E298B3A8B4B8B5C8B6D8B472E8E
:10103000582E692E84E08093660688E080936606C9
:1010400080E090E0019680341FE19107D9F7712C80
:1010500020E030E040E050E0812C912C1B8E80E0BD
:101060008E8B2F8B388F498F5A8F88DC5B016C01F8
:10107000E12CF12C8701BA82CB82DC82ED82FE82E8
:101080000F8318872F89388D498D5A8DB4018E8929
:101090009B8DE12CF12C00E010E00E94621F4B01BF
:1010A0008E8B9B8F7394872D90E082159305C8F2E9
:1010B000BE88B982A984BA84CB84DC84ED84FE84A2
:1010C0000F851889B40189819B8D0E94CF1E49012B
:1010D000E42F752EB62FA72F382E292E28EF3FEF9D
:1010E0004FE750E060E070E080E090E0A988BA88C7
:1010F000CB88DC88ED88F42C052D162D0E94771FF7
:101100005401CE2ED72CEB2EFA2E032D122D0E9439
:10111000621FE22FF32E142FE52E962EB72FA82F45
:10112000F92F00E10E94461F209331212E2F3F2DE1
:10113000412F5E2D692D7B2F8A2F9F2F08E00E9463
:10114000461F20933221E09333218DE08093372195
:1011500010923021BBCD205438464F41524A6F4F38
:101160007F4F8F4F9F4F89019A01AB01BC0189E6E8
:1011700092E2AEDA82E08093650690E890934606AC
:101180008093460681E0809346061BCECF9348E0CD
:10119000E0E3F1E2DF01242F1D922A95E9F7DC015B
:1011A0003C91232F22952F702F30D1F12A30B1F0AE
:1011B0002B30C1F12D3009F45BC081E0353051F0A6
:1011C00080933021309331212093322180E391E2CA
:1011D000CF91A2C18093CB20CF910895109230215E
:1011E00083E08093312181E0809332214093332149
:1011F0008DE0809334211092352194E6909336212E
:10120000809337218CEC90E2FC012E2F281B219338
:10121000B1E2E033FB07C9F780E391E2CF917CC1F3
:10122000CF9169CCFC01218130E0322F22278281CD
:10123000282B2436310520F584E690E0821B930BA1
:101240008830910510F087E090E0C82F8823E1F006
:10125000AC01B90164537F4D81E391E20E949B1F71
:101260008C2F80958295880F807E80933021AECF21
:10127000109230211092312180E391E2CF914CC144
:1012800086E080933021A2CF41E050E0E2CFCF93BF
:10129000DF9300D000D0CDB7DEB747E050E06FEF6E
:1012A0007FEF80E790E00E94A41F6CE170E082E095
:1012B0000E948F118C836DE170E082E00E948F119B
:1012C0008B838B819C818F3F2FEF920709F43DC068
:1012D00089839A83809362008A81809363009FB799
:1012E000F894809150008260809350009FBF80915D
:1012F000510081FFFCCF9FB7F89480915600897F01
:101300008093560080E8809365008BEB80936600A5
:1013100080915600846080935600809160008160C7
:10132000809360009FBF61E080E490E0F2D79FB7B8
:10133000F894809150008E7F809350009FBF249638
:10134000CDBFDEBFDF91CF91089580E493E28B8320
:101350009C8380E493E2BCCF8630B1F163E080915E
:10136000510081FF0CC084E490E0D3D79FB7F8947C
:10137000809170008F7B809370009FBF08959FB70E
:10138000F894809150008260809350009FBF8091BC
:10139000510081FFFCCF9FB7F89480915600897F60
:1013A0008093560080E8809365008BEB8093660005
:1013B0008091560084608093560080916000816027
:1013C000809360009FBFCFCF6BE1C9CF9FB7F894E8
:1013D000E0E7F0E08081806480839FBF60E084E488
:1013E00090E097C7FC01262F30E060FD508B21FD77
:1013F000518B22FD528B23FD538B24FD548B25FDF5
:10140000558B26FD568B220F232F221F330B232BA8
:1014100009F0578B40FF05C041FD05C0668361831D
:1014200008956283089565836183089580E0089537
:1014300081E080934C2108950F931F9310925021C7
:1014400010924E2181E080934C2104E71AE028E0BD
:1014500030E04CE351E260E082E00E94D516811159
:1014600004C080E01F910F9108951F910F910C947B
:10147000221C0C94261C2FE43AE046E050E26EE475
:1014800071E280E591E27CC08091632290916422B8
:10149000049709F0089588E391E20C94291C309197
:1014A0005B2220915C22822F90E0039711F080E074
:1014B00008953111FCCF80915F2290916022843099
:1014C0009105A9F728E331E220936122309362224B
:1014D00024E43AE0209365223093662280936322CD
:1014E0009093642281E008950F931F9381110DC0A2
:1014F0006830710569F004E71AE028E030E04CE359
:1015000051E260E082E00E94D5161F910F9108958C
:101510008CE391E23BDEEFCF0F931F93CF932091AB
:101520004C21211105C080E0CF911F910F910895AA
:10153000CFB7F89428E0E4E4F1E2DF01322F1D9206
:101540003A95E9F7FC01A4E4B1E201900D922A95E5
:10155000E1F708E11AE028E030E044E451E260E01D
:1015600081E80E94D51691E0982790934C21CFBF37
:1015700080914C2191E08927CF911F910F9108957F
:10158000CF93DF9300D0CDB7DEB7E0915922E7FDCE
:1015900019C0E076E03231F080E00F900F90DF91DB
:1015A000CF91089540915A224A3009F44FC04B30F0
:1015B00009F43FC0493081F7F9010F900F90DF9196
:1015C000CF910994E07669F0E03231F740915A22E8
:1015D000423009F45EC0433009F43EC04130E1F6C8
:1015E000EBCF80915A228630B9F649835A83E2D0F4
:1015F000FC01228549815A81213271F620915C22B9
:101600002132A9F1FC0137852313C6CF4093612213
:10161000509362222089318980915F2290916022CB
:1016200028173907A0F1809363229093642281E008
:10163000B4CF80915F2290916022892B09F0ACCFCA
:1016400080915B22FB01808381E0A7CF20915C2207
:10165000FC01208381E0A1CF60936122709362221C
:1016600081E090E0809363229093642296CF9C0166
:10167000275F3F4F20936122309362228185209122
:101680005F223091602290E02817390760F6C90187
:10169000CACF809361229093622281E090E0809390
:1016A00063229093642279CF80915B228F770C9490
:1016B0005915FF920F931F93CF93DF93F82EE0916C
:1016C0005621F0915721282F30E0220F331F02803E
:1016D000F381E02DE20FF31F00811181D8011696EE
:1016E000ED91FC911797099590915821911107C0A0
:1016F00080E0DF91CF911F910F91FF900895E091CD
:101700005621F09157210190F081E02D9481F91636
:1017100078F7E0935421F0935521428153819F0142
:10172000240F351FE217F30718F7EF0106C0988161
:10173000C90FD11DC217D30748F599819430B9F765
:101740009A81F912F4CF9B818913F1CFC093542170
:10175000D0935521CA018E0F9F1F05C029812430C7
:1017600041F02530C1F02881C20FD11DC817D9071B
:10177000A8F3D8011296ED91FC911397099581E099
:10178000DF91CF911F910F91FF900895C093542145
:10179000D0935521ADCF209761F38A810E94FF1528
:1017A000E0915621F09157210190F081E02D828146
:1017B0009381D1CF809154219091552108950C941B
:1017C0007A14CF930E94281590915821992309F4F7
:1017D00044C0E0915621F0915721A081B181149627
:1017E0008C9114978823C9F1C0E005C0CF5FC8175A
:1017F000A0F5909158219923C9F3C817B8F7A09381
:101800005421B093552112962D913C9113972A0F94
:101810003B1FA217B30750F7FD0106C09081E90FE7
:10182000F11DE217F30740F591819430B9F79281E9
:10183000C913F4CF93819111F1CFE0935421F09328
:1018400055218C2F36DFE0915621F0915721A08150
:10185000B18114968C911497C9CF10925821809120
:101860005C2181FD0E94201C81E090E080935C213E
:1018700090935D21CF910895E0935421F0935521E9
:10188000B5CFCF9390915821992309F444C0E091AA
:101890005621F0915721A081B18114968C91149713
:1018A0008823C9F1C0E005C0CF5FC817A0F59091AB
:1018B00058219923C9F3C817B8F7A0935421B093BE
:1018C000552112962D913C9113972A0F3B1FA21779
:1018D000B30750F7FD0106C09081E90FF11DE21733
:1018E000F30740F591819430B9F79281C913F4CF91
:1018F00093819111F1CFE0935421F09355218C2FD6
:10190000D8DEE0915621F0915721A081B181149643
:101910008C911497C9CF1092582180915C2181FD40
:101920000E94201C81E090E080935C2190935D21D7
:10193000CF910895E0935421F0935521B5CFCF93E3
:1019400080915821882379F1A0915621B091572197
:10195000ED91FC9111972481222329F1C0E00DC063
:101960000995E0915621F0915721A081B1811496FB
:101970002C91CF5FC217B8F4DF018C2F90E0880F55
:10198000991F1296ED91FC911397E80FF91F0190A2
:10199000F081E02D0084F185E02D309709F7FD01FD
:1019A000CF5FC21748F3CF910895EF92FF920F9344
:1019B0001F93CF93DF9310926322109264221092B0
:1019C000652210926622109267221092682240913E
:1019D000592247FD30C0842F8076C1F5242F2F7106
:1019E00009F0EEC080915A22833009F409C208F44C
:1019F0001BC1853009F41FC2893009F0D9C080911C
:101A00005F2290916022892B09F50E945C15882342
:101A100079F080915B2290915C229927E09145209A
:101A2000F0914620218930E02817390708F0EEC2EE
:101A3000409159220BC080915F22909160220097C3
:101A400009F4B6C0242F207609F40BC1242F2F717E
:101A5000213009F04CC080915821882309F4A8C096
:101A600020915D2230915E22C22FA0915621B0912B
:101A70005721ED91FC9111978481281708F098C0A7
:101A8000E0935421F0935521828193818E0F9F1F03
:101A9000E817F90740F08CC04081E40FF11DE8170A
:101AA000F90708F0BCC041814430B1F74281C4134A
:101AB000F3CF43814111F0CFE0935421F0935521AE
:101AC0003327220F331F1296ED91FC911397E20FEB
:101AD000F31F00811181F80186819781FC0109952E
:101AE00090915821911159C2209159222F71223081
:101AF00009F05EC080915821882309F459C0E09113
:101B00005621F0915721A081B18114968C918823A0
:101B100009F44EC010E0812F90E0880F991F0280D9
:101B2000F381E02DE80FF91FC081D181EE81FF81A3
:101B30000995909158219923D9F1E0915621F0917E
:101B400057210190F081E02D9481191788F5E093D9
:101B50005421F0935521228133812E0F3F1FE2172C
:101B6000F30740F025C09081E90FF11DE217F3075C
:101B700008F055C091819430B1F792811913F3CFD9
:101B800093818913F0CFE0935421F0935521EC8198
:101B9000FD81099581113BC01F5FE0915621F091B5
:101BA0005721A081B18114968C91181708F4B3CFF6
:101BB00080E0DF91CF911F910F91FF90EF900895FA
:101BC000213009F466C0223009F091CF80915A2269
:101BD000813009F43FC1833009F08CCF80915F22BE
:101BE00090916022892B09F031CF80915B229091F6
:101BF0005C22892B09F02ACF80915D220E94641714
:101C000080915D220E945B16882309F411CF81E048
:101C1000DF91CF911F910F91FF90EF900895E09386
:101C20005421F0935521C4CF813011F680915F2269
:101C300090916022892B09F009CF80915B229091CD
:101C40005C22019709F002CF80915C2190915D2187
:101C50008D7F80935C2190935D210E94201C81E008
:101C6000D7CF242F2F7109F0AFC020915A222630F0
:101C700009F459C1283009F486C1211199CF02977E
:101C800009F096CF62E070E08CE591E23CD781E00C
:101C9000BFCF80915A228B3009F0DDCE80915F2238
:101CA00090916022892B09F0D1CE80915821882310
:101CB00009F4CCCE00915D2210915E22F02EE090CE
:101CC0005B22E0915621F09157210190F081E02DA7
:101CD0008481081708F0BACEE0935421F09355217F
:101CE000828193818E0F9F1FE817F90740F0AECED7
:101CF0002081E20FF11DE817F90708F0BDC221812C
:101D00002430B1F72281F212F3CF23812111F0CFD9
:101D1000E0935421F0935521802FCBDC882309F4E4
:101D200087CE80915821882309F482CEA091562134
:101D3000B0915721ED91FC9111978481F81608F02C
:101D400077CEE0935421F0935521828193819F01B6
:101D5000280F391FE217F30708F06ACEEF0107C01A
:101D60004881C40FD11DC217D30708F0E8C14981CB
:101D70004430B1F74A81F412F3CF4B814E11F0CFCA
:101D8000C0935421D09355218E0F9F1F06C02981E7
:101D9000243049F0253009F4D7C12881C20FD11D64
:101DA000C817D907A0F31127000F111F1296ED9144
:101DB000FC911397E00FF11F0190F081E02D8081DD
:101DC0009181FC01099520CF213009F455C02230C2
:101DD00009F08DCE20915A2221118CCE029709F064
:101DE00035CE80915D224CD790E080935221909324
:101DF000532162E070E082E591E285D681E008CF70
:101E000080915F2290916022892B09F01FCE8091F2
:101E10005B2290915C22019709F018CE80915C21A1
:101E200090915D21826080935C2190935D210E945E
:101E30001E1C81E0EDCE80915F2290916022892B63
:101E400009F0B6CE84E59BE08093652290936622EC
:101E500081E0DECE80915F2290916022892B09F093
:101E6000F5CD80915B2290915C22892B09F0EECD1B
:101E700080915D2263D7C8CE20915A222A3009F082
:101E8000EACD019709F0E2CD80915821882309F429
:101E9000DDCD20915D2230915E22522FA0915621FE
:101EA000B0915721ED91FC9111978481281708F08A
:101EB000CDCDE0935421F0935521828193818E0FF3
:101EC0009F1FE817F90740F0C1CD6081E60FF11DB3
:101ED000E817F90708F0D0C161816430B1F7628179
:101EE0005613F3CF63816111F0CFE0935421F09347
:101EF0005521C9019927880F991F1296ED91FC91E0
:101F00001397E80FF91F0190F081E02D86819781EA
:101F1000FC01099580935A2161E070E08AE591E225
:101F2000F2D581E075CE20915B2230915C22832F27
:101F300099278230910509F46BC10CF4F4C0833009
:101F4000910509F416C10F9709F080CD80914920C1
:101F500090914A20009709F479CDFC016281738148
:101F6000D2D580915F22909160222091632230919E
:101F700064228217930708F04ACE809363229093DD
:101F8000642281E045CE019709F012CE61E070E055
:101F900088E591E2B8D581E03BCEE0915621F09101
:101FA00057210190F081E02D9481C91708F09CCD54
:101FB000E0935421F0935521228133812E0F3F1F4E
:101FC000E217F30738F090CD9081E90FF11DE21789
:101FD000F307B8F491819430B9F79281C913F4CF23
:101FE00093818913F1CFE0935421F0935521F801A7
:101FF00084819581FC010995882309F475CD81E0E0
:1020000007CEE0935421F09355216ECD3ADC8091B8
:102010005B2290915C2280935821882309F4F7CDAC
:1020200099278150904C880F991F880F991FA09174
:102030004720B0914820A80FB91FA0935621B09314
:102040005721ED91FC9111978481882309F4DFCD0C
:1020500010E0E0935421F0935521828193818E0FFB
:102060009F1FE817F90708F0E3CCEF0107C02881AC
:10207000C20FD11DC817D90708F061C029812430CB
:10208000B1F72A811213F3CF2B812111F0CFC09326
:102090005421D0935521828193818E0F9F1F05C0BB
:1020A0002981243041F0253061F12881C20FD11DF2
:1020B000C817D907A8F3812F90E0880F991F1296AF
:1020C000ED91FC911397E80FF91F0190F081E02D3D
:1020D0000190F081E02D0995882309F4A9CC1F5FB8
:1020E000A0915621B0915721ED91FC9111978481D7
:1020F000181708F08CCD80915821882309F498CCCA
:10210000A8CF2097C1F24C815D816B818A8104D573
:10211000882309F48DCCA0915621B0915721ED91DF
:10212000FC911197B8CF019709F090CC8091452090
:1021300090914620FC01608170E0E5D412CFC093FD
:102140005421D093552174CC209709F42CCE4C8186
:102150005D816B818A81E0D4882309F469CCA091E8
:102160005621B0915721ED91FC9111978281938175
:102170000BCEC90199278130910509F469C008F493
:1021800075C08230910509F46AC0039709F05ECCEE
:1021900060E170E030E127E0E4EBF0E2808190E084
:1021A0008093902090939120818190E08093922061
:1021B00090939320828190E0809394209093952037
:1021C000838190E08093962090939720848190E083
:1021D0008093982090939920858190E080939A2015
:1021E00090939B20273070F0868190E080939C2014
:1021F00090939D20283030F0878190E080939E203E
:1022000090939F2030938E208EE890E27CD4A9CECC
:10221000E0914520F09146208189281708F016CCDE
:102220003327220F331F220F331FE0914720F091F5
:102230004820E20FF31F80819181FC01628173814C
:1022400062D4E0916122F091622282E0818389CEA2
:102250006EE070E03EE026E0E9EAF0E29FCF62E166
:1022600070E032E128E0E0EAF0E298CF64E070E06C
:1022700080EB90E248D475CEE0935421F093552141
:10228000E5CB43E050E061E080E096E0ABD843E08E
:1022900050E062E080E096E0A5D843E050E064E0E2
:1022A00080E096E09FD843E050E068E080E096E070
:1022B00099D843E050E060E180E096E093D843E0B5
:1022C00050E060E280E096E08DD843E050E060E4CA
:1022D00080E096E087D843E050E060E880E096E058
:1022E00081D840E058E161E080E296E07BD840E0B0
:1022F00058E162E080E296E075D840E058E164E0A1
:1023000080E296E06FD840E058E168E080E296E035
:1023100069C81BBEFC0128ED24BF6083089540916D
:10232000CA01E62FF72F8093CA0184914093CA0116
:1023300008958F929F92AF92BF92DF92EF92FF9299
:102340000F931F93CF93DF9300D0CDB7DEB7D82E76
:10235000282F2F70881F8827881F30E0220F331FF7
:10236000280F311DB901625071094B01880C991C6D
:10237000880C991C880C991C860E971EA40141524A
:102380005E4D4A01220F331F220F331F220F331FCE
:10239000245E3D4DD9011196EC91E770E150E73094
:1023A00008F08DC0F0E0EE0FFF1FE454FF4DE08019
:1023B000F180D90181118AC012960D911C91139759
:1023C000F401808182FDDEC0D4011596ED91FC916F
:1023D0001697E00FF11F1596ED93FC931697139641
:1023E0004D915C9114974E175F0708F4BCC0D9015A
:1023F00016968D919C9117978017910701F1BF0157
:10240000F401808180FF4DC0D4018C918E7F8C932C
:102410001796ED91FC911897309709F442C04D2D15
:1024200080E00F900F90DF91CF911F910F91FF905F
:10243000EF90DF90BF90AF909F908F900994E4173A
:10244000F50709F4C3C08A010E1B1F0B0115B4E088
:102450001B0708F4CCC00FEF13E0C801B7010E94BE
:10246000681E081B190BD90112961D921C92139716
:102470000E151F0508F0AEC0F401808184608083D2
:10248000F0E4DF9EC0011124815E9E4D14968D9371
:102490009C9315971696ED92FC921797F90102E01E
:1024A00006930F900F90DF91CF911F910F91FF90A6
:1024B000EF90DF90BF90AF909F908F90089598E03D
:1024C000E92EF12CD901882309F476CF1696ED91E7
:1024D000FC911797D40115968D919C911697E80F52
:1024E000F91F1596ED93FC93169713960D911C9179
:1024F0001497E017F10709F463C00E1B1F0B0115B9
:10250000B4E01B0740F00FEF13E0C801B7010E94D1
:10251000681E081B190BD4018C9181FF59C0C8019A
:10252000B7010E94681E41E0892B09F067C0942F13
:10253000D4018C9190FB81F98C93D90116961D9250
:102540001C92179712960D931C931397D401119612
:102550008D919C9112978E0F9F1FF9018483958313
:1025600002E006939ECF15964D935C931697F90162
:1025700086819781BA018017910709F041CFD40174
:102580008C9140CFA180B2800580F681E02DD401EE
:1025900013968D919C911497B7010E94681EB0E428
:1025A000DB9EB0011124615E7E4DAC01C5018E0F32
:1025B0009F1F29833A830E949B1F3A81298104CF60
:1025C000D4018C9181FD1CC0BF011CCFBF01D7CFAE
:1025D00090E0AECFD40111968D919C9112978E0F01
:1025E0009F1FF901848395830683178357CFC80102
:1025F000B7010E94681E081B190B35CF40E097CF2A
:102600008D7F8C93F901168217821282138202E069
:10261000069347CF0F93CF93DF9380910F228330A0
:1026200009F456C020910B2230910C22C0916322F4
:10263000D0916422C21BD30B21F1C830D10508F41C
:1026400043C010925E21C8E0D0E0C0932622D09310
:1026500027228091612290916222820F931F8093A2
:102660002822909329222C0F3D1F20930B22309378
:102670000C22E4E2F2E202E00693DF91CF910F91A7
:10268000089580910D2290910E22820F931F8093C6
:102690000D2290930E2240915F2250916022841768
:1026A000950709F44AC080915E21811146C0E091EE
:1026B0006722F0916822309739F00995811148C05E
:1026C00020910B2230910C2281E080935E21BDCFBE
:1026D000E0916522F0916622309709F0099580918A
:1026E000C8048F7D8093C8048091C8048F7D809337
:1026F000C804E4E2F2E202E005931092262210926E
:10270000272200E2069300E40693ECE1F2E200E205
:10271000069300E4069310926522109266221092AE
:102720006722109268221092632210926422109203
:102730000F22DF91CF910F91089584E080930F22B3
:10274000ECE1F2E202E00693DF91CF910F91089560
:10275000C0916322D091642220E030E06ECF0F93CD
:10276000CF93DF9300D000D0CDB7DEB781E0809368
:10277000CC04ECE1F2E200E8069324E232E2F90153
:1027800000E806938093CA044CE152E2FA0100E1AA
:10279000069380910F22882309F432C0835082303F
:1027A00008F43CC08091C8048F7D8093C804809158
:1027B000C8048F7D8093C804F90102E0059310924C
:1027C000262210922722E4E2F2E200E206939F0121
:1027D00000E40693FA0100E206934CE152E2FA01AA
:1027E00000E40693109265221092662210926722EE
:1027F00010926822109263221092642210920F228B
:1028000080911E2290911F220897C9F081E02496A2
:10281000CDBFDEBFDF91CF910F910895E09165228A
:10282000F0916622309709F4BDCF2B833C83498316
:102830005A8309955A8149813C812B81B3CF88E025
:10284000E3E0F2E2A9E5B2E201900D928A95E1F7A8
:102850008091C80480628093C8048091C80480621B
:102860008093C8042B833C8349835A839ED82B8151
:102870003C8149815A818823C9F08091592287FD82
:102880002CC080915F2290916022892BD9F0109208
:102890000D2210920E2210920B2210920C2281E037
:1028A00080930F22FA0102E00693B0CF85E0809377
:1028B0000F22E5E2F2E204E00593EDE1F2E204E04A
:1028C0000593A4CF83E080930F22109226221092CA
:1028D0002722F90102E0069399CF10920D2210925F
:1028E0000E2210920B2210920C2282E080930F2273
:1028F00091DE8CCFCF931092600080E30E94AC09F0
:102900008091C00480648093C00481E08093600063
:10291000CFB7F89410921D221092252210922D22EA
:102920001092352210923D22109245228091DF2193
:102930008E7F8093DF218091E8218E7F8093E82134
:102940008091F1218E7F8093F1218091FA218E7FF9
:102950008093FA216AE170E082E0E1DC8F3F09F4C4
:1029600075C08093FA046BE170E082E0D8DC8F3FA1
:1029700009F48FE18093FB048091C004826080930E
:10298000C0048091C00480688093C0048091C0041A
:1029900080618093C0048CE192E28093C60490939E
:1029A000C7048091C00480628093C0048FEF80933D
:1029B000C5048091C80481608093C804109250229D
:1029C000809158228F3F09F4FFCF9FB7F8948091F0
:1029D00058228F5F809358229FBF9FB7F8948091B1
:1029E000502281110CC0809154228F3F71F12FB77A
:1029F000F894809154228F5F809354222FBF81E0FE
:102A00008093502280E48093CA0480E28093CA04B9
:102A10008091C10481608093C1048091C904826067
:102A20008093C9048091C80480648093C804809115
:102A3000C90481608093C9048091C8048068809330
:102A4000C8049FBFCFBFCF910895FFCF8FE189CF3B
:102A5000CF93CFB7F8948091C1048E7F8093C10447
:102A60001092C0041092C1040E94E6098091502285
:102A7000882361F080915422882379F09FB7F894DD
:102A8000809154228150809354229FBF10925022F3
:102A900080915822811102C0FFCFFFCF9FB7F894D9
:102AA000809158228150809358229FBFCFBFCF91F1
:102AB00008958093C30408958091C304089580917C
:102AC0004C2290914D2208958091502281110895B9
:102AD000809154228F3FB1F09FB7F8948091542297
:102AE0008F5F809354229FBF81E08093502280911A
:102AF000C1048B7F8093C1048091C1048460809362
:102B0000C1040895FFCF8093612290936222609365
:102B10006322709364220895E82FEF70F0E0EE0FC7
:102B2000FF1F992787FD90958827990F881F992760
:102B3000E80FF91FEE0FFF1FEE0FFF1FEE0FFF1F35
:102B4000E45EFD4D8181807C11F080E0089563702A
:102B5000613009F441C020F1B0E881E8A2E873E8EF
:102B600064E835E826E897E84038510509F441C0A3
:102B700000F540325105D9F140345105B1F14031F1
:102B8000510509F08B2F118296E09083818381811A
:102B9000807C803CD9F081818062818381E00895CE
:102BA000B0E481E4A2E473E464E435E426E497E469
:102BB000DBCF411582E0580701F14F3F83E0580712
:102BC000D1F041155140F1F6832FDDCF818187701F
:102BD000873009F781E00895B0EC81ECA2EC73EC4A
:102BE00064EC35EC26EC97ECBFCF872FCCCF8A2F47
:102BF000CACF862FC8CF892FC6CF822FC4CF0F93BD
:102C0000CF93DF93282F2F70482F441F4427441F52
:102C100030E0220F331F240F311DE901CC0FDD1FDF
:102C2000CC0FDD1FCC0FDD1FC45EDD4D22503109FE
:102C3000D901AA0FBB1FAA0FBB1FAA0FBB1FA20F50
:102C4000B31FA152BE4DFE0102E005939C9190FF7F
:102C50000FC09E7F9C931796ED91FC91189730972B
:102C600039F041110AC06A817B81482F81E00995C2
:102C70001982DF91CF910F9108956E817F81F5CFF9
:102C8000E82FEF70F0E0EE0FFF1F992787FD90957A
:102C90008827990F881F9927E80FF91FEE0FFF1F4C
:102CA000EE0FFF1FEE0FFF1FE45EFD4D818182FBE3
:102CB000882780F908950F93282F2F70482F441FDD
:102CC0004427441F30E0220F331F240F311DF90128
:102CD000EE0FFF1FEE0FFF1FEE0FFF1FE45EFD4D17
:102CE00091819460918301E0069322503109D901CA
:102CF000AA0FBB1FAA0FBB1FAA0FBB1FA20FB31F98
:102D0000A152BE4D02E005939C9190FF11C09E7FA1
:102D10009C9317962D913C9118972115310541F000
:102D2000411109C062817381482F81E0F901099541
:102D300081E00F91089566817781F6CF282F2F705B
:102D400030E0220F331F992787FD90958827990F30
:102D5000881F9927280F391FF901EE0FFF1FEE0F6B
:102D6000FF1FEE0FFF1FE45EFD4D818182FF13C048
:102D700081818B7F818322503109F901EE0FFF1F82
:102D8000EE0FFF1FEE0FFF1FE20FF31FE152FE4D8C
:102D9000808180FD02C081E008958E7F808307805E
:102DA000F085E02D099581E00895EF92FF920F9351
:102DB0001F93CF93DF93F82EE82FEF70E82EEE1CD1
:102DC000EE24EE1CF0E0EE0FFF1FEE0DF11DEF0103
:102DD000CC0FDD1FCC0FDD1FCC0FDD1FC45EDD4D22
:102DE0008981807C09F446C08981807C803C19F00F
:102DF000898182FD3FC0DF011297FD01EE0FFF1FA9
:102E0000EE0FFF1FEE0FFF1FEA0FFB1FE152FE4DFB
:102E10009FB7F894808180FD36C0816080839FBF1A
:102E2000418352832383348315821682078310875C
:102E300091E0611104C02115310509F090E0808115
:102E400090FB81F98B7F8083E11006C08981807CB3
:102E5000803C19F11A821B821E821F828F2D69DA33
:102E6000EE24E3948E2DDF91CF911F910F91FF906F
:102E7000EF900895E12C8E2DDF91CF911F910F914E
:102E8000FF90EF9008959FBFE12C8E2DDF91CF91A1
:102E90001F910F91FF90EF900895A981A770A15005
:102EA000A73078F4B0E0AA0FBB1FA454BF4D6D91BA
:102EB0007C91C9010DD7892B69F280818E7F808337
:102EC000DACF68E070E0F5CF0F93CF93DF93282F30
:102ED0002F70482F441F4427441F30E0220F331F18
:102EE000240F311DE901CC0FDD1FCC0FDD1FCC0FEE
:102EF000DD1FC45EDD4D22503109D901AA0FBB1F71
:102F0000AA0FBB1FAA0FBB1FA20FB31FA152BE4D1A
:102F1000FE0102E005939C9190FF12C09E7F9C935E
:102F20001796ED91FC911897309751F041110CC014
:102F30006A817B81482F81E0DF91CF910F910994C5
:102F4000DF91CF910F9108956E817F81482F81E0AD
:102F5000DF91CF910F9109941F920F920FB60F92AC
:102F600011240F932F933F934F935F936F937F930E
:102F70008F939F93AF93BF93EF93FF938091CB0475
:102F800087FD43C08091CB0482FF19C084E0809309
:102F9000CA048091242286FD64C0FF91EF91BF9105
:102FA000AF919F918F917F916F915F914F913F91E1
:102FB0002F910F910F900FBE0F901F901895809139
:102FC000CB0481FF29C082E08093CA0480911C2237
:102FD00086FFE3CF8091CC0481FDDFCF8091CC04CC
:102FE00080FF03C0BCDB8111D8CF80910F228230DB
:102FF00009F4DAC0833089F6E5E2F2E204E00593F1
:10300000EDE1F2E204E00593C8CF80E88093CA04C2
:103010000E949F0C0BD4C1CF8091CB0484FD4AC089
:103020008091CB0486FD2EC08091CB0485FFB5CF67
:1030300080E28093CA048091502281110CC080915B
:1030400054228F3F69F09FB7F894809154228F5F8C
:10305000809354229FBF81E080935022E5D39DCF7F
:10306000FFCF8091CC0481FD98CF8091CC0480FD6E
:1030700097C080910F22813009F49EC0843009F0FE
:103080008CCFBACF80E48093CA04809150228823E9
:1030900069F080915422811101C0FFCF9FB7F8944D
:1030A000809154228150809354229FBF10925022CD
:1030B000B9D373CF80E18093CA04ECE2F2E202E07C
:1030C00005938091DF2180FF10C08E7F8093DF21E8
:1030D000E091E621F091E721309739F060912E22BE
:1030E00070912F2241E081E00995E4E3F2E202E0F1
:1030F00005938091E82180FF10C08E7F8093E821A6
:10310000E091EF21F091F021309739F060913A226F
:1031100070913B2241E881E009950E94410C109298
:10312000C30410921D2296E090931C2280E48093A9
:103130001D2210922522909324228093252283E041
:1031400092E280932022909321228091C8048F7D67
:103150008093C8048091C8048F7D8093C804E4E202
:10316000F2E202E00593109226221092272200E25A
:10317000069300E40693ECE1F2E200E2069300E439
:103180000693109265221092662210926722109286
:103190006822109263221092642210920F22FDCEB8
:1031A000DEDA8111FACE65CF84E080930F22ECE164
:1031B000F2E202E00693F1CE83E080930F221092B8
:1031C000262210922722E4E2F2E202E00693E5CE04
:1031D0001F920F920FB60F921124EF92FF920F934E
:1031E0001F932F933F934F935F936F937F938F938F
:1031F0009F93AF93BF93CF93DF93EF93FF93809110
:10320000CC0481FD04C08091CC0480FD57C082E0D5
:103210008093CC048091C504CCE1D2E28195880FE3
:10322000FE01E81BF109208131812C513242369593
:1032300027953695279536952795822F869520FDDB
:103240003BC090E0890FE82FEF70F0E0EE0FFF1F1A
:10325000282F332727FD30952227330F221F3327AE
:10326000E20FF31FEE0FFF1FEE0FFF1FEE0FFF1F0A
:10327000E45EFD4D908195FF08C000E2069388232F
:1032800009F1803809F462C054D8FF91EF91DF91C1
:10329000CF91BF91AF919F918F917F916F915F91EE
:1032A0004F913F912F911F910F91FF90EF900F90B1
:1032B0000FBE0F901F90189590E8C4CF50DA81117F
:1032C000E4CFA5CF80910F22843009F451C0E09063
:1032D0001E22F0901F22009163221091642280919F
:1032E0000B2290910C229C012E0D3F1D02171307FB
:1032F00078F189012091612230916222A70163E077
:1033000072E2820F931F17D600930B2210930C22A8
:10331000F8E0EF16F10409F45EC000936322109305
:103320006422E0916722F09168223097A9F0099514
:10333000811112C085E080930F22E5E2F2E204E001
:103340000593EDE1F2E204E005939FCF63D99DCFB1
:103350007801E81AF90ACECF83E080930F22109209
:10336000262210922722E4E2F2E202E006938DCFB9
:10337000E0916522F0916622309709F009958091DD
:10338000C8048F7D8093C8048091C8048F7D80938A
:10339000C804E4E2F2E202E00593109226221092C1
:1033A000272200E2069300E40693FE0100E2069362
:1033B000ECE1F2E200E4069310926522109266229C
:1033C0001092672210926822109263221092642257
:1033D00010920F225ACF80910D2290910E22800FD1
:1033E000911F20915F22309160228217930708F08D
:1033F00094CF80916322909164228017910721F0ED
:10340000FE0102E0069341CFE0916722F09168222D
:10341000309709F48FCF0995882309F48BCF8091D9
:103420000D2290910E2220910B2230910C22820FBE
:10343000931F80930D2290930E2210920B221092D4
:103440000C22DECFCF93DF9385E080936E2287E05E
:1034500080936F228BE08093702286E080937222AB
:1034600090E29093010650E85093010641E068E035
:103470006093210680E48093010690930506E0E0C6
:10348000F6E090E8968398E0A0E2B6E016969C936A
:10349000858389E0809369228CE180936A228DE1A3
:1034A00080936B2286E180936C2260936D22C2E050
:1034B000C0932106D4E080E18093610680E2E0E6DB
:1034C000F6E08183862F86958695869590E0880F15
:1034D000991F82959295907F9827807F9827FC016D
:1034E000FA5F81E090E0818320916C22E22FE695E3
:1034F000E695E69530E2E39FF0011124FA5F27702C
:10350000DC0102C0AA0FBB1F2A95E2F7A283C09379
:10351000250620916A22E22FE695E695E695B0E22F
:10352000EB9FF0011124FA5F2770DC0102C0AA0FA3
:10353000BB1F2A95E2F7A68320916B22E22FE69526
:10354000E695E695B0E2EB9FF0011124FA5F277053
:10355000DC0102C0AA0FBB1F2A95E2F7A6832091C7
:103560006D22E22FE695E695E695B0E2EB9FF0013D
:103570001124FA5F277001C0880F2A95EAF7858326
:1035800040938106C0938106C09361065093410623
:10359000C093410640934106D09381066093810613
:1035A00060936106D093610640936106D0938506CF
:1035B000D093650660936606609385064093650622
:1035C0004AED5FEF60E089E692E20E947B0148E20B
:1035D00050E067E089E692E20E947B0140E052E918
:1035E0006BE089E692E20E947B0140E05FEF68E0D9
:1035F00089E692E20E947B0140E252EA69E089E6B4
:1036000092E20E947B0144E15AE26CE089E692E298
:103610000E947B0149E85DE96DE089E692E20E9443
:103620007B0140E05BE36EE089E692E20E947B0171
:1036300044E15AE26FE089E692E20E947B0149E8A8
:103640005DE960E189E692E20E947B0148ED50E08D
:1036500061E189E692E20E947B0141E050E066E18F
:1036600089E692E20E947B0140E050E06DE189E64C
:1036700092E20E947B0140E050EC65E189E692E233
:103680000E947B014AED5FEF60E08EE692E20E94CD
:103690007B0148E250E067E08EE692E20E947B0107
:1036A00040E052E96BE08EE692E20E947B0140E04E
:1036B0005FEF68E08EE692E20E947B0140E252EA10
:1036C00069E08EE692E20E947B0144E15EE16CE0FB
:1036D0008EE692E20E947B0141EB53E96DE08EE6BB
:1036E00092E20E947B0140E05BE36EE08EE692E2B4
:1036F0000E947B0141E050E066E18EE692E20E948A
:103700007B0140E050E06DE18EE692E20E947B0199
:1037100040E050EC65E18EE692E20E947B0180E1A0
:103720008093010680934106C0930206D093010660
:10373000809306060E941F0580E090E00196803489
:103740002FE19207D9F745E551E060E070E082E0B3
:103750000E94590441E054E868E070E081E00E9472
:10376000590481E080935122DF91CF91089587E041
:103770008093A200789410925322109254221092B7
:103780005522109256221092572281E0809358229F
:103790000E9447090E9441110E9443050E9444056E
:1037A00051DE0E94DF0BCEEFD0E48091CB2081115F
:1037B00012C0F89480915322811108C0A4E5B2E2AE
:1037C0008F5F9D919923E1F3811114C078948091CA
:1037D000CB20882371F31092CB20F8940E94E10B48
:1037E0006091A200606482EA90E00E948911FE016B
:1037F0000995DFCF90914800A82FB0E0A150B04EBE
:10380000917F8C91982B9093480080914800816023
:103810008093480078948895809148008E7F8093AB
:103820004800C3CF0C9444050C946F05809152223C
:10383000811101C0089543D90C9470050C9445057D
:103840000C94460581E080935222089510925222F2
:10385000089508955058BB27AA270ED0E1C0D2D0B2
:1038600030F0D7D020F031F49F3F11F41EF4C7C0E0
:103870000EF4E095E7FBBDC0E92FE3D080F3BA1763
:10388000620773078407950718F071F49EF5FBC073
:103890000EF4E0950B2EBA2FA02D0B01B90190016B
:1038A0000C01CA01A0011124FF27591B99F0593FAF
:1038B00050F4503E68F11A16F040A22F232F342FF7
:1038C0004427585FF3CF469537952795A795F04045
:1038D0005395C9F77EF41F16BA0B620B730B840B5A
:1038E000BAF09150A1F0FF0FBB1F661F771F881F12
:1038F000C2F70EC0BA0F621F731F841F48F487956A
:1039000077956795B795F7959E3F08F0B3CF939558
:10391000880F08F09927EE0F97958795089599D00D
:1039200088F09F5790F0B92F9927B751A0F0D1F0A8
:10393000660F771F881F991F1AF0BA95C9F712C032
:10394000B13081F0A0D0B1E008959DC0672F782FED
:103950008827B85F39F0B93FCCF38695779567959E
:10396000B395D9F73EF490958095709561957F4F0A
:103970008F4F9F4F0895E894F92F96EBFF2381F026
:10398000121613061406440B9395F69587957795B2
:10399000679557954040FF23B9F71BC099270895B5
:1039A000882351F49850D2F7872B762F652F542F08
:1039B000432F322F20E0B1F3121613061406440BE6
:1039C00088233AF09A95440F551F661F771F881F6A
:1039D000CAF755234AF4440F551F11F460FF04C081
:1039E0006F5F7F4F8F4F9F4F880F9695879597F901
:1039F000089597F99F6780E870E060E008959FEF71
:103A000080EC089500240A94161617061806090675
:103A1000089500240A941216130614060506089544
:103A2000092E0394000C11F4882352F0BB0F40F4CC
:103A3000BF2B11F460FF04C06F5F7F4F8F4F9F4F0C
:103A4000089557FD9058440F551F59F05F3F71F08E
:103A50004795880F97FB991F61F09F3F79F08795F5
:103A60000895121613061406551FF2CF4695F1DF7E
:103A700008C0161617061806991FF1CF869571050E
:103A8000610508940895E894BB2766277727CB0142
:103A900097F908950AD029ED3BE54EED5EE345C068
:103AA0000EF0E3C0ACCF6894A4CFD3DFC8F3992362
:103AB000D1F3C6F3DF93CF931F930F93FF92C92FD8
:103AC000DD2788232AF02197660F771F881FDAF7F2
:103AD00020E030E040E85FEB9FE3883920F0803E53
:103AE00030F021968F77B7DEECEFF1E003C0B3DE64
:103AF000E9E2F2E0C8D08B01BE01EC01FB2E6F576A
:103B000071097595771F880B990B74D028E132E7FE
:103B100041E35FE316D0AF2D9801AE01FF900F9106
:103B20001F91CF91DF91A8DE7BCF0BD079CF6ADFD9
:103B300028F06FDF18F0952309F05BCF60CF1124D8
:103B4000A3CF7FDFA0F3959FD1F3950F50E0551FD2
:103B5000629FF001729FBB27F00DB11D639FAA27E2
:103B6000F00DB11DAA1F649F6627B00DA11D661F31
:103B7000829F2227B00DA11D621F739FB00DA11D52
:103B8000621F839FA00D611D221F749F3327A00D0C
:103B9000611D231F849F600D211D822F762F6A2FA8
:103BA00011249F5750408AF0E1F088234AF0EE0F2D
:103BB000FF1FBB1F661F771F881F91505040A9F73A
:103BC0009E3F510570F015CF5FCF5F3FECF3983EFD
:103BD000DCF3869577956795B795F795E7959F5FA1
:103BE000C1F7FE2B880F911D9695879597F908953B
:103BF000E89409C097FB3EF4909580957095619587
:103C00007F4F8F4F9F4F9923A9F0F92F96E9BB273C
:103C10009395F695879577956795B795F111F8CFB8
:103C2000FAF4BB0F11F460FF1BC06F5F7F4F8F4F23
:103C30009F4F16C0882311F096E911C0772321F019
:103C40009EE8872F762F05C0662371F096E8862FB1
:103C500070E060E02AF09A95660F771F881FDAF708
:103C6000880F9695879597F908959F3F31F0915069
:103C700020F4879577956795B795880F911D969550
:103C8000879597F90895DF93CF931F930F93FF9232
:103C9000EF92DF927B018C01689405C0DA2EEF0170
:103CA00050DFFE01E894A5912591359145915591FC
:103CB000AEF3EF01E1DDFE019701A801DA9479F797
:103CC000DF90EF90FF900F911F91CF91DF910895BA
:103CD000AA1BBB1B51E107C0AA1FBB1FA617B70732
:103CE00010F0A61BB70B881F991F5A95A9F780954E
:103CF0009095BC01CD010895DF93CF931F930F934F
:103D00009A9DF02D219FF00D8B9DF00D8A9DE02D49
:103D1000F10D039FF00D029FE00DF11D4E9DE00D92
:103D2000F11D5E9DF00D4F9DF00D7F936F93BF923F
:103D3000AF925F934F93D501EFD08B01AC01D701C8
:103D4000EBD0EB01E80FF91FD6011FD02F913F9167
:103D5000D601E2D0C60FD71FE81FF91FAF91BF9160
:103D600014D02F913F91D8D0C60FD71FE81FF91F4D
:103D7000D601D2D0E60FF71F9801BE01CF01112462
:103D80000F911F91CF91DF910895C6D0460F571F15
:103D9000C81FD91F08F431960895689401C0E894AB
:103DA0008F929F92CF93DF9305D0DF91CF919F9019
:103DB0008F90089588249924F401E401B0E49F933E
:103DC000AA279A158B049C04ED05FE05CF05D007A4
:103DD000A10798F4AD2FDC2FCF2FFE2FE92D982CC3
:103DE000892E982F872F762F652F542F432F322F10
:103DF0002227B85031F7BF9127C01B2EBF91BB2798
:103E0000220F331F441F551F661F771F881F991FDE
:103E1000881C991CEE1FFF1FCC1FDD1FAA1FBB1F94
:103E20008A149B04EC05FD05CE05DF05A007B1074C
:103E300048F08A189B08EC09FD09CE09DF09A00BA0
:103E4000B10B21601A94E1F62EF49401AF01BE018A
:103E5000CD01000C08950F93083090F0982F872F14
:103E6000762F652F542F432F322F22270850F4CF5F
:103E7000220F331F441F551F661F771F881F991F6E
:103E80000A95B2F70F91089597FB10F81694000861
:103E90000F93083098F00850232F342F452F562FBA
:103EA000672F782F892F902DF4CF059497958795BC
:103EB0007795679557954795379527950A95AAF76A
:103EC0000F9108952A0D3B1D4C1D5D1D6E1D7F1D1C
:103ED000801F911F08950024A7FD00942A0F301D14
:103EE000401D501D601D701D801D901D08952A19D4
:103EF0003B094C095D096E097F09800B910B089500
:103F00000024A7FD00942A173005400550056005E0
:103F10007005800590050895A29FB001B39FC00170
:103F2000A39F700D811D1124911DB29F700D811DE5
:103F30001124911D0895FB01DC0102C001900D9236
:103F400041505040D8F70895DC0101C06D934150B5
:0A3F50005040E0F70895F894FFCF09
:103F5A00000E060C040006FFFF0901A1010902096F
:103F6A0003150026FF007508950881020904090552
:103F7A00150026FF0075089508910209060907151C
:103F8A000026FF0075089504B102C01C0A390A3BD5
:103F9A000A160A00007C204B20000052204F203BCA
:103FAA00200009022900010100E032090400000290
:103FBA0003000000092111010001223500070581D3
:103FCA0003080004070502030800040012010002A6
:103FDA0000000008EB0302240001010203010003B0
:103FEA0000000000000000000000000000000000C7
:103FFA00536D617274564E41004D617274696E0060
:10400A00040309043132787878454600100020000C
:0A401A004000800000010002FF03D7
:00000001FF
