:100000002AC1000045C1000043C1000041C10000F9
:100010003FC100003DC100003BC1000039C10000EC
:1000200037C1000035C1000033C1000031C10000FC
:100030002FC100002DC100002BC1000029C100000C
:1000400027C1000025C1000023C1000021C100001C
:100050001FC100001DC100001BC1000019C100002C
:1000600017C1000015C1000013C1000011C100003C
:100070000FC100000DC100000BC1000009C100004C
:1000800007C1000005C1000009C5000001C1000052
:10009000FFC00000FDC00000FBC00000F9C0000070
:1000A000F7C00000F5C00000F3C00000F1C0000080
:1000B000EFC00000EDC00000EBC00000E9C0000090
:1000C000E7C00000E5C00000E3C00000E1C00000A0
:1000D000DFC00000DDC00000DBC00000D9C00000B0
:1000E000D7C00000D5C00000D3C00000D1C00000C0
:1000F000CFC00000CDC00000CBC00000C9C00000D0
:10010000C7C00000C5C00000C3C00000C1C00000DF
:10011000BFC00000BDC00000BBC00000B9C00000EF
:10012000B7C00000B5C00000B3C00000B1C00000FF
:10013000AFC00000ADC00000ABC00000A9C000000F
:10014000A7C00000A5C00000A3C00000A1C000001F
:100150009FC000009DC000009BC0000099C000002F
:1001600097C0000095C0000093C0000091C000003F
:100170008FC000008DC000008BC0000089C000004F
:1001800087C0000085C0000083C0000081C000005F
:100190007FC000007DC000007BC0000079C000006F
:1001A00077C0000075C0000073C0000071C000007F
:1001B0006FC000006DC000006BC0000069C000008F
:1001C00067C0000065C0000063C0000061C000009F
:1001D0005FC000005DC000005BC0000059C00000AF
:1001E00057C0000055C0000053C0000051C00000BF
:1001F0004FC000000C949E180C94DA1908000000FF
:10020000BE922449123EABAAAA2ABECDCCCC4C3E0B
:1002100000000080BEABAAAAAA3E00000000BF00FA
:100220000000803F0000000000084178D3BB4387F6
:10023000D1133D190E3CC3BD4282AD2B3E68EC820A
:1002400076BED98FE1A93E4C80EFFFBE01C4FF7F8F
:100250003F000000000011241FBECFEFCDBFDFE242
:10026000DEBF10E2A0E0B0E2E8E3F1E402C00590F6
:100270000D92AE3CB107D9F722E2AEECB0E201C07C
:100280001D92A737B207E1F70E94A61C0C949A2092
:10029000B7CEDC0113969C911397E92FE695E6956E
:1002A000E69580E2E89FF0011124FA5F3085292F5E
:1002B000277081E090E001C0880F2A95EAF7832338
:1002C000B9F461E070E013969C911397E92FE695DD
:1002D000E695E69580E2E89FF0011124FA5F4085FB
:1002E00097709B0101C0220F9A95EAF7242359F3D6
:1002F00008950F931F93CF93DF93FC0180E090E06C
:10030000019680359105E1F78181A82FA695A695E4
:10031000A69500E2A09FD0011124BA5F877021E06A
:1003200030E0E90102C0CC0FDD1F8A95E2F7159697
:10033000CC9380E090E0019680359105E1F78181D2
:10034000A82FA695A695A695D0E2AD9FD001112421
:10035000BA5F877021E030E0890102C0000F111FF1
:100360008A95E2F716960C9380E090E0019680352E
:100370009105E1F78181A82FA695A695A69510E293
:10038000A19FD0011124BA5F877021E030E0E9011C
:1003900002C0CC0FDD1F8A95E2F71596CC9380E062
:1003A00090E0019680359105E1F78181A82FA6950F
:1003B000A695A695D0E2AD9FD0011124BA5F282F53
:1003C000277081E090E08C0102C0000F111F2A9578
:1003D000E2F716960C932081A22FA695A695A695D6
:1003E00010E2A19FD0011124BA5F2770EC0102C076
:1003F000CC0FDD1F2A95E2F71696CC932281A22F0F
:10040000A695A695A695D0E2AD9FD0011124BA5F1E
:10041000277001C0880F2A95EAF716968C9320E082
:1004200030E02F5F3F4F20353105D9F78181A82F6C
:10043000A695A695A69500E2A09FD0011124BA5FCB
:10044000877021E030E0E90102C0CC0FDD1F8A9502
:10045000E2F71596CC9320E030E02F5F3F4F203538
:100460003105D9F78181A82FA695A695A695D0E24A
:10047000AD9FD0011124BA5F877021E030E089017F
:1004800002C0000F111F8A95E2F716960C93C8E080
:1004900070E881E090E0272F262309F407C122812C
:1004A000A22FA695A695A69510E2A19FD001112492
:1004B000BA5F27708C0102C0000F111F2A95E2F766
:1004C00015960C9320E030E02F5F3F4F203531052B
:1004D000D9F72181A22FA695A695A69510E2A19FF6
:1004E000D0011124BA5F27708C0102C0000F111FC8
:1004F0002A95E2F715960C9320E030E02F5F3F4FEE
:1005000020353105D9F72181A22FA695A695A6956C
:1005100010E2A19FD0011124BA5F27708C0102C0A4
:10052000000F111F2A95E2F716960C937695C1508D
:1005300009F0B1CFC0E160E070E881E090E09B019C
:1005400024233523232B09F49DC02281A22FA695B5
:10055000A695A69510E2A19FD0011124BA5F27703D
:100560008C0102C0000F111F2A95E2F715960C931B
:1005700020E030E02F5F3F4F20353105D9F7218152
:10058000A22FA695A695A69510E2A19FD0011124B1
:10059000BA5F27708C0102C0000F111F2A95E2F785
:1005A00015960C9320E030E02F5F3F4F203531054A
:1005B000D9F72181A22FA695A695A69510E2A19F15
:1005C000D0011124BA5F27708C0102C0000F111FE7
:1005D0002A95E2F716960C9376956795C15009F027
:1005E000AECF8081A82FA695A695A69510E2A19FD3
:1005F000D0011124BA5F877021E030E0A90102C068
:10060000440F551F8A95E2F715964C9320E030E091
:100610002F5F3F4F20353105D9F78181A82FA6954F
:10062000A695A69550E2A59FD0011124BA5F8770C8
:1006300021E030E0E90102C0CC0FDD1F8A95E2F72E
:100640001596CC9320E030E02F5F3F4F20353105E9
:10065000D9F78181E82FE695E695E695D0E2ED9F02
:10066000F0011124FA5F877021E030E0890102C0B7
:10067000000F111F8A95E2F70683DF91CF911F913A
:100680000F9108952281A22FA695A695A69510E216
:10069000A19FD0011124BA5F27708C0102C0000F06
:1006A000111F2A95E2F716960C9362CF2281A22F92
:1006B000A695A695A69510E2A19FD0011124BA5F38
:1006C00027708C0102C0000F111F2A95E2F71696C1
:1006D0000C93F8CE2F923F924F925F926F927F923F
:1006E0008F929F92AF92BF92CF92DF92EF92FF9242
:1006F0000F931F93CF93DF93CDB7DEB72697CDBF70
:10070000DEBF8D839E83580169017A018B019501BB
:10071000A601B701C8010E94AA1D0E94391E28E740
:100720003AE944E550E40E94841E9B01AC016DE36C
:1007300072E581E092E40E94191D0E947E1D862FC1
:1007400090E08B839C83E1E0F0E09F0101C0220FE9
:100750006A95EAF730E040E050E060E070E080E069
:1007600090E00E946B1F19012A013B014C012115E9
:1007700030424C4B5E4B610571058105910511F0CE
:1007800008F06DC0A12C75E7B72EE9E1CE2EF3E09D
:10079000DF2EE12CF12C00E010E09101A201B30169
:1007A000C4010E94BE1F29833A839101A201B301B3
:1007B000C4010E94BC1F08E10E941A2000E00E94B0
:1007C000BE1F8901242F352F812E922EA32EBB24EC
:1007D00011274AED5FEFB4E06B2E712C60E08D8144
:1007E0009E8187DD49815A815695542F442757951C
:1007F00047958B819C8182959295907F9827807FE9
:100800009827482B592B462957296CE08D819E81CA
:1008100070DDA4016DE08D819E816BDD40E0502F85
:100820006EE08D819E8165DD48E252EA69E08D814E
:100830009E812696CDBFDEBFDF91CF911F910F9194
:10084000FF90EF90DF90CF90BF90AF909F908F90F0
:100850007F906F905F904F903F902F904ACDA12C4A
:100860008AEEB82E92E3C92E26E0D22EE12CF12C8E
:1008700000E010E09101A201B301C4010E94BE1F7B
:1008800029833A839101A201B301C4010E94BC1FD4
:1008900008E10E941A2000E00E94BE1F8901242F57
:1008A000352F812E922EA32EBB2411274BED5FEF07
:1008B00068E0662E712C92CFCF92DF92EF92FF927A
:1008C0000F931F936A017B01880F880F880F94E0B4
:1008D0009093050648E090E860E154E0292F282332
:1008E00009F451C06093450620E030E02F5F3F4F90
:1008F00020353105D9F75093060620E030E02F5F10
:100900003F4F20353105D9F7509305069695415054
:1009100029F784E08093050660E070E000E010E0D5
:1009200020E830E0E0E154E0D901C8018C219D21AC
:10093000AE21BF21892B8A2B8B2B11F1E093450629
:1009400080E090E0019680359105E1F7509306062E
:1009500080E090E0019680359105E1F7509305061F
:1009600036952795179507956F5F7F4F683171050D
:10097000D9F61F910F91FF90EF90DF90CF900895DF
:10098000E0934606DDCF60934606AECFCF92DF926E
:10099000EF92FF928091080681FF04C080910806C3
:1009A00081FDFCCF84E08093050638E020E850E12B
:1009B00044E0822F887509F446C05093450680E0D4
:1009C00090E0019680359105E1F74093060680E0BE
:1009D00090E0019680359105E1F740930506269554
:1009E000315039F780E18093450628E140E050E03E
:1009F00060E870E0C12CD12C760134E080E090E01A
:100A0000019680359105E1F73093060680E090E08D
:100A1000019680359105E1F78091080681FF04C0B9
:100A2000C42AD52AE62AF72A3093050676956795D3
:100A300057954795215011F7C701B601FF90EF90E8
:100A4000DF90CF90089550934606B9CF65E044E01B
:100A500050E14093050638E020E82223C1F050938E
:100A6000450680E090E0019680359105E1F74093DE
:100A7000060680E090E0019680359105E1F740930D
:100A800005062695315049F7615019F7089550939E
:100A90004606E7CF08950895089508951F920F928E
:100AA0000FB60F9211242F933F934F935F936F9341
:100AB0007F938F939F93AF93BF93EF93FF9381E0C7
:100AC00080932C060E941D16FF91EF91BF91AF916C
:100AD0009F918F917F916F915F914F913F912F9156
:100AE0000F900FBE0F901F90189508958091CE2003
:100AF0008F5F883218F01092CE2008958093CE2018
:100B000008952F923F924F925F926F927F928F92B1
:100B10009F92AF92BF92CF92DF92EF92FF920F938C
:100B20001F93CF93DF93CDB7DEB76D97CDBFDEBFF9
:100B3000DC0184E620ED30E2F90111928A95E9F7B3
:100B40008C918F70898B80915522882309F4DCC2A7
:100B500089898550853008F005C311962C9111972D
:100B600030E040E050E060E070E080E090E000E2E3
:100B70000E941A207901142F252E2B01FC011296B8
:100B80002C91129730E040E050E060E070E080E0AF
:100B900090E008E10E941A202E29F32A912E942A2F
:100BA000822C852A742C762A652C672AE82BF92B4F
:100BB00015968C911597122F182B13962C9113972D
:100BC00030E040E050E060E070E080E090E000E184
:100BD0000E941A20122BF32A942A852A762A672A41
:100BE000E82BF92B14962C91149730E040E050E05C
:100BF00060E070E080E090E008E00E941A20122B94
:100C0000F32A942A852A762A672AE82BF92B169646
:100C10004C901697512C542C442417968C91482AAA
:100C20004114510409F05AC044244394512C212FFB
:100C30003F2D492D582D672D762DCF01AFEF0E9406
:100C40005A202F3F3B4B404A554661407105810574
:100C5000910509F008F44DC0212F3F2D492D582D45
:100C6000672D762DCF01A0E00E946F2009F467C2A6
:100C700085E080933421212F3F2D492D582D672D5C
:100C8000762DCF0100E20E94352020933521212FBF
:100C90003F2D492D582D672D762DCF0108E10E945B
:100CA000352020933621212F3F2D492D582D672D9A
:100CB000762DCF0100E10E94352020933721212F8E
:100CC0003F2D492D582D672D762DCF0108E00E942C
:100CD0003520209338211093392119C201E14016A3
:100CE00007E2500608F4A3CF90E1492E97E2592E6F
:100CF0009ECF0989063009F467C2073009F421C282
:100D0000083009F480C2093009F499C2053009F4A9
:100D1000A7C2212F3F2D492D582D672D762DCF01AC
:100D200021153B4B4E4E504A6105710581059105D9
:100D300009F008F42CC2212F3F2D492D582D672D85
:100D4000762DCF01205C3749404E5D456109710920
:100D50008109910989019A01AB01BC018DE692E2FA
:100D6000B9DC82E08093660680E88093450681E0E6
:100D7000809346068DE692E28CDA84E080936506E5
:100D800088E08093650602DE812C912C20E030E023
:100D900040E050E0312C212C612C712C288F398FB0
:100DA0004A8F5B8FF3DD5B016C01E12CF12C870135
:100DB0006983BA82CB82DC82ED82FE820F83188740
:100DC000288D398D4A8D5B8D632D722DC301E12CE9
:100DD000F12C00E010E00E945120362E272E3C011D
:100DE0000FEF801A900A84149504C1F65201C12CA9
:100DF000D12CE12CF12C87014986BA86CB86DC8682
:100E0000ED86FE860F87188BC12CD12CE12CF12C9E
:100E100000E010E0722DC3010E94BE1F222E3A8B0B
:100E20004B8B5C8B6D8B7E8B8F8B392E09890630BB
:100E300009F4A6C1073009F4DFC1083009F4F9C18B
:100E4000093009F49DC1053009F422C29FDD812CCF
:100E5000912C20E030E040E050E01C8E612C712CA1
:100E600080E08D8F288F398F4A8F5B8F8FDD5B01FC
:100E70006C01E12CF12C8701BA82CB82DC82ED82FD
:100E8000FE820F831887288D398D4A8D5B8D6D8D7D
:100E90007C8DC301E12CF12C00E010E00E94512078
:100EA0006D8F7C8F3C010FEF801A900A841495049B
:100EB000C9F66983A984BA84CB84DC84ED84FE847A
:100EC0000F8518890E94BE1F4901742E652EB62F0A
:100ED000A72FF82FE92F20E030E040E850E060E055
:100EE00070E080E090E0A22CBA88CB88DC88ED88A6
:100EF000FE880F89132D0E9466205401C72CD62C22
:100F0000EB2EFA2E0F2F1E2F0E945120E22FF32ED0
:100F1000142FE52E962EB72FA82FF92F00E10E944F
:100F20003520209338212E2F3F2D412F5E2D692D06
:100F30007B2F8A2F9F2F08E00E9435202093392194
:100F4000E0933A2181E08093450684E08093650632
:100F500088E0809365061ADD812C912C20E030E03A
:100F600040E050E0312C212C612C712C288F398FDE
:100F70004A8F5B8F0BDD5B016C01E12CF12C87014B
:100F80006983BA82CB82DC82ED82FE820F8318876E
:100F9000288D398D4A8D5B8D632D722DC301E12C17
:100FA000F12C00E010E00E945120362E272E3C014B
:100FB0000FEF801A900A84149504C1F6A984BA84AC
:100FC000CB84DC84ED84FE840F851889722DC301E7
:100FD0000E94BE1F222E3A8B4B8B5C8B6D8B7E8BBF
:100FE0008F8B392E1989163009F4C3C0173009F4D4
:100FF000FCC0183009F417C1193009F4BAC0153013
:1010000009F43FC1C3DC812C912C20E030E040E0AA
:1010100050E0198A612C712C80E08C8F288F398FD9
:101020004A8F5B8FB3DC5B016C01E12CF12C8701F3
:10103000BA82CB82DC82ED82FE820F831887288DF4
:10104000398D4A8D5B8D6C8D7989C301E12CF12C32
:1010500000E010E00E9451206C8F798B3C010FEF73
:10106000801A900A84149504C9F66983A984BA8405
:10107000CB84DC84ED84FE840F8518890E94BE1F1A
:101080004901742E652EB62FA72FF82FE92F20E0E7
:1010900030E040E850E060E070E080E090E0A22CBA
:1010A000BA88CB88DC88ED88FE880F89132D0E94D2
:1010B00066205401C72CD62CEB2EFA2E0F2F1E2F94
:1010C0000E945120E22FF32E142FE52E962EB72FDB
:1010D000A82FF92F00E10E943520209335212E2FD3
:1010E0003F2D412F5E2D692D7B2F8A2F9F2F08E0EA
:1010F0000E94352020933621E09337218DE08093A4
:101100003B211092342103C083E08093352184E396
:1011100091E26D96CDBFDEBFDF91CF911F910F9110
:10112000FF90EF90DF90CF90BF90AF909F908F9007
:101130007F906F905F904F903F902F9080C284E09F
:1011400098CD81E08093850682E08093850688E0D3
:10115000809366068093850684E08093650680937D
:101160008606D7CD81E080933421F989F09335212B
:10117000CECF88E08093650684E08093660642CFF8
:1011800088E08093650684E0809366065FCE212F19
:101190003F2D492D582D672D762DCF0120543846EF
:1011A0004F41524A6F4F7F4F8F4F9F4F89019A0196
:1011B000AB01BC018DE692E28DDA82E08093650698
:1011C00080E880934606D3CD81E08093860682E056
:1011D0008093860688E0809365068093850684E088
:1011E000809366068093860694CD88E08093660699
:1011F00084E08093650606CF88E08093660684E0ED
:101200008093650623CE81E08093850682E08093FB
:101210008506009366060093860684E08093650643
:101220008093850676CD1093660684E080936506EC
:10123000E9CE0093660684E08093650607CE81E0E0
:101240008093860682E08093860688E08093650618
:101250008093860684E0809366068093850659CD48
:1012600081E08093860682E08093860688E0809302
:1012700065068093860684E08093650680938606E3
:1012800048CD88E08093650684E080936506BACEF9
:1012900088E08093650684E080936506D7CDCF9380
:1012A000DF93FC0138E0A4E3B1E2ED01832F199252
:1012B0008A95E9F72081922F92959F709F3009F4CB
:1012C0003EC09A30C9F09B3009F43DC09D3009F40E
:1012D00063C081E0253059F080933421209335217B
:1012E0009093362184E391E2DF91CF91A8C180935E
:1012F000CF20DF91CF9108951092342183E0809325
:10130000352181E080933621309337218DE0809321
:1013100038211092392194E690933A2180933B2111
:1013200020ED30E2F9018E2F821B8193C1E2E4337C
:10133000FC07C9F784E391E2DF91CF9180C1CF012F
:10134000DF91CF91DECB818190E0982F8827228199
:10135000822B8436910548F524E630E0281B390BB2
:101360002830310510F027E030E0C22F222309F1A8
:101370004FEF420F50E04F5F5F4FBC0160537F4D16
:1013800085E391E20E948A208C2F80958295880FB8
:10139000807E80933421A6CF109234211092352183
:1013A00084E391E2DF91CF914AC186E080933421BA
:1013B00099CF41E050E0E1CFCF93DF9300D000D050
:1013C000CDB7DEB747E050E06FEF70E080E790E028
:1013D0000E9493206CE170E082E00E941D128C83D9
:1013E0006DE170E082E00E941D128B838B819C81F5
:1013F0008F3F2FEF920709F43DC089839A83809332
:1014000062008A81809363009FB7F89480915000B6
:101410008260809350009FBF8091510081FFFCCF7C
:101420009FB7F89480915600897F8093560080E89A
:10143000809365008BEB80936600809156008460FA
:1014400080935600809160008160809360009FBF10
:1014500061E080E490E0EBD79FB7F8948091500072
:101460008E7F809350009FBF2496CDBFDEBFDF915B
:10147000CF91089580E493E28B839C83BECF863026
:10148000B1F163E08091510081FF0CC084E490E0F1
:10149000CED79FB7F894809170008F7B80937000B7
:1014A0009FBF08959FB7F894809150008260809309
:1014B00050009FBF8091510081FFFCCF9FB7F894EF
:1014C00080915600897F8093560080E88093650064
:1014D0008BEB809366008091560084608093560069
:1014E000809160008160809360009FBFCFCF6BE1EF
:1014F000C9CF9FB7F894E0E7F0E0808180648083F3
:101500009FBF60E084E490E092C7FC01262F30E0AA
:1015100060FD508B21FD518B22FD528B23FD538B9F
:1015200024FD548B25FD558B26FD568B220F232F32
:10153000221F330B232B09F0578B40FF05C041FDC1
:1015400005C066836183089562830895658361831E
:10155000089580E0089581E08093502108950F93CD
:101560001F93109254211092522181E080935021B8
:1015700007E01BE028E030E040E451E260E082E078
:101580000E94A617811104C080E01F910F91089559
:101590001F910F910C94111D0C94151D22EE3AE031
:1015A00046E050E262E571E284E591E275C0809127
:1015B000672290916822049709F008958CE391E2E4
:1015C0000C94181D30915F2220916022822F90E0B0
:1015D000039711F080E008953111FCCF80916322D0
:1015E0009091642284309105A9F72CE331E2209395
:1015F00065223093662227ED3AE0209369223093EA
:101600006A22809367229093682281E008950F9365
:101610001F9381110DC06830710569F007E01BE070
:1016200028E030E040E451E260E082E00E94A6174A
:101630001F910F91089580E491E231DEEFCF0F9377
:101640001F93CF93FC0180915021882309F1CFB7DC
:10165000F89488E028E431E2D901982F1D929A95F8
:10166000E9F7D90101900D928A95E1F70BEA1AE0AA
:1016700028E030E048E451E260E081E80E94A617EB
:1016800091E0892780935021CFBF809150218927F5
:10169000CF911F910F910895CF93DF93DC0190912B
:1016A0005D2297FD14C09076903221F080E0DF91AA
:1016B000CF91089580915E228A3009F448C08B3022
:1016C000C9F1893099F7F901DF91CF9109949076AA
:1016D00061F0903259F780915E22823009F45AC04D
:1016E0008330D1F1813011F7EECF80915E228630C8
:1016F000E9F6EA01E0D0FC0122852132B9F6209119
:1017000060222132A1F1FC0137852313CFCFC09392
:101710006522D0936622208931898091632290913D
:10172000642228173907A0F18093672290936822DA
:1017300081E0BDCF8091632290916422892B09F0D2
:10174000B5CF80915F22FB01808381E0B0CF809193
:1017500060228C9381E0ABCF609365227093662208
:1017600081E090E08093672290936822A0CF9C0153
:10177000275F3F4F2093652230936622FC018185CD
:10178000209163223091642290E02817390760F697
:10179000C901CACFA0936522B093662281E090E090
:1017A000809367229093682282CF80915F228F7707
:1017B0000C941216FF920F931F93CF93DF93F82E82
:1017C000A0915A21B0915B21E82FF0E09F01220FF8
:1017D000331F1296ED91FC911397E20FF31F0081D6
:1017E0001181D8011696ED91FC911797099590916A
:1017F0005C21911107C080E0DF91CF911F910F9183
:10180000FF900895E0915A21F0915B210190F081C1
:10181000E02D9481F91678F7E0935821F09359213F
:10182000228133812E0F3F1FE217F30720F7EF01CC
:1018300006C09881C90FD11DC217D30730F5998111
:101840009430B9F79A81F912F4CF9B818913F1CFC3
:10185000C0935821D093592105C08981843041F02B
:101860008530C1F08881C80FD11DC217D307A8F3F6
:10187000D8011296ED91FC911397099581E0DF91C3
:10188000CF911F910F91FF900895C0935821D0934D
:101890005921B1CF209761F38A810E94C016E0914F
:1018A0005A21F0915B210190F081E02D228133815A
:1018B0002E0F3F1FD7CF8091582190915921089525
:1018C0000C943315CF930E94E11580915C218823FD
:1018D00009F444C0E0915A21F0915B21A081B181CB
:1018E00014964C9114974423C9F1C0E005C0CF5F12
:1018F000C417A0F580915C218823C9F3C417B8F7F9
:10190000A0935821B093592112962D913C91139791
:101910002A0F3B1FA217B30750F7FD0106C09081A5
:10192000E90FF11DE217F30740F591819430B9F703
:101930008281C813F4CF83818111F1CFE0935821C4
:10194000F09359218C2F36DFE0915A21F0915B21E1
:10195000A081B18114964C911497C9CF10925C214B
:101960008091602181FD0E940F1D81E090E08093B5
:10197000602190936121CF910895E0935821F093D5
:101980005921B5CFCF9380915C21882309F444C0BD
:10199000E0915A21F0915B21A081B18114964C9184
:1019A00014974423C9F1C0E005C0CF5FC417A0F568
:1019B00080915C218823C9F3C417B8F7A0935821FC
:1019C000B093592112962D913C9113972A0F3B1FEA
:1019D000A217B30750F7FD0106C09081E90FF11D72
:1019E000E217F30740F591819430B9F78281C8136B
:1019F000F4CF83818111F1CFE0935821F0935921E5
:101A00008C2FD8DEE0915A21F0915B21A081B18129
:101A100014964C911497C9CF10925C21809160214B
:101A200081FD0E940F1D81E090E0809360219093E2
:101A30006121CF910895E0935821F0935921B5CFBA
:101A4000CF9380915C21882349F1A0915A21B091D4
:101A50005B21ED91FC91119724812223F9F0C0E0E4
:101A6000EC2FF0E0EE0FFF1F12968D919C911397D3
:101A7000E80FF91F0190F081E02D0084F185E02D41
:101A8000309749F00995A0915A21B0915B21ED91D1
:101A9000FC9111972481CF5FC21710F3CF91089565
:101AA000EF92FF920F931F93CF93DF9310926722D1
:101AB000109268221092692210926A2210926B2270
:101AC00010926C2280915D2287FD13C0982F907632
:101AD00009F496C0982F9F71913009F4BFC09230DD
:101AE00059F180E0DF91CF911F910F91FF90EF901E
:101AF000089520916322309164222115310589F3E4
:101B0000982F907639F7982F9F7109F0D5C1909151
:101B10005E22963009F481C2983009F4AFC2911167
:101B2000E0CF22303105E9F662E070E080E691E234
:101B30000E943C1681E0D6CF80915C21882389F2F7
:101B4000A0915A21B0915B21ED91FC911197848174
:101B5000882339F210E0E12FF0E0EE0FFF1F12961C
:101B60008D919C911397E80FF91FC081D181EE816F
:101B7000FF81099590915C21992309F4B2CFE091FE
:101B80005A21F0915B210190F081E02D9481191789
:101B900008F0A7CFE0935821F09359212281338197
:101BA0002E0F3F1FE217F30738F09BCF9081E90F0C
:101BB000F11DE217F307F8F491819430B9F792819F
:101BC0001913F4CF93818913F1CFE0935821F09347
:101BD0005921EC81FD8109958111ACCF1F5FA09146
:101BE0005A21B0915B21ED91FC91119784811817D6
:101BF00008F4B1CF76CFE0935821F093592171CFFB
:101C0000982F9F7109F078C080915E22833009F48B
:101C100070C108F49AC0853009F486C1893009F092
:101C200060CF8091632290916422892B09F059CF73
:101C3000FCD7882379F020915F22309160223327EE
:101C4000E0914520F0914620818990E0821793072A
:101C500008F05DC290915D229F713ECF80915C2122
:101C6000882309F43ECF2091612230916222C22F55
:101C7000A0915A21B0915B21ED91FC911197848143
:101C8000281708F02ECFE0935821F0935921428174
:101C900053814E0F5F1FE417F50740F022CF80817C
:101CA000E80FF11DE417F50708F0A5CF8181843016
:101CB000B1F78281C813F3CF83818111F0CFE09314
:101CC0005821F0935921C9019927880F991F12961D
:101CD000ED91FC911397E80FF91F00811181F80134
:101CE00086819781FC01099590915C219111D1C168
:101CF00090915D229F71F3CE913009F444C09230EF
:101D000009F0EACE80915E22813009F41CC1833053
:101D100009F012CF8091632290916422892B09F0FF
:101D20000BCF80915F2290916022892B09F004CF24
:101D3000809161220E945818809161220E9424178C
:101D40008111F8CE80915D22C5CE813009F0C9CED7
:101D50008091632290916422892B09F0C2CE8091F8
:101D60005F2290916022019709F0BBCE80916021A3
:101D7000909161218D7F80936021909361210E94D9
:101D80000F1D81E0AFCE90915E229B3009F0A2CE74
:101D90008091632290916422892B09F05FCF80911A
:101DA0005C21882309F49DCE00916122109162226A
:101DB000F02EE0905F22E0915A21F0915B2101909A
:101DC000F081E02D9481091708F04ACFE093582163
:101DD000F0935921228133812E0F3F1FE217F30721
:101DE00040F03ECF9081E90FF11DE217F30708F0B4
:101DF000D1C291819430B1F79281F912F3CF9381DE
:101E00009111F0CFE0935821F0935921802FD2DC2B
:101E1000882309F41FCF80915C21882309F41ACF0D
:101E2000A0915A21B0915B21ED91FC911197848191
:101E3000F81608F00FCFE0935821F09359218281D2
:101E400093818E0F9F1FE817F90708F003CFEF016A
:101E500007C02881C20FD11DC817D90708F052C189
:101E600029812430B1F72A81F212F3CF2B812E1170
:101E7000F0CFC0935821D093592106C02981243036
:101E800049F0253009F4DCC12881C20FD11DC817E3
:101E9000D907A0F3C8019927880F991F1296ED91D1
:101EA000FC911397E80FF91F0190F081E02D8081DC
:101EB0009181FC01099544CF913009F456C09230CC
:101EC00009F00ACE80915E22811136CE2230310592
:101ED00009F032CE809161229CD790E08093562108
:101EE0009093572162E070E086E591E2C5D681E0EB
:101EF000F9CD8091632290916422892B09F0F1CD74
:101F000080915F2290916022019709F0EACD809143
:101F10006021909161218260809360219093612182
:101F20000E940D1D81E0DECD80916322909164229C
:101F3000892B09F0D6CD85ED9BE0809369229093A3
:101F40006A2281E0CFCD8091632290916422892B17
:101F500009F0F2CD80915F2290916022892B09F0E7
:101F6000EBCD80916122BBD7EBCE90915E229A306F
:101F700009F0B0CD80915C212130310509F070CE9F
:101F8000882309F4AECD2091612230916222922FF4
:101F9000A0915A21B0915B21ED91FC911197448160
:101FA000241708F05DCEE0935821F0935921428127
:101FB00053814E0F5F1FE417F50740F051CE60814B
:101FC000E60FF11DE417F50708F0E4C16181643004
:101FD000B1F762819613F3CF63816111F0CFE09383
:101FE0005821F0935921C9019927880F991F1296FA
:101FF000ED91FC911397E80FF91F0190F081E02D0E
:1020000086819781FC01099580935E2161E070E0F3
:102010008EE591E231D681E065CD20915F2230914D
:102020006022432F55274230510509F420C10CF49A
:10203000FAC04330510509F43BC14F30510509F056
:1020400050CD8091492090914A20009709F449CDC4
:10205000FC016281738110D6809163229091642289
:1020600020916722309168228217930708F062CD91
:10207000809367229093682281E034CD213031052E
:1020800009F02FCD61E070E08CE591E2F5D581E0BB
:1020900029CDE0915A21F0915B210190F081E02D52
:1020A0009481C91708F024CEE0935821F093592168
:1020B000228133812E0F3F1FE217F30738F018CE2D
:1020C0009081E90FF11DE217F307B8F49181943084
:1020D000B9F79281C913F4CF93818913F1CFE093BB
:1020E0005821F0935921F80184819581FC010995CB
:1020F000882309F4FDCD81E0F5CCE0935821F093DD
:102100005921F6CDC0935821D0935921A3CD3ADC63
:1021100080915F229091602280935C21882309F452
:1021200009CD99278150904C880F991F880F991FCE
:10213000E0914720F0914820E80FF91FE0935A21E1
:10214000F0935B21C081D1819C81992309F4F2CC69
:1021500010E0191708F07ECDC0935821D093592173
:102160008A819B818C0F9D1FC817D90738F072CDCB
:102170002881C20FD11DC817D90720F62981243024
:10218000B9F72A811213F4CF2B812111F1CFC0931B
:102190005821D0935921A0915A21B0915B21ED9102
:1021A000FC911197828193819F01280F391F05C0EF
:1021B0008981843041F0853061F18881C80FD11D5B
:1021C000C217D307A8F3E12FF0E0CF01880F991FC2
:1021D0001296ED91FC911397E80FF91F0190F08191
:1021E000E02D0190F081E02D0995882309F432CD8E
:1021F0001F5FE0915A21F0915B21C081D1819C81C8
:10220000191708F097CC80915C21882309F422CD1E
:10221000A0CF2097C1F24C815D816B818A8133D53B
:102220008111B9CF17CD4130510509F05ACC8091B9
:10223000452090914620FC01608170E01DD50CCFB7
:10224000209709F427CE4C815D816B818A811BD553
:10225000882309F4FFCCA0915A21B0915B21ED9124
:10226000FC911197828193818E0F9F1F0DCEE0917B
:102270004520F09146208189281708F032CC332779
:10228000C901880F991F880F991FE0914720F0918D
:102290004820E80FF91F80819181FC0162817381E0
:1022A000EBD4E0916522F091662282E08183D4CE66
:1022B00033272130310509F466C008F45EC02230AE
:1022C000310509F44CC02330310509F003CC60E13D
:1022D00070E090E187E0E8EBF0E2208130E02093CD
:1022E000902030939120218130E0209392203093F0
:1022F0009320228130E020939420309395202381F5
:1023000030E02093962030939720248130E0209372
:10231000982030939920258130E020939A203093A3
:102320009B208630B1F0268130E020939C203093B2
:102330009D20873071F0278130E020939E203093DC
:102340009F20893031F4208530E02093A020309305
:10235000A12090938E208EE890E28ED47DCE809145
:10236000A22090E0809390209093912064E170E00F
:1023700094E1E2EAF0E289E0B6CF64E070E084EB59
:1023800090E27AD469CE6EE070E09EE086E0ECEAFE
:10239000F0E2A3CFE0935821F093592161CC43E0C0
:1023A00050E061E080E096E0B0D843E050E062E0C9
:1023B00080E096E0AAD843E050E064E080E096E058
:1023C000A4D843E050E068E080E096E09ED843E087
:1023D00050E060E180E096E098D843E050E060E2B1
:1023E00080E096E092D843E050E060E480E096E040
:1023F0008CD843E050E060E880E096E086D840E08A
:1024000058E161E080E296E080D840E058E162E087
:1024100080E296E07AD840E058E164E080E296E01D
:1024200074D840E058E168E080E296E06EC81BBED8
:10243000FC0128ED24BF608308954091CA01E62F76
:10244000F72F8093CA0184914093CA0108952F9277
:102450003F925F926F927F928F929F92AF92BF92C4
:10246000CF92DF92EF92FF920F931F93CF93DF9360
:1024700000D0CDB7DEB7582E982F9F70881F8827C1
:10248000881F292F30E0220F331F1901280E311C1D
:102490008101025011099101220F331F220F331FB6
:1024A000220F331FF901EC5EFD4DE585E770E15029
:1024B000E73008F080C0F0E0EE0FFF1FE054FF4D62
:1024C00080809180F901EC5EFD4D81117DC0A68474
:1024D000B7847801EE0CFF1CEE0CFF1CEE0CFF1C09
:1024E000F701E00FF11FED51FE4D808182FD18C113
:1024F00065807680C380D4806A0C7B1CD701A00FD6
:10250000B11FAD51BE4D15966D927C921697C614B3
:10251000D70488F51596CD92DC921697F901EC5EFA
:10252000FD4D828993898C91360180FF30C00E0D5C
:102530001F1DF801ED51FE4D80818E7F8083078045
:10254000F085E02D309719F1452DB30180E00F9013
:102550000F90DF91CF911F910F91FF90EF90DF903F
:10256000CF90BF90AF909F908F907F906F905F9033
:102570003F902F900994F901EC5EFD4D828993897B
:102580008A159B0509F48DC08C9180FDD0CF0F90EA
:102590000F90DF91CF911F910F91FF90EF90DF90FF
:1025A000CF90BF90AF909F908F907F906F905F90F3
:1025B0003F902F900895B8E08B2E912CF901EC5E9E
:1025C000FD4D882309F483CF628873887801EE0C6F
:1025D000FF1CEE0CFF1CEE0CFF1CD701A00FB11F5F
:1025E000AD51BE4D15968D919C911697680E791E32
:1025F00015966D927C92169713968D919C911497D7
:102600006816790609F4A8C0FC01E619F709E11576
:1026100044E0F40740F0EFEFF3E0CF01B4010E9493
:10262000571FE81BF90BD701A00FB11FAD51BE4DCD
:102630008C9181FFA0C0CF01B4010E94571FAC0153
:1026400091E0452B09F0B5C0892F0E0D1F1D0D51CE
:102650001E4DD8019C9180FB91F99C93C9018C5E21
:102660009D4DDC0152961D921C9253971E96ED9340
:10267000FC931F97F80181819281680E791EC10138
:10268000880F991F880F991F880F991F8C5D9D4D8A
:10269000DC016D927C92F901E05EFD4D02E0069353
:1026A00076CF6C147D0409F46FCFC618D708C11417
:1026B000E4E0DE0608F476C0EFEFF3E0CF01B4010A
:1026C0000E94571F6F01C81AD90AF901EC5EFD4D2F
:1026D000168617860E0D1F1DD801AD51BE4DC814AC
:1026E000D90408F04AC08C9184608C9340E4549ED5
:1026F000C00111248D5D9E4DA101440F551F440F53
:10270000551F440F551F4C5D5D4DDA018D939C9311
:10271000828A938AF901E05EFD4D02E0069337CF8D
:10272000C380D480658076800180F281E02DC6016F
:10273000B4010E94571FB0E45B9EB00111246D5D8F
:102740007E4DAC01CF01860D971D29833A830E94EF
:102750008A203A812981D0CE8C9181FF16CF8D7F3E
:102760008C93128A138A16861786F901E05EFD4D56
:1027700002E006930CCF80E068CF11968D919C917A
:102780001297680E791EC101880F991F880F991F33
:10279000880F991F8C5D9D4DDC016D927C92C28AE1
:1027A000D38AB8CFC601B4010E94571FC81AD90AEC
:1027B0008CCF90E049CF0F93CF93DF93809113227A
:1027C000833009F456C020910F2230911022C0911D
:1027D0006722D0916822C21BD30B21F1C830D105EA
:1027E00008F443C010926221C8E0D0E0C0932A22CE
:1027F000D0932B228091652290916622820F931FA5
:1028000080932C2290932D22C20FD31FC0930F22AE
:10281000D0931022E8E2F2E202E00693DF91CF913A
:102820000F9108958091112290911222820F931F8F
:10283000809311229093122240916322509164223E
:102840008417950709F44AC080916221811146C01E
:10285000E0916B22F0916C22309739F0099581114B
:1028600048C020910F223091102281E08093622194
:10287000BDCFE0916922F0916A22309709F0099565
:102880008091C8048F7D8093C8048091C8048F7D97
:102890008093C804E8E2F2E202E0059310922A2253
:1028A00010922B2200E2069300E40693E0E2F2E2AB
:1028B00000E2069300E406931092692210926A22C5
:1028C00010926B2210926C22109267221092682252
:1028D00010921322DF91CF910F91089584E080939D
:1028E0001322E0E2F2E202E00693DF91CF910F9132
:1028F0000895C0916722D091682220E030E06ECF29
:10290000EF92FF920F93CF93DF9381E08093CC04FB
:10291000C0E2D2E2FE0100E8069398E2E92E92E2DC
:10292000F92EF70100E806938093CA04FE0100E146
:10293000069380911322882309F42CC0835082309F
:1029400008F435C08091C8048F7D8093C8048091BD
:10295000C8048F7D8093C804F70102E005931092AC
:102960002A2210922B2200E2069300E40693FE0135
:1029700000E2069300E406931092692210926A2204
:1029800010926B2210926C22109267221092682291
:10299000109213228091222290912322089781F095
:1029A00081E0DF91CF910F91FF90EF900895E0913A
:1029B0006922F0916A22309709F4C4CF0995C2CFF9
:1029C00088E0E7E0F2E2ADE5B2E201900D928A958F
:1029D000E1F78091C80480628093C8048091C804A4
:1029E00080628093C8045CD88823C9F080915D22FE
:1029F00087FD2CC08091632290916422892BD9F0AD
:102A0000109211221092122210920F221092102274
:102A100081E080931322FE0102E00693C1CF85E09E
:102A200080931322E9E2F2E204E00593E1E2F2E2AC
:102A300004E00593B5CF83E08093132210922A22FD
:102A400010922B22F70102E00693AACF10921122D6
:102A50001092122210920F221092102282E0809384
:102A60001322A9DE9DCFCF931092600080E30E94D5
:102A70003F0A8091C00480648093C00481E0809309
:102A80006000CFB7F8941092212210922922109260
:102A900031221092392210924122109249228091C3
:102AA000E3218E7F8093E3218091EC218E7F8093C0
:102AB000EC218091F5218E7F8093F5218091FE217C
:102AC0008E7F8093FE216AE170E082E0B6DC8F3F6A
:102AD00009F475C08093FA046BE170E082E0ADDC2C
:102AE0008F3F09F48FE18093FB048091C0048260E2
:102AF0008093C0048091C00480688093C00480915A
:102B0000C00480618093C00480E292E28093C60496
:102B10009093C7048091C00480628093C0048FEFBB
:102B20008093C5048091C80481608093C80410928A
:102B3000542280915C228F3F09F4FFCF9FB7F89415
:102B400080915C228F5F80935C229FBF9FB7F89437
:102B50008091542281110CC0809158228F3F71F1D5
:102B60002FB7F894809158228F5F809358222FBFFF
:102B700081E08093542280E48093CA0480E28093B1
:102B8000CA048091C10481608093C1048091C9040A
:102B900082608093C9048091C80480648093C804D3
:102BA0008091C90481608093C9048091C8048068C1
:102BB0008093C8049FBFCFBFCF910895FFCF8FE10F
:102BC00089CFCF93CFB7F8948091C1048E7F809343
:102BD000C1041092C0041092C1040E94790A80912D
:102BE0005422882361F080915822882379F09FB77E
:102BF000F894809158228150809358229FBF109260
:102C0000542280915C22811102C0FFCFFFCF9FB779
:102C1000F89480915C22815080935C229FBFCFBF4B
:102C2000CF9108958093C30408958091C3040895BB
:102C300080915022909151220895809154228111C7
:102C40000895809158228F3FB1F09FB7F8948091FA
:102C500058228F5F809358229FBF81E08093542237
:102C60008091C1048B7F8093C1048091C1048460F2
:102C70008093C1040895FFCFEDE5F2E2808791874C
:102C8000628773870895282F2F7030E0220F331F3B
:102C9000082E000C990B8827990F881F9927820FFF
:102CA000931F880F991F880F991F880F991FFC0188
:102CB000EC5EFD4D2585207C11F080E00895637069
:102CC000613009F448C058F120E8B1E8A2E8F3E81F
:102CD000E4E875E866E837E84038510509F446C08D
:102CE00038F54032510509F449C04034510509F422
:102CF00043C040315105C1F1FC01EC5EFD4D15862C
:102D000036E0348725872585207C203CF1F0FC01C6
:102D1000EC5EFD4D85858062858781E0089520E425
:102D2000B1E4A2E4F3E4E4E475E466E437E4D4CF88
:102D30004115E2E05E07F1F04F3F63E05607C1F056
:102D400041155140C9F6272FD7CF25852770273049
:102D5000F1F681E0089520ECB1ECA2ECF3ECE4ECA8
:102D600075EC66EC37ECB8CF2B2FC6CF2E2FC4CF27
:102D7000232FC2CF262FC0CF2F2FBECF2A2FBCCFBD
:102D80000F93CF93DF93C82FCF70482F441F442752
:102D9000441FD0E0CC0FDD1FC40FD11D9E01225077
:102DA0003109CC0FDD1FCC0FDD1FCC0FDD1FFE0165
:102DB000E05EFD4D02E00593F901EE0FFF1FEE0FFF
:102DC000FF1FEE0FFF1FE20FF31FED51FE4D90812D
:102DD00090FF13C09E7F90830780F085E02D309791
:102DE00061F0DE01AC5EBD4D41110EC01E966D91CD
:102DF0007C911F97482F81E00995CC5EDD4D1D86A3
:102E0000DF91CF910F91089552966D917C915397D8
:102E1000F1CFE82FEF70F0E0EE0FFF1F082E000C4F
:102E2000990B8827990F881F9927E80FF91FEE0F34
:102E3000FF1FEE0FFF1FEE0FFF1FEC5EFD4D8585A0
:102E400082FB882780F908950F93282F2F70482F31
:102E5000441F4427441F30E0220F331F240F311D2D
:102E6000F901EE0FFF1FEE0FFF1FEE0FFF1FDF0137
:102E7000AC5EBD4D1D969C911D9794601D969C93D4
:102E80001D97E05EFD4D01E006932250310902E0FE
:102E90000593F901EE0FFF1FEE0FFF1FEE0FFF1F4F
:102EA000E20FF31FED51FE4D908190FF10C09E7F09
:102EB00090830780F085E02D309749F041110AC0DA
:102EC0001E966D917C911F97482F81E0099581E0B6
:102ED0000F91089552966D917C915397F5CF282FBD
:102EE0002F7030E0220F331F082E000C990B88271B
:102EF000990F881F9927820F931FFC01EE0FFF1F68
:102F0000EE0FFF1FEE0FFF1FEC5EFD4D258522FF2C
:102F100013C025852B7F25870297FC01EE0FFF1F2D
:102F2000EE0FFF1FEE0FFF1F8E0F9F1FFC01ED51D5
:102F3000FE4D808180FD02C081E008958E7F8083F8
:102F40000780F085E02D099581E00895AF92BF924A
:102F5000CF92DF92EF92FF920F931F93CF93C82FE0
:102F60005901E82FEF70382F331F3327331FF0E05C
:102F7000EE0FFF1FE30FF11D7F01EE0CFF1CEE0CA7
:102F8000FF1CEE0CFF1CD701AC5EBD4D1D969C9145
:102F90001D97907C09F45AC01D968C911D97807CDA
:102FA000803C21F01D968C9182FD50C032977FB7F6
:102FB000F8946F01CC0CDD1CCC0CDD1CCC0CDD1CA2
:102FC000C6018E0F9F1F8D519E4DDC012C9120FD5F
:102FD0004FC02160DC012C937FBF11964D935C9311
:102FE00012971396AD92BC92149715961D921C924F
:102FF000169717960D931C93189791E0611104C0D2
:10300000A114B10409F090E0A6014E0F5F1F4D51CD
:103010005E4DDA018C9190FB81F98B7F8C9331119D
:1030200021C0A7014C5E5D4DDA011D968C911D9764
:10303000807C803C01F1F701EC5EFD4D1686178621
:10304000128A138A8C2F03DA31E001C030E0832F1B
:10305000CF911F910F91FF90EF90DF90CF90BF9095
:10306000AF900895F701EC5EFD4D128A138AEACF06
:103070007FBF30E0ECCF1D968C91877081508730F8
:10308000A0F490E0880F991F80549F4DDC016D9152
:103090007C91C5010CD7892B71F2EC0DFD1DED5112
:1030A000FE4D80818E7F8083D2CF68E070E0F1CFCB
:1030B0000F93282F2F70482F441F4427441F30E0C0
:1030C000220F331F240F311DB90162507109220FE5
:1030D000331F220F331F220F331FF901E05EFD4D16
:1030E00002E00593FB01EE0FFF1FEE0FFF1FEE0F37
:1030F000FF1FE60FF71FED51FE4D908190FF14C0AA
:103100009E7F90830780F085E02D309769F0D9018C
:10311000AC5EBD4D41110AC01E966D917C911F970A
:10312000482F81E00F9109940F91089552966D9167
:103130007C915397482F81E00F9109941F920F9231
:103140000FB60F9211240F932F933F934F935F93DA
:103150006F937F938F939F93AF93BF93EF93FF935F
:103160008091CB0487FD43C08091CB0482FF19C0BE
:1031700084E08093CA048091282286FD64C0FF9178
:10318000EF91BF91AF919F918F917F916F915F91DF
:103190004F913F912F910F910F900FBE0F901F9065
:1031A00018958091CB0481FF29C082E08093CA04E6
:1031B0008091202286FFE3CF8091CC0481FDDFCF78
:1031C0008091CC0480FF03C09BDB8111D8CF80911C
:1031D0001322823009F4DAC0833089F6E9E2F2E2A0
:1031E00004E00593E1E2F2E204E00593C8CF80E851
:1031F0008093CA040E94200D08D4C1CF8091CB04D3
:1032000084FD4AC08091CB0486FD2EC08091CB0402
:1032100085FFB5CF80E28093CA048091542281114A
:103220000CC0809158228F3F69F09FB7F89480912D
:1032300058228F5F809358229FBF81E08093542251
:10324000E2D39DCFFFCF8091CC0481FD98CF8091B8
:10325000CC0480FD97C080911322813009F49EC078
:10326000843009F08CCFBACF80E48093CA04809177
:103270005422882369F080915822811101C0FFCF28
:103280009FB7F894809158228150809358229FBF15
:1032900010925422B6D373CF80E18093CA04E0E346
:1032A000F2E202E005938091E32180FF10C08E7F5F
:1032B0008093E321E091EA21F091EB21309739F0FE
:1032C000609132227091332241E081E00995E8E378
:1032D000F2E202E005938091EC2180FF10C08E7F26
:1032E0008093EC21E091F321F091F421309739F0B3
:1032F00060913E2270913F2241E881E009950E9451
:10330000C20C1092C3041092212296E090932022C6
:1033100080E4809321221092292290932822809386
:10332000292287E092E280932422909325228091A3
:10333000C8048F7D8093C8048091C8048F7D8093DA
:10334000C804E8E2F2E202E0059310922A22109209
:103350002B2200E2069300E40693E0E2F2E200E2B0
:10336000069300E406931092692210926A2210924A
:103370006B2210926C221092672210926822109297
:103380001322FDCEBDDA8111FACE65CF84E08093A1
:103390001322E0E2F2E202E00693F1CE83E08093B2
:1033A000132210922A2210922B22E8E2F2E202E08B
:1033B0000693E5CE1F920F920FB60F921124EF9253
:1033C000FF920F931F932F933F934F935F936F93AE
:1033D0007F938F939F93AF93BF93CF93DF93EF939D
:1033E000FF938091CC0481FD04C08091CC0480FDCA
:1033F0005DC082E08093CC048091C504C0E2D2E23B
:103400008195880FFE01E81BF1092081318120524E
:103410003242369527953695279536952795822FF2
:10342000869520FD41C090E0890F282F2F7030E055
:10343000F901EE0FFF1F282F082E000C330B222757
:10344000330F221F33272E0F3F1F220F331F220F50
:10345000331F220F331FF901EC5EFD4D948595FF5C
:103460000CC0F901E05EFD4D00E20693882311F1E6
:10347000803809F462C00E942712FF91EF91DF911A
:10348000CF91BF91AF919F918F917F916F915F91FC
:103490004F913F912F911F910F91FF90EF900F90BF
:1034A0000FBE0F901F90189590E8BECF29DA8111BA
:1034B000E4CF9FCF80911322843009F451C0E09073
:1034C0002222F0902322209167223091682280915D
:1034D0000F22909110228C010E0D1F1D2017310715
:1034E00070F12091652230916622A70167E072E2B7
:1034F000820F931F0FD600930F2210931022F8E033
:10350000EF16F10409F45DC000936722109368225E
:10351000E0916B22F0916C223097B1F00995811106
:1035200013C085E080931322E9E2F2E204E0059300
:10353000E1E2F2E204E00593A0CF3DD99ECF79010C
:10354000E81AF90A8901CDCF83E080931322109203
:103550002A2210922B22E8E2F2E202E006938DCFBB
:10356000E0916922F0916A22309709F009958091E3
:10357000C8048F7D8093C8048091C8048F7D809398
:10358000C804E8E2F2E202E0059310922A221092C7
:103590002B2200E2069300E40693FE0100E206936C
:1035A00000E406931092692210926A2210926B2214
:1035B00010926C22109267221092682210921322AD
:1035C0005CCF8091112290911222800F911F209147
:1035D0006322309164228217930708F095CF80917F
:1035E0006722909168228017910721F0FE0102E086
:1035F000069343CFE0916B22F0916C22309709F44F
:1036000090CF0995882309F48CCF20911122309115
:10361000122280910F2290911022820F931F80938B
:1036200011229093122210920F2210921022DECFBC
:10363000CF93DF9385E08093722287E0809373229B
:103640008BE08093742286E08093762260E2609320
:10365000010621E030E040E84093010691E088E077
:103660008093210650E45093010660930506E0E044
:10367000F6E060E8668368E060932606558359E0CB
:1036800050936D225CE150936E225DE150936F2266
:1036900056E15093702280937122C2E0C0932106BC
:1036A000D4E050E15093610650E250936106E82F58
:1036B000E695E695E695F0E0EE0FFF1FE295F295B0
:1036C000F07FFE27E07FFE27FA5F21835091702272
:1036D000E52FE695E695E69560E2E69FF001112478
:1036E000FA5F5770B90101C0660F5A95EAF7628315
:1036F000C093250650916E22E52FE695E695E69556
:1037000060E2E69FF0011124FA5F5770B90101C031
:10371000660F5A95EAF7668350916F22E52FE6957A
:10372000E695E69560E2E69FF0011124FA5F577096
:10373000B90101C0660F5A95EAF76683509171226C
:10374000E52FE695E695E69560E2E69FF001112407
:10375000FA5F577001C0220F5A95EAF725839093BC
:103760008106C0938106C093610640934106C093D1
:10377000410690934106D093810680938106809301
:103780006106D093610690936106D0938506D0932D
:1037900066068093660680938506909365064AEDDB
:1037A0005FEF60E08DE692E20E94790148E250E02E
:1037B00067E08DE692E20E94790140E052E96BE019
:1037C0008DE692E20E94790140E05FEF68E08DE6CD
:1037D00092E20E94790140E252EA69E08DE692E2CB
:1037E0000E94790144E15AE26CE08DE692E20E9487
:1037F000790149E85DE96DE08DE692E20E94790188
:1038000040E05BE36EE08DE692E20E94790144E1E4
:103810005AE26FE08DE692E20E94790149E85DE9A3
:1038200060E18DE692E20E94790148ED50E061E1AD
:103830008DE692E20E94790141E050E066E18DE67A
:1038400092E20E94790140E050E06DE18DE692E263
:103850000E94790140E050EC65E18DE692E20E9421
:1038600079014AED5FEF60E082E792E20E94790120
:1038700048E250E067E082E792E20E94790140E08E
:1038800052E96BE082E792E20E94790140E05FEF4B
:1038900068E082E792E20E94790140E252EA69E040
:1038A00082E792E20E94790144E15EE16CE082E706
:1038B00092E20E94790141EB53E96DE082E792E2E6
:1038C0000E94790140E05BE36EE082E792E20E94B1
:1038D000790141E050E066E182E792E20E947901DD
:1038E00040E050E06DE182E792E20E94790140E021
:1038F00050EC65E182E792E20E94790180E18093D9
:10390000010680934106C0930206D093010680937E
:1039100006060E94260580E090E0019680342FE1A3
:103920009207D9F744E551E060E070E082E00E9440
:103930005C0441E054E868E070E081E00E945C04CF
:1039400081E080935522DF91CF91089587E08093A5
:10395000A200789410925722109258221092592265
:1039600010925A2210925B2281E080935C220E9486
:10397000DC090E94CF110E944A050E944B0558DEC7
:103980000E94600C0EEF10E48091CF20811113C0D3
:10399000F89480915722811109C0C8E5D2E2A0E0D5
:1039A000AF5F89918823E1F3A11114C078948091CD
:1039B000CF20882369F31092CF20F8940E94620CE4
:1039C0006091A200606482EA90E00E941712F80100
:1039D0000995DECF80914800B0E0A150B04E817FC4
:1039E0009C91892B8093480080914800816080934E
:1039F000480078948895809148008E7F8093480095
:103A0000C3CF0C944B050C947505809156228111FF
:103A100001C008950DD90C9476050C944C050C94B6
:103A20004D0581E080935622089510925622089504
:103A300008955058BB27AA270ED0E1C0D2D030F04D
:103A4000D7D020F031F49F3F11F41EF4C7C00EF41C
:103A5000E095E7FBBDC0E92FE3D080F3BA1762071A
:103A600073078407950718F071F49EF5FBC00EF4F8
:103A7000E0950B2EBA2FA02D0B01B90190010C017E
:103A8000CA01A0011124FF27591B99F0593F50F496
:103A9000503E68F11A16F040A22F232F342F4427EE
:103AA000585FF3CF469537952795A795F0405395E6
:103AB000C9F77EF41F16BA0B620B730B840BBAF0B6
:103AC0009150A1F0FF0FBB1F661F771F881FC2F721
:103AD0000EC0BA0F621F731F841F48F48795779535
:103AE0006795B795F7959E3F08F0B3CF9395880FEC
:103AF00008F09927EE0F97958795089599D088F04B
:103B00009F5790F0B92F9927B751A0F0D1F0660FC9
:103B1000771F881F991F1AF0BA95C9F712C0B130E4
:103B200081F0A0D0B1E008959DC0672F782F88273D
:103B3000B85F39F0B93FCCF3869577956795B39523
:103B4000D9F73EF490958095709561957F4F8F4F92
:103B50009F4F0895E894F92F96EBFF2381F01216FA
:103B600013061406440B9395F695879577956795FC
:103B700057954040FF23B9F71BC099270895882324
:103B800051F49850D2F7872B762F652F542F432F5F
:103B9000322F20E0B1F3121613061406440B8823CB
:103BA0003AF09A95440F551F661F771F881FCAF772
:103BB00055234AF4440F551F11F460FF04C06F5F92
:103BC0007F4F8F4F9F4F880F9695879597F9089550
:103BD00097F99F6780E870E060E008959FEF80ECC0
:103BE000089500240A941616170618060906089563
:103BF00000240A9412161306140605060895092EC9
:103C00000394000C11F4882352F0BB0F40F4BF2B37
:103C100011F460FF04C06F5F7F4F8F4F9F4F089577
:103C200057FD9058440F551F59F05F3F71F047956D
:103C3000880F97FB991F61F09F3F79F08795089552
:103C4000121613061406551FF2CF4695F1DF08C071
:103C5000161617061806991FF1CF8695710561058E
:103C600008940895E894BB2766277727CB0197F936
:103C700008950AD029ED3BE54EED5EE345C00EF018
:103C8000E3C0ACCF6894A4CFD3DFC8F39923D1F3BA
:103C9000C6F3DF93CF931F930F93FF92C92FDD27B6
:103CA00088232AF02197660F771F881FDAF720E014
:103CB00030E040E85FEB9FE3883920F0803E30F051
:103CC00021968F77B7DEECEFF1E003C0B3DEE9E2D7
:103CD000F2E0C8D08B01BE01EC01FB2E6F577109D9
:103CE0007595771F880B990B74D028E132E741E373
:103CF0005FE316D0AF2D9801AE01FF900F911F9199
:103D0000CF91DF91A8DE7BCF0BD079CF6ADF28F08F
:103D10006FDF18F0952309F05BCF60CF1124A3CF9C
:103D20007FDFA0F3959FD1F3950F50E0551F629F61
:103D3000F001729FBB27F00DB11D639FAA27F00D04
:103D4000B11DAA1F649F6627B00DA11D661F829F2B
:103D50002227B00DA11D621F739FB00DA11D621F10
:103D6000839FA00D611D221F749F3327A00D611D2D
:103D7000231F849F600D211D822F762F6A2F11240F
:103D80009F5750408AF0E1F088234AF0EE0FFF1F62
:103D9000BB1F661F771F881F91505040A9F79E3F99
:103DA000510570F015CF5FCF5F3FECF3983EDCF329
:103DB000869577956795B795F795E7959F5FC1F7D6
:103DC000FE2B880F911D9695879597F90895E89495
:103DD00009C097FB3EF490958095709561957F4F53
:103DE0008F4F9F4F9923A9F0F92F96E9BB27939501
:103DF000F695879577956795B795F111F8CFFAF411
:103E0000BB0F11F460FF1BC06F5F7F4F8F4F9F4F41
:103E100016C0882311F096E911C0772321F09EE89F
:103E2000872F762F05C0662371F096E8862F70E005
:103E300060E02AF09A95660F771F881FDAF7880FDF
:103E40009695879597F908959F3F31F0915020F40A
:103E5000879577956795B795880F911D9695879566
:103E600097F90895DF93CF931F930F93FF92EF92EB
:103E7000DF927B018C01689405C0DA2EEF0150DFE0
:103E8000FE01E894A5912591359145915591AEF3A8
:103E9000EF01E1DDFE019701A801DA9479F7DF90E7
:103EA000EF90FF900F911F91CF91DF910895AA1B82
:103EB000BB1B51E107C0AA1FBB1FA617B70710F015
:103EC000A61BB70B881F991F5A95A9F78095909547
:103ED000BC01CD010895DF93CF931F930F939A9D5B
:103EE000F02D219FF00D8B9DF00D8A9DE02DF10DA1
:103EF000039FF00D029FE00DF11D4E9DE00DF11DA1
:103F00005E9DF00D4F9DF00D7F936F93BF92AF922A
:103F10005F934F93D501EFD08B01AC01D701EBD06C
:103F2000EB01E80FF91FD6011FD02F913F91D60169
:103F3000E2D0C60FD71FE81FF91FAF91BF9114D071
:103F40002F913F91D8D0C60FD71FE81FF91FD60178
:103F5000D2D0E60FF71F9801BE01CF0111240F91B7
:103F60001F91CF91DF910895C6D0460F571FC81FEC
:103F7000D91F08F431960895689401C0E8948F928F
:103F80009F92CF93DF9305D0DF91CF919F908F9039
:103F9000089588249924F401E401B0E49F93AA27AA
:103FA0009A158B049C04ED05FE05CF05D007A107EB
:103FB00098F4AD2FDC2FCF2FFE2FE92D982C892ED2
:103FC000982F872F762F652F542F432F322F22279C
:103FD000B85031F7BF9127C01B2EBF91BB27220FCE
:103FE000331F441F551F661F771F881F991F881C8A
:103FF000991CEE1FFF1FCC1FDD1FAA1FBB1F8A14B9
:104000009B04EC05FD05CE05DF05A007B10748F0D0
:104010008A189B08EC09FD09CE09DF09A00BB10B3A
:1040200021601A94E1F62EF49401AF01BE01CD0196
:10403000000C08950F93083090F0982F872F762F5B
:10404000652F542F432F322F22270850F4CF220FF1
:10405000331F441F551F661F771F881F991F0A951E
:10406000B2F70F91089597FB10F8169400080F937C
:10407000083098F00850232F342F452F562F672FE4
:10408000782F892F902DF4CF059497958795779564
:10409000679557954795379527950A95AAF70F91F4
:1040A00008952A0D3B1D4C1D5D1D6E1D7F1D801F3B
:1040B000911F08950024A7FD00942A0F301D401D74
:1040C000501D601D701D801D901D08952A193B090B
:1040D0004C095D096E097F09800B910B089500243E
:1040E000A7FD00942A1730054005500560057005AE
:1040F000800590050895A29FB001B39FC001A39FC2
:10410000700D811D1124911DB29F700D811D112410
:10411000911D0895FB01DC0102C001900D924150F8
:104120005040D8F70895DC0101C06D9341505040D4
:08413000E0F70895F894FFCFB9
:10413800000E060C040006FFFF0901A1010902098F
:1041480003150026FF007508950881020904090572
:10415800150026FF0075089508910209060907153C
:104168000026FF0075089504B102C0AF0ACC0ACE3C
:104178000AA90A00007C204B20000052204F203B57
:10418800200009022900010100E0320904000002B0
:1041980003000000092111010001223500070581F3
:1041A80003080004070502030800040012010002C6
:1041B80000000008EB0302240601010203010003CA
:1041C80000000000000000000000000000000000E7
:1041D8000000506F636B6574564E41004D617274F8
:1041E800696E000004030904313278787845460086
:0E41F800100020004000800000010002FF03C4
:00000001FF
