:100000003EC1000059C1000057C1000055C10000A9
:1000100053C1000051C100004FC100004DC100009C
:100020004BC1000049C1000047C1000045C10000AC
:1000300043C1000041C100003FC100003DC10000BC
:100040003BC1000039C1000037C1000035C10000CC
:1000500033C1000031C100002FC100002DC10000DC
:100060002BC1000029C1000027C1000025C10000EC
:1000700023C1000021C100001FC100001DC10000FC
:100080001BC1000019C1000017C1000015C100000C
:1000900013C1000011C100000FC100000DC100001C
:1000A0000BC1000009C1000007C1000005C100002C
:1000B00003C1000001C10000FFC00000FDC000003E
:1000C000FBC00000F9C00000F7C00000F5C0000050
:1000D000F3C00000F1C00000EFC00000EDC0000060
:1000E000EBC00000E9C00000E7C00000E5C0000070
:1000F000E3C00000E1C00000DFC00000DDC0000080
:10010000DBC00000D9C00000D7C00000D5C000008F
:10011000D3C00000D1C00000CFC00000CDC000009F
:10012000CBC00000C9C00000C7C00000C5C00000AF
:10013000C3C00000C1C00000BFC00000BDC00000BF
:10014000BBC00000B9C00000B7C00000B5C00000CF
:10015000B3C00000B1C00000AFC00000ADC00000DF
:10016000ABC00000A9C00000A7C00000A5C00000EF
:10017000A3C00000A1C000009FC000009DC00000FF
:100180009BC0000099C0000097C0000095C000000F
:1001900093C0000091C000008FC000008DC000001F
:1001A0008BC0000089C0000087C0000085C000002F
:1001B00083C0000081C000007FC000007DC000003F
:1001C0007BC0000079C0000077C0000075C000004F
:1001D00073C0000071C000006FC000006DC000005F
:1001E0006BC0000069C0000067C0000065C000006F
:1001F00063C000000C94931F0C944820080000007A
:10020000BE922449123EABAAAA2ABECDCCCC4C3E0B
:1002100000000080BEABAAAAAA3E00000000BF00FA
:100220000000803F0000000000084178D3BB4387F6
:10023000D1133D190E3CC3BD4282AD2B3E68EC820A
:1002400076BED98FE1A93E4C80EFFFBE01C4FF7F8F
:100250003F000000000007634236B79BD8A71A3959
:10026000685618AEBAAB558C1D3CB7CC5763BD6D04
:10027000EDFD753EF6177231BF000000803F11247E
:100280001FBECFEFCDBFDFE2DEBF13E2A0E0B0E2E2
:10029000EAE3F1E502C005900D92AE3AB107D9F755
:1002A0002CE2AEEAB3E201C01D92A037B207E1F73B
:1002B0000E94B7210C949B28A3CE80E00895089556
:1002C00081E08093C22308950F931F9309EA11E000
:1002D00028E030E042EB53E260E088E00E94CD1E6F
:1002E0001F910F9108951092C6231092C42381E0AC
:1002F0008093C223E9CF24E831E04EE851E264EC78
:1003000073E286EC93E267C02091622C3091632CFB
:10031000832F90E00397D9F4211119C08091662CA6
:100320009091672C8430910591F42EEA33E220936A
:10033000682C3093692C2FE531E020936C2C30939E
:100340006D2C80936A2C90936B2C81E0089580E053
:100350000895811107C06830710519F482EB93E2AA
:10036000BBD0B2CF08950895FF920F931F93CF9300
:10037000DF931F92CDB7DEB7FC018091C2238823A3
:1003800019F18FB78983F894F98098E02AEB33E26A
:10039000D901892F1D928A95E9F7D90101900D9213
:1003A0009A95E1F700E611E028E030E04AEB53E2ED
:1003B00060E087E80E94CD1E91E089278093C223E8
:1003C000FFBE8091C22389270F90DF91CF911F91AB
:1003D0000F91FF900895CF93DF93DC018091602C03
:1003E000982F907687FF56C0911139C08091612C6B
:1003F000863009F06DC0EA010E94CE17FC018285AB
:10040000813209F065C08091632C90E081329105C2
:1004100069F4CF0109968093682C9093692C8185AB
:100420002091662C3091672C90E010C0278530E039
:100430002817390709F04CC0C093682CD093692C59
:100440002091662C3091672C808991892817390773
:1004500008F4C90180936A2C90936B2C37C09032BA
:10046000B9F59091612C923029F0933041F09130A0
:1004700079F51AC0A093682CB093692C04C06093DE
:10048000682C7093692C81E090E080936A2C9093A3
:100490006B2C1FC09032E1F49091612C9A3041F0A6
:1004A0009B3051F09930A1F4F901DF91CF9109947B
:1004B0008091632C8C930AC08091662C9091672C5C
:1004C000892B31F48091622CFB01808381E001C093
:1004D00080E0DF91CF91089568E070E0F7C261504D
:1004E000710981099109D9F70895FF920F931F931C
:1004F000CF93DF93F82E84E080930506C8E0D0E820
:1005000000E114E08F2D8D2319F00093450602C001
:100510000093460660E570E080E090E0E0DF109335
:10052000060660E570E080E090E0D9DF10930506F4
:10053000D695C15039F7DF91CF911F910F91FF9060
:1005400008958F929F92AF92BF92CF92DF92EF92D7
:10055000FF920F931F93CF93DF934B015C0184E0D5
:1005600080930506C0E0D0E0C12CD12C90E8E92EA4
:10057000F12C00E114E0D501C4018C219D21AE21B4
:10058000BF21892B8A2B8B2B19F00093450602C0C3
:100590000093460660E570E080E090E0A0DF1093F5
:1005A000060660E570E080E090E099DF10930506B4
:1005B000F694E794D794C7942196C831D105D9F61B
:1005C000DF91CF911F910F91FF90EF90DF90CF902F
:1005D000BF90AF909F908F900895CF92DF92EF924F
:1005E000FF926A017B01880F880F880F7EDFC701A9
:1005F000B601FF90EF90DF90CF90A3CF8F929F92A4
:10060000AF92BF92CF92DF92EF92FF92CF93DF93A0
:100610008091080681FF06C061E070E080E090E014
:100620005EDFF6CF88E561DF80E180934506C8E1B3
:10063000812C912C90E8A92EB12CC12CD12C7601C3
:10064000D4E060E570E080E090E049DFD0930606FA
:1006500060E570E080E090E042DF8091080681FF75
:1006600004C0C828D928EA28FB28D0930506B694E8
:10067000A79497948794C15021F7C701B601DF91E1
:10068000CF91FF90EF90DF90CF90BF90AF909F9071
:100690008F900895CF93C5E08FEF27DFC150E1F72A
:1006A000CF9108959ACFE82FE695E695E69540E23A
:1006B000E49FF0011124FA5F877021E030E0A90186
:1006C00002C0440F551F8A95E2F7662311F0458357
:1006D000089546830895E82FE695E695E69540E26D
:1006E000E49FF0011124FA5F613059F4877021E032
:1006F00030E0A90102C0440F551F8A95E2F74183FB
:10070000089561110AC0877021E030E0A90102C09C
:10071000440F551F8A95E2F74283089580E090E0E8
:10072000019680342FE19207D9F708958091C9236B
:1007300008958091C823089581E08093C823089587
:100740001092C823F8940E94F3176091A20060648D
:1007500082EA90E00E94F11AEEEFF0E40994BF9271
:10076000CF92DF92EF92FF920F931F93CF93DF937D
:10077000CCECDBE285E0888387E089838BE08A83A9
:1007800086E08C8300E016E080E2F801818361E07E
:1007900087E0A1DF61E08A819EDF61E08C819BDFE1
:1007A00061E0888180DF60E089817DDF60E08A81AF
:1007B0007ADF61E08C8177DFC7ECDBE289E0888358
:1007C0008CE189838DE18A8386E18B8388E0E82E42
:1007D000EC8292E0F92EF092210661E08CE17BDF61
:1007E00061E08A8178DF61E08C8175DF60E08B8178
:1007F00072DF61E0888157DF60E0898154DF60E06B
:100800008A8151DF61E08C814EDFA0E8B6E0BB2435
:10081000B3941196BC9211971196FC921197E0E651
:10082000F6E0F18220E4C22E26E0D22E80E8E60136
:100830008983F982B982D4E01196DC9311971196DD
:10084000EC921197E182D183B1821596DC931597D2
:10085000D683E6821596EC92B5824AED5FEF60E0B2
:1008600087EC9BE257D648E250E067E087EC9BE2DA
:1008700051D640E052E96BE087EC9BE24BD640E07A
:100880005FEF68E087EC9BE245D640E252EA69E020
:1008900087EC9BE23FD644E15AE26CE087EC9BE2B6
:1008A00039D649E85DE96DE087EC9BE233D640E05C
:1008B0005BE36EE087EC9BE22DD644E15AE26FE009
:1008C00087EC9BE227D649E85DE960E187EC9BE293
:1008D00021D648ED50E061E187EC9BE21BD641E078
:1008E00050E066E187EC9BE215D640E050E06DE118
:1008F00087EC9BE20FD640E050EC65E187EC9BE291
:1009000009D64AED5FEF60E08CEC9BE203D648E24B
:1009100050E067E08CEC9BE2FDD540E052E96BE0F3
:100920008CEC9BE2F7D540E05FEF68E08CEC9BE25B
:10093000F1D540E252EA69E08CEC9BE2EBD544E170
:100940005EE16CE08CEC9BE2E5D541EB53E96DE0B8
:100950008CEC9BE2DFD540E05BE36EE08CEC9BE24D
:10096000D9D541E050E066E18CEC9BE2D3D540E084
:1009700050E06DE18CEC9BE2CDD540E050EC65E1C0
:100980008CEC9BE2C7D580E1F8018183F60181837D
:10099000F801F282D18386837DDEC0DE44E551E03A
:1009A00060E070E082E07EDE41E054E868E070E004
:1009B00081E078DEB092C923DF91CF911F910F9132
:1009C000FF90EF90DF90CF90BF900895E1EDFBE2B4
:1009D00091E09083818382958F708283CF01C4CC14
:1009E000FC01108284E0818381E06F3F09F480E0A4
:1009F000828363838DE08483158294E69683878364
:100A0000EAECF3E280E081938F5F8436E1F78FEFC9
:100A10008093CA238FEC80932D240895CF93109256
:100A2000D12BFC01C181C13061F020F0C23079F4DA
:100A300004D50DC082E08093D22B83E08093D32B2A
:100A400006C0FC01828137D18C278093D22B8DE0A8
:100A50008093D82B81ED9BE2CF9186CCE1EDFBE238
:100A600010821182CF0180CCFC012181328132279A
:100A70002327322724363105D8F484E690E0821B00
:100A8000930B8830910510F087E090E0F901E65370
:100A9000FC4DA2EDBBE290E021912D939F5F981752
:100AA000D8F380958295880F807E8093D12B03C0E8
:100AB00086E08093D12B81ED9BE256CCE1EDFBE209
:100AC00011928BE2E93DF807D9F70895CF93DF93B0
:100AD000EC01F4DF8881982F92959F709F3021F46C
:100AE000CE01DF91CF9184C39A3049F468E081ED63
:100AF0009BE276DF81ED9BE2DF91CF9135CC9B309D
:100B000021F4CE01DF91CF91AFCF9D3021F4CE0102
:100B1000DF91CF91A3CF9C3021F4CE01DF91CF9113
:100B20007DCF853019F4DF91CF9106CEDF91CF9143
:100B30004DCF6150710981099109D9F70895DF926C
:100B4000EF92FF920F931F93CF93DF93FC01A02F9F
:100B5000D22EE32EF42ED52FC62FB72F202F312FD4
:100B60004D2D5E2D6F2D7D2F8C2F9B2F00E20E942F
:100B7000342820832A2F312F4D2D5E2D6F2D7D2F70
:100B80008C2F9B2F08E10E94342821832A2F312F9C
:100B90004D2D5E2D6F2D7D2F8C2F9B2F00E10E9400
:100BA000342822832A2F312F4D2D5E2D6F2D7D2F3E
:100BB0008C2F9B2F08E00E9434282383A483DF918D
:100BC000CF911F910F91FF90EF90DF9008959F922A
:100BD000AF92BF92CF92DF92EF92FF920F931F934B
:100BE000CF93DF937C01DC012C9130E040E050E0BA
:100BF00060E070E080E090E000E20E941928D22ED0
:100C0000132FD42FC52FB62FA72FC82EB92EF7011B
:100C1000218130E040E050E060E070E080E090E072
:100C200008E10E941928D22A132BD42BC52BAB2EF6
:100C3000A62A9A2E972AFC2DF82BEB2DE92BD7010B
:100C400014968C911497D82A12962C91129730E012
:100C500040E050E060E070E080E090E000E10E9461
:100C60001928D22A132BD42BC52BCA2CC62AB92C4F
:100C7000B72AF82BE92B13962C9130E040E050E096
:100C800060E070E080E090E008E00E9419282D29E3
:100C9000312B4D2B5C2B6C297B298F2B9E2BDF91CD
:100CA000CF911F910F91FF90EF90DF90CF90BF9069
:100CB000AF909F9008959BEF980F81E0953008F4D6
:100CC00080E00895FC0186819781982789279827DD
:100CD000009739F08131F7E29F0728F080E197E231
:100CE000089581E090E00895E0E8F6E081E08583F2
:100CF00082E08583A0E6B6E088E016968C9316978E
:100D0000858384E015968C9386830895E0E8F6E069
:100D100081E0868382E08683A0E6B6E088E01596CF
:100D20008C931597858384E016968C93868308951B
:100D3000E0E8F6E081E0858382E08583A0E6B6E026
:100D400088E016968C931697868384E015968C938C
:100D500085830895E0E8F6E081E0868382E086837B
:100D6000A0E6B6E088E015968C931597868384E01C
:100D700016968C9385830895E0E8F6E081E08683FB
:100D800082E08683A0E6B6E088E015968C931597FE
:100D9000868384E015968C9386830895873069F066
:100DA00028F4853041F0863039F00895883031F0EC
:100DB000893029F00895E0CFA9CF96CFB9CFCACF17
:100DC000FF920F931F93CF93DF932115EBEB3E0719
:100DD000EEEE4E07E0EA5E076105710581059105BB
:100DE00009F0B0F4205438464F41524A6F4F7F4FBC
:100DF0008F4F9F4F89019A01AB01BC0187EC9BE2A9
:100E000028D482E08093650680E88093460615C06A
:100E1000205C3749404E5D4561097109810991099E
:100E200089019A01AB01BC0187EC9BE212D482E0FC
:100E30008093660680E880934506DF91CF911F91ED
:100E40000F91FF900895873059F028F48530E1F034
:100E5000863099F00895883051F0893071F0089506
:100E600088E08093660684E0809365060895809309
:100E7000660684E080936506089588E080936506A1
:100E800084E080936606089588E08093650684E098
:100E90008093650608955F926F927F928F929F92E2
:100EA000AF92BF92CF92DF92EF92FF920F931F9378
:100EB000CF93DF93A22F532E3A014B01D82FC92F86
:100EC000B02FE1EDFBE200E10E94342821832A2FBC
:100ED000352DA301B4018D2F9C2F08E00E943428EA
:100EE0002283A3839501A601B7018B2F912F00E1E7
:100EF0000E94342824839501A601B7018B2F912FDE
:100F000008E00E9434282583A6828DE08783108222
:100F1000CF01DF91CF911F910F91FF90EF90DF9064
:100F2000CF90BF90AF909F908F907F906F905F9089
:100F30001BCA2F923F924F925F926F927F928F9235
:100F40009F92AF92BF92CF92DF92EF92FF920F9358
:100F50001F93CF93DF93CDB7DEB72C97CDBFDEBF06
:100F60003C014CDB1B821C82412C512C812C912C8E
:100F700019821A82212C312C4B815C814615570530
:100F8000E1F03CDB5B016C019B01A60160E070E0DD
:100F900080E090E052016401E980FA8081010E94C2
:100FA000502829014A0169837A831C012B813C81E5
:100FB0002F5F3F4F2B833C83DFCF9A0140E050E00F
:100FC00060E070E0CB012D833E834F8358876987B3
:100FD0007A878B879C875901C12CD12CE12CF12C6D
:100FE00000E010E09201A40169817A81C1010E94B0
:100FF0007C272C96CDBFDEBFDF91CF911F910F9143
:10100000FF90EF90DF90CF90BF90AF909F908F9028
:101010007F906F905F904F903F902F9008959F9298
:10102000AF92BF92CF92DF92EF92FF920F931F93F6
:10103000CF93DF93EC01962EE0E6F6E084E0858323
:1010400088E08583CE0175DF59016A017B018C013F
:10105000892DF9DE68E070E080E090E06ADDCE0185
:1010600068DF40585F4F6F4F7F4F8F4F9F4F0E94F9
:101070006528DF91CF911F910F91FF90EF90DF9046
:10108000CF90BF90AF909F9008959F92AF92BF92E4
:10109000CF92DF92EF92FF920F931F93CF93DF9344
:1010A000EC01962E81E080934506E0E6F6E084E0D0
:1010B000858388E08583CE013CDF59016A017B018D
:1010C0008C01892DC0DE68E070E080E090E031DDC9
:1010D000CE012FDF40585F4F6F4F7F4F8F4F9F4F95
:1010E0000E946528DF91CF911F910F91FF90EF90A3
:1010F000DF90CF90BF90AF909F9008953F924F9216
:101100005F926F927F928F929F92AF92BF92CF9297
:10111000DF92EF92FF920F931F93CF93DF93522EA4
:10112000632E742E852E962E172F482E392EE5010C
:10113000802F34DE252D362D472D582D692D712F0A
:10114000842D932D3DDE81E08093460687EC9BE263
:10115000BAD1F12C602FC70162DF288339834A831B
:101160005B83602FC70191DFF601208331834283C7
:101170005383252D362D472D582D692D712F842D04
:10118000932D2F3F3A4B4E4E504A61057105810514
:101190009105E1F0D8F088809980AA80BB80940105
:1011A000A50160E070E080E090E0405851096109DD
:1011B0007109810991090E94D82749015A0180E8E3
:1011C000A80EB11C88829982AA82BB82DF91CF913E
:1011D0001F910F91FF90EF90DF90CF90BF90AF9055
:1011E0009F908F907F906F905F904F903F90089569
:1011F0002F923F924F925F926F927F928F929F9227
:10120000AF92BF92CF92DF92EF92FF920F931F9314
:10121000CF93DF93CDB7DEB72897CDBFDEBF7C017C
:10122000FC01008183DA811107C083E08093D22B17
:1012300081ED9BE299D86FC00F70802F3CDD882331
:1012400049F081E08093D12B0093D22B81ED9BE27A
:101250008BD861C0C7010196BADC322E132F2A0148
:101260003B014C01C7012EDDE82E232D312FA201B9
:10127000B301C401AFEF0E9459282F3F3B4B404AB6
:1012800055466140710581059105D1F0C8F0232DC7
:10129000312FA201B301C401A0E00E94772811F010
:1012A00085E001C084E08093D12B032D9201A3013E
:1012B000B40182ED9BE243DC81ED9BE255D82BC06B
:1012C0001D821E821F82188619821A821B821C822E
:1012D000CE0101965C01FE0135966F01232D312F61
:1012E000A201B301C4010ADF09811A812B813C816B
:1012F0008D819E81AF81B8851C012D015801690146
:10130000E12CF12C00E010E09C01A20160E070E013
:1013100080E090E0C0DD2896CDBFDEBFDF91CF91A9
:101320001F910F91FF90EF90DF90CF90BF90AF9003
:101330009F908F907F906F905F904F903F902F90F5
:1013400008956F927F928F929F92AF92BF92CF92A9
:10135000DF92EF92FF920F931F93CF93DF9340584A
:1013600051096109710981099109E8EEAE2EF3E096
:10137000BF2EC12CD12CE12CF12C00E010E00E94FA
:10138000FE26AA24AA94AAE0BA2E0E945127490157
:101390005A016B017C01E22F192DD42FCB2DB62FD2
:1013A000FD2D3C01A0E00E9477284CF40E94D82734
:1013B000E22F132FD42FC52FB62FF72F3C012E2F3E
:1013C000312F4D2F5C2F6B2F7F2FC30108E10E941F
:1013D00034282093D22B2E2F312F4D2F5C2F6B2FA3
:1013E0007F2FC30100E10E9434282093D32B2E2F9E
:1013F000312F4D2F5C2F6B2F7F2FC30108E00E94F0
:1014000034282093D42BE093D52B9401A501B60169
:10141000C7010FE30E9434282093D62BDF91CF9190
:101420001F910F91FF90EF90DF90CF90BF90AF9002
:101430009F908F907F906F900895CF93DF9340E5BA
:1014400054E060E070E082E02DD960E07AE688E167
:1014500090E06FDBD3D8DC01CB019C01AD0160E0F3
:1014600070E080E090E06DDF40918B2350918C2301
:1014700060918D2370918E2382E014D960E878E327
:1014800081E090E0DF91CF9154CB615071098109E7
:101490009109D9F70895E82FE695E695E69540E29B
:1014A000E49FF0011124FA5F877021E030E0A90188
:1014B00002C0440F551F8A95E2F7662311F0458359
:1014C0000895468308950F931F93CF93DF93EC0104
:1014D00001E010E08B81E82FE695E695E69540E285
:1014E000E49FF0011124FA5F20858770A80102C0F3
:1014F000440F551F8A95E2F7CA01822331F461E057
:1015000070E080E090E0C1DFE5CFDF91CF911F91E7
:101510000F910895CF92DF92EF92FF920F931F9356
:10152000CF93DF93EC01F62E6A0160E570E080E076
:1015300090E0ABDF61E08981AEDF60E570E080E0E4
:1015400090E0A3DF60E08981A6DF60E570E080E0E5
:1015500090E09BDF61E089819EDF60E570E080E0E4
:1015600090E093DF60E0898196DF60E0888193DF1F
:1015700060E08A8190DF60E570E080E090E085DFE8
:1015800061E0898188DF60E570E080E090E07DDFE8
:1015900060E0898180DF18E000E88F2D802321F052
:1015A00061E08A8178DF03C060E08A8174DF60E5F2
:1015B00070E080E090E069DF61E089816CDF60E5E8
:1015C00070E080E090E061DF60E0898164DF069593
:1015D000115019F710E1E12C90E8F92EC6018E2187
:1015E0009F21892B21F061E08A8155DF03C060E0F3
:1015F0008A8151DF60E570E080E090E046DF61E0E5
:10160000898149DF60E570E080E090E03EDF60E0E6
:10161000898141DFF694E794115001F761E08881F8
:101620003ADF60E570E080E090E02FDF61E08981E3
:1016300032DF60E570E080E090E027DF60E08981E4
:10164000DF91CF911F910F91FF90EF90DF90CF909E
:1016500022CF2F923F924F925F926F927F928F9202
:101660009F92AF92BF92CF92DF92EF92FF920F9331
:101670001F93CF93DF93CDB7DEB76197CDBFDEBFAA
:101680004C0169017A016A8379839801A601B70147
:101690008A8199810E9431240E94D02428E73AE966
:1016A00044E550E40E941B259B01AC016DE372E50B
:1016B00081E092E40E94C1220E94C823862F90E01C
:1016C0008D879E8721E030E001C0220F6A95EAF7FE
:1016D00058010A81198130E040E050E060E070E09C
:1016E00080E090E00E94FE2619012A013B018A83D6
:1016F0009B83211530424C4B5E4B61057105810582
:10170000910531F028F023E02C8784E0898304C020
:1017100092E09C87E2E0E98330E8A32E4AEBB42E06
:101720005CE8C52EDD24D394E12CF12C00E010E020
:10173000298130E040E050E060E070E080E090E03F
:101740000E94FE26298B3F874C835D836E837F83B7
:101750008887998759016A017B018C019101A20157
:10176000B3018A819B810E947C272A873B87910154
:10177000A201B3018A819B810E947A2708E10E941D
:10178000192808850E947C272B833A838901242FFE
:10179000352F412E522E632E7724C80199278F872B
:1017A000988B9981923021F0943021F013E003C09E
:1017B00011E001C012E0EC854E2F50E0486D5F6FE4
:1017C00060E0C401A7DE4A855B855695542F442707
:1017D000579547958D859E8524E0880F991F2A95FA
:1017E000E1F7482B592B24E0129FC0011124482B0C
:1017F000592B6CE0C4018EDEA2016DE0C4018ADECB
:1018000040E05F856EE0C40185DE48E252EA69E0AF
:10181000C4016196CDBFDEBFDF91CF911F910F91C3
:10182000FF90EF90DF90CF90BF90AF909F908F9000
:101830007F906F905F904F903F902F906BCECF93A3
:10184000DF93CDB7DEB76197CDBFDEBF89838CEF65
:101850008A8385E48B8382E58C838D839FE49E83DA
:101860008F83688749871A861B861C861D868BE0B6
:101870008E878EE08F87888B8FE0898B61E170E0A7
:10188000CE0101960E94BB226196CDBFDEBFDF91E3
:10189000CF9108952F923F924F925F926F927F92D5
:1018A0008F929F92AF92BF92CF92DF92EF92FF9270
:1018B0000F931F93CF93DF93CDB7DEB72A97CDBF9A
:1018C000DEBF8BD6863009F446C018F4813041F073
:1018D00030C1893009F46AC08A3009F421C129C1B4
:1018E000EAD4811136C07CD66B017C0183D68A8311
:1018F00091D6882331F08983853128F024E129832A
:1019000002C081E0898391D68C019A81911104C033
:1019100040E06FEF84E010C10115110521F440E0B3
:101920006FEF85E009C1093C110520F0402F6FEFF2
:1019300086E002C18BD60817190729F087D6402FF9
:10194000682F8DE0F9C029814A81C701B60120D1F5
:1019500009C14AEFE3C0AFD4882311F040EFDEC0E5
:1019600080E0C6D76FEF7FEFCB01C5D745E064E6D7
:1019700070E08AEC93E20E9483150E94E2142A969A
:10198000CDBFDEBFDF91CF911F910F91FF90EF9000
:10199000DF90CF90BF90AF909F908F907F906F908F
:1019A0005F904F903F902F900C94061584D4811136
:1019B000B4C016D62B013C011DD688872BD68823B0
:1019C00031F08987853128F0E4E1E98702C0F1E050
:1019D000F9872BD62885222309F49ACF009711F096
:1019E000482F0EC060E070E0CB013BD62F3F3F4F49
:1019F0004F4F5F4F6F4F71058105910521F04BE00F
:101A00006FEF81E099C0CBD6590149835A836B832C
:101A10007C838C01C9D62D833A874E835F83962EB3
:101A2000872E382E292EC5D66B017C01DFD6E82FF4
:101A3000950149815A816B817C81C801A0E00E9497
:101A4000772811F44EEF1FC0950149815A816B81AF
:101A50007C81C80121153C4B404A554661407105C7
:101A60008105910519F010F04EEF23C02D813A85C4
:101A70004E815F81692D782D832D922DA0E00E94EB
:101A8000772821F44DEF6FEF89E056C02D813A851C
:101A90004E815F81692D782D832D922D21153C4B30
:101AA000404A5546614071058105910529F020F0B5
:101AB0004DEF6FEF88E040C0D701C6010197A10943
:101AC000B1098F3F9F4FA105B10520F04C2D6FEF5D
:101AD00080E132C0E11104C040E06FEF81E12CC031
:101AE000EF93FF92EF92DF92CF922F923F928F92DD
:101AF0009F928F818F939E819F93EA85EF93FD81C3
:101B0000FF93C980DA80EB80FC8029854885C3017A
:101B1000B20162D0CDBFDEBF25C04CEF6FEF07C072
:101B2000CAD34BEF6FEF811102C08EE005C082E097
:101B300003C0482F6EEE87E02A96CDBFDEBFDF914F
:101B4000CF911F910F91FF90EF90DF90CF90BF90BA
:101B5000AF909F908F907F906F905F904F903F904D
:101B60002F906DCE2A96CDBFDEBFDF91CF911F9112
:101B70000F91FF90EF90DF90CF90BF90AF909F902C
:101B80008F907F906F905F904F903F902F9008952F
:101B9000AF92BF92CF92DF92EF92FF920F931F937B
:101BA000CF93DF936B017C01B42EA22EE80181E07C
:101BB00080932E246ED60A2D2B2DAE01C701B601BF
:101BC00042D3DF91CF911F910F91FF90EF90DF9063
:101BD000CF90BF90AF9008952F923F924F925F9217
:101BE0006F927F928F929F92AF92BF92CF92DF922D
:101BF000EF92FF920F931F93CF93DF93CDB7DEB792
:101C00002A97CDBFDEBF2B013C01842E922E8F8DF3
:101C1000898398A19A8389A18B839AA19C838BA1A4
:101C20008D839CA19E838DA18F839EA198878FA178
:101C3000898798A59A8739A42AA489E080932E24BD
:101C400028D68BA58F932F923F928A858F93998563
:101C50009F9388858F939F819F938E818F939D8182
:101C60009F938C818F939B819F938A818F9399817E
:101C70009F93292D482DC301B20165D2CDBFDEBF90
:101C80002A96CDBFDEBFDF91CF911F910F91FF90BC
:101C9000EF90DF90CF90BF90AF909F908F907F900C
:101CA0006F905F904F903F902F90089510922E2448
:101CB00008952F923F924F925F926F927F928F92F0
:101CC0009F92AF92BF92CF92DF92EF92FF920F93CB
:101CD0001F93CF93DF93CDB7DEB76597CDBFDEBF40
:101CE000E090E921E986F090EA21FA860091EB2163
:101CF0000B871091EC211C872091ED212D873091CD
:101D0000EE213E872090EF213090F0214090F1218C
:101D10004091F2214D8B5091F3215C8BB091F421D5
:101D2000F091F521E091F621E090F721EF86F09017
:101D3000F821F88A8090D2219090D321A090D421CC
:101D4000B090D521611571058105910509F48EC00A
:101D50007B018C0120E030E0A9016983FA820B83CA
:101D60001C832D833E834F8358879401A50160E037
:101D700070E080E090E0AFEF0E945928522E632E71
:101D8000742E852E962E798B8A8B9B8B29813A8196
:101D9000A80160E070E080E090E0A52CB62CC72C94
:101DA000D82CE92CF9880A891B890E946E2809F42D
:101DB00065C0242D3D894C895B2F6F2F7E2F8F8529
:101DC0009889A984BA84CB84DC84ED84FE84810163
:101DD0000E946528E8EEAE2EF3E0BF2EC12CD12C78
:101DE000E12CF12C00E010E00E94FE26A52CB62C80
:101DF000C72CD82CE92CF9880A891B890E947C27DA
:101E0000A980BA80CB80DC80E12CF12C00E010E0CE
:101E10000E94FE2629013A014B018F879983A8EE83
:101E2000AA2EB3E0BB2EC12CD12C29853A854B8537
:101E30005C856D857E85C1010E94FE2659016A017F
:101E40007B018C019201A301B4018F8599810E94CD
:101E5000502818EEA12E03E0B02EC12CD12CE12C7D
:101E6000F12C00E010E00E947C2710C029853A8503
:101E70004B855C856D857E85C10108C0242D3D891B
:101E80004C895B2F6F2F7E2F8F8598896596CDBFEC
:101E9000DEBFDF91CF911F910F91FF90EF90DF9008
:101EA000CF90BF90AF909F908F907F906F905F90FA
:101EB0004F903F902F900895EDECF1E21386148639
:101EC000158616868FEF8787808B818B828B838B1D
:101ED000848B858B868B178A108E0895EDECF1E24A
:101EE00015A68FEF9FEFA0E0B0E083879487A587CA
:101EF000B687178A108E1582168217821086108276
:101F0000138E118E128E08952F923F924F925F92F0
:101F10006F927F928F929F92AF92BF92CF92DF92F9
:101F2000EF92FF920F931F93CF93DF93CDB7DEB75E
:101F30006197CDBFDEBF2B013C01E091E921F0911B
:101F4000EA21B091EB218091EC2189838091ED21F0
:101F50008A838091EE218B838091EF218C83809105
:101F6000F0218D838091F1218E838091F2218F83E6
:101F70008091F32188878091F42189878091F521D0
:101F80008A878091F6218B878091F7218C878091B9
:101F9000F8218D878090D2219090D321A090D421D8
:101FA000B090D521411451046104710409F45EC05C
:101FB0009401A50160E070E080E090E0AFEF0E9446
:101FC000592819014A01698B788B8E879F87630195
:101FD00052019201A60160E070E080E090E05101C2
:101FE0006401E988F8880E851F850E946E2809F42F
:101FF00045C09F014B2F59816A817B818C819D81D6
:102000000E9431246B017C01C301B2010E94F423C0
:102010002B013C019101A40169897889C8010E94C2
:1020200031249B01AC01C301B2010E9426234B0164
:102030005C012E813F81488559856A857B858C8529
:102040009D850E943124A70196010E942623A501A7
:1020500094010E947E259B01AC01C701B6010E943C
:102060001B250E94CA250E94932310C09F014B2F5D
:1020700059816A817B818C819D8108C02E813F813D
:10208000488559856A857B858C859D856196CDBF00
:10209000DEBFDF91CF911F910F91FF90EF90DF9006
:1020A000CF90BF90AF909F908F907F906F905F90F8
:1020B0004F903F902F900895DF92EF92FF920F93F1
:1020C0001F93CF93DF93CDB7DEB76497CDBFDEBF4D
:1020D000D82EF5D3F82EE92EF7D3182F092FD9D300
:1020E000D9828CEC8A83EDECF1E2818192812381AB
:1020F00034813B832C839D838E83838594859F834A
:102100008887878989871A86EB86FC861D860E87D5
:102110001F87188A8BE0898B8EE08A8B8B8B8FE0F0
:102120008C8B64E170E0CE010196D0D46FD4D6DE02
:102130006496CDBFDEBFDF91CF911F910F91FF90CD
:10214000EF90DF9008955F926F927F929F92AF928F
:10215000BF92CF92DF92EF92FF920F931F93CF9394
:10216000DF93CDB7DEB79988BA89AB89FC89ED8951
:102170006E885F89388D7D8C5090FA21511054C043
:102180000F2EF9E05F2EF02D5092CD216093CE21DD
:102190007093CF218093D0219093D121698D7A8D36
:1021A0008B8D9C8D6093D2217093D3218093D42109
:1021B0009093D5214093D7212093D6215092E821A6
:1021C000A092E921B092EA21C092EB21D092EC21B9
:1021D000E092ED21F092EE210093EF211093F02197
:1021E0009092F121B093F221A093F321F093F42186
:1021F000E093F5216092F6215093F7213093F82176
:102200007092F92171E0771619F084E89FE002C01E
:1022100089E59EE08093E6219093E7214DDE1092C0
:10222000FB2181E08093FA21DF91CF911F910F91E3
:10223000FF90EF90DF90CF90BF90AF909F907F90F6
:102240006F905F9008950F93CF933091FA213111E1
:102250002FC0DC01CB01C1E0C093CD218093CE2102
:102260009093CF21A093D021B093D12160E070E072
:102270004093D2215093D3216093D4217093D521E0
:102280002093D7210093D621C093E82181E1E9EE84
:10229000F1E2DF011D928A95E9F781E393E18093F2
:1022A000E6219093E72108DE1092FB21C093FA21EA
:1022B000CF910F9108958091FA21089581E0809344
:1022C000FB2108952F923F924F925F926F927F92DF
:1022D0008F929F92AF92BF92CF92DF92EF92FF9236
:1022E0000F931F93CF93DF93CDB7DEB76C97CDBF1E
:1022F000DEBF8091FA21882309F459C1809183239C
:1023000090918423A0918523B09186238D8B9E8B01
:10231000AF8BB88F8091872390918823A0918923D8
:10232000B0918A23898F9A8FAB8FBC8FDE01519633
:10233000A98BBA8B6091D8217091D9218091DA2133
:102340009091DB218090D2219090D321A090D42134
:10235000B090D521681579058A059B0508F027C13D
:102360002091FB21222319F08FE0A6DE20C1E0910D
:10237000E621F091E72109952093DC213093DD21BE
:102380004093DE215093DF216093E0217093E1219F
:102390008093E2219093E32162D34090DC2150901E
:1023A000DD216090DE217090DF218090E02190900F
:1023B000E121F090E2211091E3219201A301B40107
:1023C0008F2D912FAFEF0E9459282F3F3B4B404A52
:1023D0005546614071058105910511F008F057C01F
:1023E0008D899E89AF89B88D8D879E87AF87B88B81
:1023F000898D9A8DAB8DBC8D89879A87AB87BC8779
:10240000DE011D96AB8BBC8B1E01B9E02B0E311C7F
:10241000EB89FC899191EB8BFC8B8091D7218923EF
:1024200039F11D821E821F82188619821A821B8230
:102430001C828091FB21811125C09E012F5F3F4F9F
:102440005901CE0105966C01E090D621D1010C9185
:102450009201A301B4018F2D912F0E947E08298142
:102460003A814B815C816D817E818F8198858DD28F
:10247000BFEF2B1A3B0AEB89FC8929893A89E217BD
:10248000F30731F68091FB218823A9F06DCF9201EB
:10249000A301B4018F2D912F21153C4B404A554685
:1024A000614071058105910509F010F489E001C0D2
:1024B00088E002DE7CC09091D72121E091FF20E0EE
:1024C00081E092FF80E0820F292F2170820F21E0AE
:1024D00093FF20E0820FFDD14090D8215090D92168
:1024E0006090DA217090DB218090D2219090D321EE
:1024F000A090D421B090D521882359F0D501C401F2
:102500000197A109B109481659066A067B0609F028
:1025100040C0B1E08B1A9108A108B1082091CE21EA
:102520003091CF214091D0215091D1216091E4216F
:102530007091E52181E0481459046A047B0408F491
:1025400080E081956BD2A5D1481459046A047B04BC
:1025500018F0C4DCABDB09C08091E4219091E52147
:1025600001968093E4219093E5218091D821909168
:10257000D921A091DA21B091DB210196A11DB11DD5
:102580008093D8219093D921A093DA21B093DB21B5
:102590000EC0EFEF4E1A5E0A6E0A7E0A4092D821F4
:1025A0005092D9216092DA217092DB21C3CE6C96D1
:1025B000CDBFDEBFDF91CF911F910F91FF90EF90C4
:1025C000DF90CF90BF90AF909F908F907F906F9053
:1025D0005F904F903F902F900895809131240895FF
:1025E0006091322470913324809134249091352469
:1025F0000C94ED268091222890912328079718F0BB
:102600008091362401C080E09FEF980F9F3008F042
:1026100080E008958091222890912328089718F04F
:1026200080913724089580E0089580912228909128
:1026300023280B9740F080913824909139249827D3
:1026400089279827089580E090E0089580912228B6
:10265000909123280A9765E070E00E94D926CB016B
:1026600008958F929F92AF92BF92CF92DF92EF9296
:10267000FF920F931F93CF93DF939B01AC01A5E0D3
:10268000B0E00E94F4266B017C01DC01CB010A96CC
:10269000A11DB11DFC01E05DFB4D208130E040E05B
:1026A00050E060E070E080E090E000E20E941928D5
:1026B000B22E132FD42FC52F962EA72EF82FE92F29
:1026C000D701C6010B96A11DB11DDC01A05DBB4D5C
:1026D0002C9130E040E050E060E070E080E090E07D
:1026E00008E10E9419282B29132BD42BC52B962ADD
:1026F000872E8A28F82BE92BB701A601425F5F4F8E
:102700006F4F7F4F405D5B4DDA01BC90B22AB7013D
:10271000A601445F5F4F6F4F7F4F405D5B4DDA0115
:102720002C9130E040E050E060E070E080E090E02C
:1027300000E10E941928B22A132BD42BC52BA92CF7
:10274000A62A982C972AF82BE92BB701A601435FFC
:102750005F4F6F4F7F4FCA01805D9B4DDC012C9115
:1027600030E040E050E060E070E080E090E008E0C1
:102770000E9419282B29312B4D2B5C2B6A29792992
:102780008F2B9E2BDF91CF911F910F91FF90EF9098
:10279000DF90CF90BF90AF909F908F90089561E0B1
:1027A00070E080E090E05DCF62E070E080E090E07B
:1027B00058CF80912228909123284C9798F020910F
:1027C000492460914A24862F90E0A0E0B0E0BA2F1F
:1027D000A92F982F8827A22B20914B24BC01CD0133
:1027E000622B089560E070E0CB010895809122286B
:1027F000909123284D9730F080914C249FEF980FB3
:10280000923008F080E00895833F23E0920710F0B3
:1028100082EF93E08093222890932328089580E309
:1028200094E2089582EF93E00895EAE1FCE290E4F7
:10283000DF011D929A95E9F79FEF908381838DE0E8
:1028400082838AE0838384E08093262808958091A0
:102850001A2C8F3FE1F480911B2C8430A1F020F4DE
:10286000833099F42BDD22CA853059F0873069F422
:1028700060E48AE19CE20E94F00489E080932628CB
:1028800008950C949C038EE003C087E001C081E0B2
:10289000CCCF8DE090E0809343239093442310921B
:1028A000452310924623EBE3F3E28FEF808381838D
:1028B000828383838483858386838783089580913D
:1028C000432390914423089580914523909146237A
:1028D0000895209143233091442396E0899F200D51
:1028E000311D112481E02B33314008F080E0089540
:1028F0008093FC210895ECEFF1E29183828373834E
:1029000064830895ECEFF1E2958386830895DF9266
:10291000EF92FF920F931F93CF93DF93A22FD32EAB
:102920007A01162FD72FC82FB92FECEFF1E200E272
:102930000E94342820872A2F3D2DA701612F7D2F4B
:102940008C2F9B2F08E10E94342821872A2F3D2DB0
:10295000A701612F7D2F8C2F9B2F00E10E9434282F
:1029600022872A2F3D2DA701612F7D2F8C2F9B2F92
:1029700008E00E9434282387A487DF91CF911F911C
:102980000F91FF90EF90DF900895CF93DF93A5E430
:10299000B3E2ED91FC9111973196ED93FC93C3E472
:1029A000D3E2A881B981FD01E450FE4D808371839B
:1029B0006283438334831696A883B9832583DF918A
:1029C000CF9108952091432330914423F901E4509D
:1029D000FE4D4DE040838EE081838AE08283C90111
:1029E000049680934323909344234383AC014F7315
:1029F0005527452B51F42B5F3F4F209343233093B2
:102A00004423FC01E450FE4D10820895609143235D
:102A1000709144238CEF91E20C94BB220F931F938F
:102A2000CF93DF938B01CCEFD1E28883CA01B90148
:102A300062DFC80167DF809145238F83EBE3F3E218
:102A400020813181428153816481758186819781A2
:102A50005EDFB8DFDF91CF911F910F91D7CFFF924B
:102A60000F931F93CF93DF93F22E032F142FD52FA5
:102A7000C62FB72FF82FE92F20913B2330913C230D
:102A800040913D2350913E2360913F23709140231C
:102A90008091412390914223AFEF0E94772881F4E7
:102AA000F0923B2300933C2310933D23D0933E238D
:102AB000C0933F23B0934023F0934123E0934223FC
:102AC000DF91CF911F910F91FF900895CF93DF93E6
:102AD0006B3321E0720718F4D62FC72F02C0DBE357
:102AE000C1E010924323109244234D2F5C2FBC0170
:102AF0008CEF91E20E949228D0934323C093442309
:102B0000DF91CF9108950F931F93CF93DF93042FFD
:102B100010E02BE331E0E901C01BD10B6C177D07FE
:102B200008F4EB011092432310924423AE01BC0140
:102B3000C80184509E4D0E949228C00FD11FC0939F
:102B40004323D0934423DF91CF911F910F91089598
:102B500008950895089508950895CF93DF931F92DF
:102B6000CDB7DEB78FB78983F89489810F90DF9155
:102B7000CF910895F2DFA0E5B0E016969C911697EC
:102B8000997F16969C931697E0E6F0E090E895837F
:102B90009BEB968316969C911697946016969C9341
:102BA0009081916090838FBF0895CF93DF9300D081
:102BB00000D0CDB7DEB78FEF8093700080937100A7
:102BC00080937200809373008093740080937500EB
:102BD000809376006CE170E082E009D58C836DE132
:102BE00070E082E004D58B838B819C81019621F477
:102BF00080E493E28B839C838B819C8189839A837D
:102C0000809362008A8180936300A7DF90915000D7
:102C10009260909350008FBF8091510081FFFCCF54
:102C2000A9DF61E080E490E0DCD497DF9091500070
:102C30009E7F909350008FBF2496CDBFDEBFDF9163
:102C4000CF910895CF93DF93C82FD62F86DFEC2F37
:102C5000F0E0E059FF4FD0959081D923D0838FBF0A
:102C6000DF91CF910895CF93DF93C82FD62F75DFD3
:102C7000EC2FF0E0E059FF4F9081D92BD0838FBF2C
:102C8000DF91CF910895CF93863011F0C0E001C05D
:102C9000C8E18091510081FD0CC05FDF9091500030
:102CA0009260909350008FBF8091510081FFFCCFC4
:102CB00061DF6C2F636084E490E093D460E480E093
:102CC000CF91C0CF60E480E0CEDF60E084E490E0AC
:102CD00088C4CF93DF93FC01DC0180E090E0262FD5
:102CE00030E0E901082E02C0D595C7950A94E2F7B5
:102CF000C0FF03C050965C935097019611968830A0
:102D0000910579F740FF07C041FF02C0658301C00C
:102D10006683618301C06283DF91CF9108958091C2
:102D20002728089580912728813011F40C94882257
:102D3000089534D1FC01838180932728813011F4D8
:102D40000C947C2281E008959091602C892F8076EC
:102D500097FF08C08034A1F48091612C811110C0CC
:102D60000C94A322803461F48091612C811108C0FD
:102D70008091662C9091672C892B11F00C948B22FA
:102D800080E008950F931F939B018A01AC0160E0DE
:102D900081E80E94CD1E1F910F9108950F931F93FC
:102DA0009B018A01AC0160E082E0F7D71F910F918F
:102DB00008950F931F939B018A01AC0160E083E8A3
:102DC000ECD71F910F9108950F931F939B018A01D8
:102DD000AC0160E084E0E1D71F910F9108950F935B
:102DE0001F939B018A01AC0160E085E8D6D71F9153
:102DF0000F9108950F931F939B018A01AC0160E02E
:102E000086E0CBD71F910F9108958091622C8F7728
:102E10003FC790912E28911102C080E00895E09163
:102E20002C28F0912D280190F081E02D94818917B4
:102E3000A0F7E0932A28F0932B28228133812E0FCC
:102E40003F1FE217F30798F49181943061F4928167
:102E5000891309C09381691306C0E0932A28F0936F
:102E60002B2881E008959081E90FF11DEACFE093CE
:102E70002A28F0932B28D1CFE0912C28F0912D28EF
:102E80000190F081E02D228133812E0F3F1FFC0144
:102E90004081E40FF11DE217F30748F4818184308B
:102EA00031F0853039F08081E80FF11DF4CF80E0FA
:102EB00090E00895CF0108951F93CF93DF93182FCB
:102EC000A8DF882339F1C0912A28D0912B28CE0180
:102ED000D3DFEC01892B41F04C815D816B818A81CC
:102EE000E9D68111F4CF16C0E0912C28F0912D285D
:102EF00092818381E92FF82FE10FF11DE10FF11D80
:102F00000190F081E02D0190F081E02DDF91CF91D3
:102F10001F91099480E0DF91CF911F910895EF9266
:102F2000FF921F93CF93DF93C82F60E072DF811170
:102F300002C010E02CC0E0912C28F0912D28928145
:102F40008381E92FF82FEC0FF11DEC0FF11DE080CC
:102F5000F180D7011696ED91FC9117970995682F8E
:102F60008C2F57DF182F882321F3C0912A28D09166
:102F70002B28CE0181DFEC01892B19F08A81BAD789
:102F8000F8CFD7011296ED91FC9113970995812FF7
:102F9000DF91CF911F91FF90EF90089580912A28A3
:102FA00090912B28089507C6CF9380912E288823CF
:102FB00011F0C0E00AC010922E2881E090E08093CA
:102FC000322890933328CF910895E0912C28F091E6
:102FD0002D280190F081E02D8481C81760F78C2F97
:102FE0009EDFCF5FF2CFB1D5DFCFCF9380912E2878
:102FF0008823F1F0C0E0E0912C28F0912D28A081E9
:10300000B18114968C91C81798F492818381E92F2D
:10301000F82FEC0FF11DEC0FF11D0190F081E02D68
:103020000084F185E02D309709F00995CF5FE3CF5B
:10303000CF9108950F931F93CF93DF9310926A2C33
:1030400010926B2C10926C2C10926D2C10926E2C96
:1030500010926F2C8091602C87FF07C02091662C06
:103060003091672C232B09F42FC2982F907609F00A
:10307000EBC187FF0AC12091662C3091672C211586
:10308000310509F4E1C18F7109F0ADC08091612C67
:10309000863071F0883009F49CC08111D5C122308E
:1030A000310509F0D1C162E070E082E398E299C095
:1030B0008091622C9091632C292F33272230310587
:1030C000A1F060F42130310509F0BEC180910821E2
:1030D00090910921DC016C9170E069C023303105C9
:1030E00089F12F30310509F1AFC1E0910821F0914C
:1030F00009212189821708F0A7C19927880F991FF4
:10310000880F991FE0910A21F0910B21E80FF91F18
:1031100080819181FC0162817381C5D5E091682C29
:10312000F091692C82E0818343C080910C219091C1
:103130000D21009709F488C1DC0112966D917C91F4
:10314000139735C099278230910591F028F40097A4
:1031500099F00197B1F078C18330910509F4B6C1B7
:103160008E3E910509F070C169E08FE893E20CC0D2
:1031700069E08CE693E208C064E070E08EE793E2D9
:1031800016C066E086E793E2282FAAE5B3E2FC01C9
:10319000819190E08D939D938E2F821B8617C0F3B3
:1031A000660F6E5F6093582370E088E593E27BD5ED
:1031B0008091662C9091672C20916A2C30916B2C19
:1031C0008217930708F086C180936A2C90936B2C2A
:1031D00081C12130310509F037C161E070E08EE234
:1031E00098E261D577C18130C1F58091612C8A3038
:1031F00009F02AC12130310509F026C180912E281D
:10320000882309F421C1C091642CD091652C0091D0
:103210002C2810912D28D801ED91FC918481C8179C
:1032200008F012C160E08C2FF4DD882309F40CC192
:10323000DD27CC0FDD1FF80182819381C80FD91FD4
:10324000E881F9810680F781E02D09958093302887
:1032500061E070E080E398E2C4CF823009F0F4C00E
:103260008091612C8111F0C02230310509F0ECC051
:103270008091642C72D590E080932828909329281F
:1032800062E070E088E298E2ACCF8F7109F090C004
:103290008091612C833059F118F48130A1F0D4C0B1
:1032A000853019F08930D9F1CFC08091662C90918A
:1032B000672C892B09F0C8C085E097E180936C2CBE
:1032C00090936D2C07C18091662C9091672C892B6F
:1032D00009F0BAC08091622C9091632C019709F09B
:1032E000B3C080913228909133288D7F13C0809194
:1032F000662C9091672C892B09F0A6C08091622CD6
:103300009091632C019709F09FC080913228909191
:10331000332882608093322890933328DBC08091D9
:10332000662C9091672C892B09F08EC0B4D4882329
:1033300009F48AC02091622C3091632C3327E091EC
:103340000821F0910921818990E08217930708F400
:103350007BC02ADE8091622C9091632C80932E2872
:10336000882309F4B7C099278150904C880F991F82
:10337000880F991F20910A2130910B21820F931FF2
:1033800080932C2890932D28C0E0E0912C28F09178
:103390002D280190F081E02D8481C81708F09AC093
:1033A00060E08C2F89DD882309F44EC0CF5FEDCF1C
:1033B0008130E9F48091612C8B3009F045C0809117
:1033C000662C9091672C892B09F03EC080912E28A5
:1033D000882309F439C0C091642CD091622C8C2FC1
:1033E0009EDD882389F16D2F8C2F66DD2BC0823006
:1033F00059F58091612C813019F0833089F024C017
:103400008091662C9091672C892BF1F48091622C2D
:103410009091632C892BC1F48091642CA5D412C0A7
:103420008091662C9091672C892B71F48091622C8D
:103430009091632C892B41F48091642C2BD5809141
:10344000642C61D5811146C08091602C8F718130D0
:1034500009F042C080912E28882309F470C0C091E1
:10346000642CD091652C00912C2810912D28D80126
:10347000ED91FC918481C81708F061C060E08C2F49
:10348000C8DC882349F1FE01FF27EE0FFF1FD8019A
:1034900012968D919C911397E80FF91F008111816D
:1034A000D8011696ED91FC9117970995682F8C2FEE
:1034B000B0DC882389F0D8011496ED91FC91159722
:1034C0000995811107C008C080E03EC067E088E927
:1034D00093E25ACE81E038C08091602C8F718230A7
:1034E00071F580912E28882351F1C0E0E0912C28BD
:1034F000F0912D28A081B18114968C91C817F8F411
:1035000092818381E92FF82FEC0FF11DEC0FF11D53
:1035100000811181D8011696ED91FC9117970995BC
:10352000682F8C2F76DC882351F0D8011496ED910A
:10353000FC91159709958111CDCFCF5FD7CFDF9142
:10354000CF911F910F916FC7DF91CF911F910F9175
:10355000089543E050E061E080E096E0BADB43E0AC
:1035600050E062E080E096E0B4DB43E050E064E0ED
:1035700080E096E0AEDB43E050E068E080E096E07B
:10358000A8DB43E050E060E180E096E0A2DB43E0AE
:1035900050E060E280E096E09CDB43E050E060E4D5
:1035A00080E096E096DB43E050E060E880E096E063
:1035B00090DB40E058E161E080E296E08ADB40E0A9
:1035C00058E162E080E296E084DB40E058E164E0AC
:1035D00080E296E07EDB40E058E168E080E296E041
:1035E00078CB1BBEFC0128ED24BF60830895409179
:1035F000CA01E62FF72F8093CA0184914093CA0134
:103600000895CF93DF931F92CDB7DEB78FB789832D
:10361000F89489810F90DF91CF910895CF93DF9334
:10362000C82FD0E0C65AD34D88818F3F09F4FFCF11
:10363000E8DF98819F5F98838FBFDF91CF910895D6
:10364000CF93DF93C82FD0E0C65AD34D8881811124
:1036500001C0FFCFD6DF9881915098838FBFDF9153
:10366000CF910895CF93C82F8091C42BC11105C06D
:10367000882339F081E0E4DF04C0811102C081E0D9
:10368000CDDFC093C42BCF910895282F2F70082E23
:10369000000C990B392F331F3327331F832F90E0F2
:1036A000820F911D820F911D23E0880F991F2A958B
:1036B000E1F7805D944D08950F93E8ECF4E080818C
:1036C0008F7D808380818F7D8083E8E3FBE202E051
:1036D000059310923A2B10923B2B00E2069300E4E4
:1036E0000693E0E3FBE200E2069300E40693E0E6E3
:1036F000FCE21486158616861786128613861092AB
:10370000092B0F9108950F9385E08093092BE9E32E
:10371000FBE204E00593E1E3FBE204E005930F9193
:1037200008950F9383E08093092B10923A2B109207
:103730003B2BE8E3FBE202E006930F910895E09152
:103740006C2CF0916D2C309709F009940895282F76
:103750002F70082E000C990B392F331F3327331F7E
:10376000832F90E0820F911D820F911D029749E0F7
:10377000489F9001499F300D1124C9018B5C954DE4
:103780000895AF92BF92DF92EF92FF920F931F9333
:10379000CF93DF93D82EDBDFEC018D2D76DF7C011C
:1037A000DC011196EC91E770E150E73040F4F0E075
:1037B000EE0FFF1FE056FC4D0081118102C008E0B2
:1037C00010E02D813E818B819C814881D7FE4CC0C9
:1037D000F70166817781260F371F2D833E832817D7
:1037E0003907B1F1BC01621B730B9B01211574E019
:1037F000370740F02FEF33E0C901B8010E94D92606
:10380000281B390B41FF0BC0C901B8010E94D92602
:10381000AC0191E0452B09F090E0892F01C080E0D8
:10382000988180FB91F99883D70116961D921C927E
:10383000179712962D933C93139729813A818D8186
:103840009E81820F931F14968D939C93159708C0A9
:1038500041FF7CC04D7F48831682178212821382FB
:10386000F70102E0069389C0D7011296AD90BC9093
:10387000139742FF11C0E981FA81B8010E94D9264D
:10388000B0E4DB9EB00111246B50784DAC01CF0148
:10389000820F931F0E9492282D813E812A0D3B1D8D
:1038A0002D833E838B819C818217930710F48D8337
:1038B0009E83F70126813781A216B30609F046C020
:1038C0002D813E818217930709F440C0AC01421B51
:1038D000530B9A01211554E0350758F02FEF33E0D0
:1038E000C901B8010E94D926B901681B790BCB0127
:1038F00008C0C901B8010E94D926D901A81BB90B7B
:10390000CD01F701128213828017910798F4888104
:1039100084608883F0E4DF9EC00111248B50984DB1
:10392000D70114968D939C93159716960D931C931F
:10393000179796CF49815A812D813E81240F351FDB
:10394000F70124833583868397838ACF888180FF1C
:1039500014C08E7F8883EF81F885309771F06D8178
:103960007E814D2D80E0DF91CF911F910F91FF90CF
:10397000EF90DF90BF90AF900994DF91CF911F91AE
:103980000F91FF90EF90DF90BF90AF9008950F934D
:10399000CF93DF938091092B833029F4D0DEDF9120
:1039A000CF910F9189CE2091052B3091062BC0919C
:1039B0006A2CD0916B2CC21BD30B61F58091072B25
:1039C0009091082B820F931F8093072B9093082BC5
:1039D0002091662C3091672C8217930721F08091FB
:1039E0003428882331F084E08093092BE0E3FBE264
:1039F00036C0E0916E2CF0916F2C309799F00995BC
:103A0000882381F01092052B1092062BC0916A2C0E
:103A1000D0916B2CC034D10528F010923428C0E42A
:103A2000D0E003C081E080933428C0933A2BD09338
:103A30003B2B8091052B9091062B2091682C309187
:103A4000692C280F391F20933C2B30933D2BC80F36
:103A5000D91FC093052BD093062BE8E3FBE202E0CD
:103A60000693DF91CF910F9108950F93CF9380919B
:103A7000CC0480FF63C021E02093CC0480E39BE270
:103A8000FC0100E80693E8E3FBE200E806932093DC
:103A9000CA04FC0100E106938091092B882329F0D8
:103AA0008350823008F44BDE07DE8091322B9091F8
:103AB000332B089709F044C088E0E5ECFAE2A0E671
:103AC000BCE201900D928A95E1F78091C804806272
:103AD0008093C8048091C80480628093C804AADAE5
:103AE000C82F811102C00FDE2BC08091602C87FF90
:103AF0000DC01092072B1092082B1092052B1092DC
:103B0000062B82E08093092B42DF1BC08091662C3C
:103B10009091672C892B11F404DE13C01092072BAF
:103B20001092082B1092052B1092062B81E08093A7
:103B3000092BE0E3FBE202E0069303C0C0E001C012
:103B4000C1E08C2FCF910F910895CF935ADDC82FEC
:103B5000E1ECF4E080818E7F80831092C0041082BB
:103B6000B1D880E07FDD85E06BDDCFBFCF910895D8
:103B7000CF9347DDC82F81E075DDEAECF4E080E407
:103B8000808380E28083E1ECF4E080818160808347
:103B9000A9ECB4E08C9182608C93E8ECF4E0808135
:103BA000806480838C9181608C9380818068808325
:103BB000CFBFCF910895CF931092600080E363D878
:103BC0008091C00480648093C00481E08093600091
:103BD00018DDC82F80E090E0FC0123E0EE0FFF1F0E
:103BE0002A95E1F7E45FF44D15A201968231910523
:103BF00099F780E090E039E0389FF001399FF00DAF
:103C00001124EB5CF54D20812E7F208301968031BD
:103C1000910591F76AE170E082E0E9DC8F3F09F4F9
:103C20008FE18093FA046BE170E082E0E0DC8F3F8B
:103C300009F48FE18093FB048091C0048860809335
:103C4000C0048091C00480688093C0048091C00447
:103C500080618093C00480E39BE28093C6049093CC
:103C6000C7048091C00480628093C0048FEF80936A
:103C7000C5048091C80481608093C8041092C42B4D
:103C800085E0CCDC75DFCFBFCF91089580E008954B
:103C90008093C30408958091C30408958091C02B3C
:103CA0009091C12B0895E0E6FCE2808791876287BE
:103CB000738708951F93CF93DF93162FEA01E5DCF6
:103CC000FC018181807C09F041C0612F637061300B
:103CD00019F020F080E803C080EC01C080E4C03817
:103CE000D105E1F050F4C032D105A1F0C034D105C6
:103CF00099F06097C9F491E018C0C11592E0D90716
:103D000079F0CF3F93E0D90769F0C115D14061F454
:103D100095E00BC092E009C093E007C094E005C0B5
:103D200096E003C097E001C090E0118226E0208376
:103D3000982B91838181807C803C21F481818770E4
:103D4000873031F081818062818302C080E001C0D0
:103D500081E0DF91CF911F91089597DCFC01818173
:103D600082FB882780F90895CF93C82F8EDCFC0151
:103D7000818182FF0FC081818B7F81838C2FE7DC63
:103D8000FC01908190FF06C09E7F90830780F085A4
:103D9000E02D099581E0CF9108958F929F92AF9287
:103DA000BF92CF92DF92EF92FF920F931F93CF9328
:103DB000DF93B82EA62E4A017901C9DCEC018B2DC8
:103DC00064DC6C01DC0111968C911197807C09F404
:103DD00053C011968C911197807C803C21F01196F4
:103DE0008C9182FD49C00DDC988190FF02C08FBF8D
:103DF00043C0916098838FBF89829A82EB82FC8254
:103E00001D821E820F83188791E0A11004C0E11467
:103E1000F10409F090E0888190FB81F98B7F888321
:103E2000B7FE02C0F60122C0D60111968C911197FF
:103E3000807C803CC1F41196EC91E770E150E73052
:103E400040F4F0E0EE0FFF1FE056FC4D6081718101
:103E500002C068E070E0C701ACD7892B21F08881EF
:103E60008E7F888309C0F601128213821682178220
:103E70008B2D87DC81E001C080E0DF91CF911F9125
:103E80000F91FF90EF90DF90CF90BF90AF909F90F9
:103E90008F900895EF92FF920F93CF93C82FF5DB89
:103EA0007C018C2F54DCDC01F70102E005939C912E
:103EB00090FF1BC09E7F9C931796ED91FC911897E5
:103EC000309799F0D701C7FF05C016966D917C9188
:103ED000179704C012966D917C9113974C2F81E037
:103EE000CF910F91FF90EF900994CF910F91FF9098
:103EF000EF900895CF93C82FCDDF8C2FC6DBFC0148
:103F00001182CF9108950F93CF93C82FBEDBFC0190
:103F100081818460818301E006938C2FBBDF81E087
:103F2000CF910F9108951F920F920FB60F92112407
:103F30000F932F933F934F935F936F937F938F9341
:103F40009F93AF93BF93CF93EF93FF938091CB0455
:103F500087FF06C080E88093CA0447D85CD285C03A
:103F60008091CB0482FF18C084E08093CA048091C2
:103F7000382B86FF7AC08091CC0481FD76C075DD38
:103F8000811173C08091092B813011F4CADB6DC09F
:103F9000843009F06AC021C08091CB0481FF26C023
:103FA00082E08093CA048091302B86FF5EC08091AE
:103FB000CC0481FD5AC059DD811157C08091092B75
:103FC000823041F484E08093092BE0E3FBE202E0DD
:103FD00006934BC0833009F048C0E9E3FBE204E0FC
:103FE0000593E1E3FBE204E005933FC08091CB043D
:103FF00084FF26C080E18093CA04C1E08C2F4ADF91
:104000008C2F806847DFCF5FC930C1F70E94D4177B
:104010001092C3041092312B96E09093302B83E4DE
:104020008093312B1092392B9093382B8093392B1E
:1040300085EC9AE28093342B9093352B3DDB15C0B1
:104040008091CB0486FF07C080E48093CA0480E09F
:1040500009DBDDD10AC08091CB0485FF06C080E278
:104060008093CA0481E0FEDAD4D1FF91EF91CF9121
:10407000BF91AF919F918F917F916F915F914F9180
:104080003F912F910F910F900FBE0F901F90189599
:104090001F920F920FB60F9211240F931F932F931D
:1040A0003F934F935F936F937F938F939F93AF93C0
:1040B000BF93CF93DF93EF93FF938091CC0481FF65
:1040C0001AC082E08093CC048091C5048195880F4A
:1040D000E0E3FBE2E81BF1092081318120533B4200
:1040E00083E0369527958A95E1F7822F869520FD06
:1040F00006C0C0E005C0B9DC882319F386C0C0E85B
:10410000C80F8C2FC2DAFC01208125FF7EC000E29F
:104110000693C11174C08091092B843019F40FDB10
:10412000CBDA73C00091322B1091332B80916A2C23
:1041300090916B2CC091052BD091062B98012C0FE0
:104140003D1F8217930718F48C010C1B1D0B8091E7
:10415000682C9091692CA80165EC7AE28C0F9D1F68
:10416000E1D7C00FD11FC093052BD093062B00348D
:10417000110569F48091072B9091082B8C0F9D1FDE
:104180002091662C3091672C8217930788F0C0939A
:104190006A2CD0936B2CE0916E2CF0916F2C3097A1
:1041A00029F00995811102C0AEDA2FC0BADA2DC00C
:1041B00080916A2C90916B2CC817D907D9F4E091A3
:1041C0006E2CF0916F2C309779F30995882361F369
:1041D0002091072B3091082B8091052B9091062B75
:1041E000820F931F8093072B9093082B1092052B1F
:1041F0001092062BE0E3FBE202E0069306C0C03813
:1042000011F4C5DB02C08C2FBCDAFF91EF91DF9176
:10421000CF91BF91AF919F918F917F916F915F915E
:104220004F913F912F911F910F910F900FBE0F90C3
:104230001F90189580E00C94AB1580E00E94AB15A0
:104240004CE251E260E470E08AE19CE20C94CE160C
:10425000811101C0F2CF089581110EC081E00E944A
:10426000AB150E9427146091262870E048E251E2C5
:104270008AE19CE20C94C2160895CF93DF9381E00B
:104280008093822380E00E94AB1580E090E00E9442
:1042900004140E941214EC010E940F1449E551E22B
:1042A000BE01DF91CF910C94E416811101C0E5CFDE
:1042B0000895CF93DF9381110BC0EB0181E00E9441
:1042C000AB15CE010E940414DF91CF910C944A0CDF
:1042D000DF91CF910895EF92FF920F931F93CF93A9
:1042E000DF937C010E940F14EC010E9412148C01D8
:1042F00016950795E114F10489F081E00E94AB1551
:104300002091C52B209FC001219F900D11244AE1CF
:1043100051E2B7018C0F9D1F0E94EF1621E08091A2
:10432000C52B811120E02093C52B30E0029FC001F6
:10433000039F900D129F900D1124C80FD91FA6DC6A
:10434000811103C060E071E002C060E470E042EB04
:1043500051E2CE01DF91CF911F910F91FF90EF902D
:104360000C94FA16811102C0CB01B5CF089587E0F5
:104370008093A200789410925A2C10925B2C109289
:104380005C2C10925D2C10925E2C81E080935F2C4F
:104390000E94D515DED80E94A8150E94A9150E947A
:1043A000AF030E94D3170E945B11882339F08091DC
:1043B0008223882319F00E94621105C00E9499038C
:1043C00081110E94A003F894AAE5BCE2E0E08D917F
:1043D000811102C0EF5FFBCFE11102C07894E3CFFF
:1043E00080914800F0E0E95BFC4D817F9081892B52
:1043F00080934800809148008160809348007894C1
:104400008895809148008E7F80934800CCCF0C9493
:10441000A9150C94AA158091C62B882319F03EDCAF
:104420000C94AC1508950F931F938091602C8076A7
:104430008034F1F58091612C8132D1F58091642C2A
:104440009091652C8430910519F00597C9F050C002
:104450008091662C9091672C4091E0205091E12052
:104460006091E2207091E3208C0120E030E0401761
:1044700051076207730708F5CA0120EE30E222C037
:104480008091662C9091672C4091002050910120E2
:1044900060910220709103208C0120E030E04017F1
:1044A00051076207730760F4CA0120E030E20AC0D6
:1044B00080E090E020E030E005C020EE30E202C075
:1044C00020E030E280936A2C90936B2C892B51F47E
:1044D00010926C2C10926D2C10926E2C10926F2CEE
:1044E00081E007C02093682C3093692C81E001C0E3
:1044F00080E01F910F91089581E08093C62B9DDE8F
:10450000BCDE1092C52B80E090E0E5DE81E00895EE
:104510001092C62B089581E00E94AB158AED9BE2B4
:104520008093682C9093692C8091662C9091672CD5
:104530008134910510F080E490E080936A2C909390
:104540006B2C81E0089580E00E94AB158AED9BE220
:104550008093682C9093692C8091662C9091672CA5
:104560008134910510F080E490E080936A2C909360
:104570006B2C81E008951092822345E551E20C9462
:10458000D9165058BB27AA270ED0D0C1C1D130F0C0
:10459000C6D120F031F49F3F11F41EF4A6C10EF4F1
:1045A000E095E7FB9CC1E92FD2D180F3BA176207EF
:1045B00073078407950718F071F49EF5EAC10EF4AD
:1045C000E0950B2EBA2FA02D0B01B90190010C0123
:1045D000CA01A0011124FF27591B99F0593F50F43B
:1045E000503E68F11A16F040A22F232F342F442793
:1045F000585FF3CF469537952795A795F04053958B
:10460000C9F77EF41F16BA0B620B730B840BBAF05A
:104610009150A1F0FF0FBB1F661F771F881FC2F7C5
:104620000EC0BA0F621F731F841F48F487957795D9
:104630006795B795F7959E3F08F0B3CF9395880F90
:1046400008F09927EE0F9795879508950CD06EC1C5
:1046500066D140F05DD130F021F45F3F19F03FC1E9
:10466000511198C142C173D198F39923C9F35523CD
:10467000B1F3951B550BBB27AA2762177307840755
:1046800038F09F5F5F4F220F331F441FAA1FA9F30B
:1046900033D00E2E3AF0E0E830D091505040E695FD
:1046A000001CCAF729D0FE2F27D0660F771F881F5E
:1046B000BB1F261737074807AB07B0E809F0BB0B4D
:1046C000802DBF01FF2793585F4F2AF09E3F510571
:1046D00068F005C15FC15F3FECF3983EDCF386955F
:1046E00077956795B795F7959F5FC9F7880F911DE7
:1046F0009695879597F90895E1E0660F771F881FD3
:10470000BB1F621773078407BA0720F0621B730B85
:10471000840BBA0BEE1F88F7E0950895BEE304D032
:1047200008F490E80895BFE322273327A90117D1A1
:1047300058F19F5740F1B91738F1BFE3B91B9927DA
:10474000B8503AF4660F771F881F991FB395D2F3BC
:1047500016C0B8504AF0232F342F452F562F672FFD
:10476000782F8827B850BAF7B85F49F086957795C3
:1047700067955795479537952795BA95B9F70EF4EC
:10478000B7D088940895889460E070E0CB010895D4
:10479000E6D088F09F5790F0B92F9927B751A0F035
:1047A000D1F0660F771F881F991F1AF0BA95C9F7C5
:1047B00012C0B13081F0EDD0B1E00895EAC0672FAA
:1047C000782F8827B85F39F0B93FCCF38695779575
:1047D0006795B395D9F73EF490958095709561955E
:1047E0007F4F8F4F9F4F0895E89409C097FB3EF489
:1047F00090958095709561957F4F8F4F9F4F99232E
:10480000A9F0F92F96E9BB279395F69587957795AB
:104810006795B795F111F8CFFAF4BB0F11F460FF6B
:104820001BC06F5F7F4F8F4F9F4F16C0882311F0C3
:1048300096E911C0772321F09EE8872F762F05C0D7
:10484000662371F096E8862F70E060E02AF09A9572
:10485000660F771F881FDAF7880F9695879597F967
:104860000895E894F92F96EBFF2381F012161306B2
:104870001406440B9395F69587957795679557950C
:104880004040FF23B9F71BC099270895882351F4AE
:104890009850D2F7872B762F652F542F432F322F26
:1048A00020E0B1F3121613061406440B88233AF0E5
:1048B0009A95440F551F661F771F881FCAF7552307
:1048C0004AF4440F551F11F460FF04C06F5F7F4F1F
:1048D0008F4F9F4F880F9695879597F9089597F971
:1048E0009F6780E870E060E008959FEF80EC089596
:1048F000909580957095609550954095309521954F
:104900003F4F4F4F5F4F6F4F7F4F8F4F9F4F0895D8
:1049100000240A941616170618060906089500249E
:104920000A9412161306140605060895092E039418
:10493000000C11F4882352F0BB0F40F4BF2B11F48C
:1049400060FF04C06F5F7F4F8F4F9F4F089557FDEB
:104950009058440F551F59F05F3F71F04795880FED
:1049600097FB991F61F09F3F79F087950895121684
:1049700013061406551FF2CF4695F1DF08C0161630
:1049800017061806991FF1CF8695710561050894E1
:104990000895E894BB2766277727CB0197F90895F8
:1049A0000AD029ED3BE54EED5EE345C00EF05EC159
:1049B0009CCF689494CFD3DFC8F39923D1F3C6F387
:1049C000DF93CF931F930F93FF92C92FDD27882387
:1049D0002AF02197660F771F881FDAF720E030E072
:1049E00040E85FEB9FE3883920F0803E30F021966D
:1049F0008F77C8DDECEFF1E003C0C4DDE9E2F2E05F
:104A000043D18B01BE01EC01FB2E6F5771097595E7
:104A1000771F880B990BEADE28E132E741E35FE379
:104A200016D0AF2D9801AE01FF900F911F91CF913D
:104A3000DF91B9DD7BCF0BD079CF6ADF28F06FDF54
:104A400018F0952309F04BCF50CF1124A3CF7FDF6F
:104A5000A0F3959FD1F3950F50E0551F629FF00191
:104A6000729FBB27F00DB11D639FAA27F00DB11DEA
:104A7000AA1F649F6627B00DA11D661F829F222773
:104A8000B00DA11D621F739FB00DA11D621F839FFA
:104A9000A00D611D221F749F3327A00D611D231FD0
:104AA000849F600D211D822F762F6A2F11249F571E
:104AB00050408AF0E1F088234AF0EE0FFF1FBB1F41
:104AC000661F771F881F91505040A9F79E3F5105E0
:104AD00070F005CF5FCF5F3FECF3983EDCF3869537
:104AE00077956795B795F795E7959F5FC1F7FE2B8B
:104AF000880F911D9695879597F90895FA01EE0F05
:104B0000FF1F30962105310599F16115710561F49A
:104B10008038BFE39B0749F168949038810561F0C4
:104B20008038BFEF9B0741F0992342F5FF3FE10535
:104B30003105210511F1E8940894E795D901AA23DC
:104B400029F4AB2FBE2FF85FD0F310C0FF5F70F4D5
:104B5000A695E0F7F73950F019F0FF3A38F49F774F
:104B60009F930CD00F9007FC905808953EF0BDCE57
:104B700060E070E080E89FE308954FE79F775F93E0
:104B80004F933F932F9317DF2F913F914F915F9159
:104B900052DF25C0E4DEE0F09E37D8F09639B8F455
:104BA0009E3848F4672F782F8827985FF9CF86952D
:104BB0007795679593959539D0F3B62FB1706B0FB4
:104BC000711D811D20F4879577956795939533C066
:104BD0004DC0E0CE19F40EF082CEDBCE86CEBFDE25
:104BE000C8F39638C0F707F80F92E8942BE33AEA37
:104BF00048EB5FE72EDF0F920F920F924DB75EB733
:104C00000F92A4D0E6E5F2E03FD04F915F91EF9193
:104C1000FF91E595EE1FFF1F49F0FE57E06844271E
:104C2000EE0F441FFA95E1F74195550B5BD00F90BD
:104C300007FE4FC00895882371F4772321F0985020
:104C4000872B762F07C0662311F499270DC090514A
:104C5000862B70E060E02AF09A95660F771F881F18
:104C6000DAF7880F9695879597F908959F3F31F069
:104C7000915020F4879577956795B795880F911D8A
:104C80009695879597F90895DF93CF931F930F9388
:104C9000FF92EF92DF927B018C01689405C0DA2EBF
:104CA000EF01D5DEFE01E894A5912591359145915E
:104CB0005591AEF3EF0177DCFE019701A801DA947C
:104CC00079F7DF90EF90FF900F911F91CF91DF91D7
:104CD00008959B01AC0160E070E080E89FE3B6CCF2
:104CE000FECDC4CF3CDEE8F39923D9F3940F511DD8
:104CF000BBF39150504094F059F0882332F0660F86
:104D0000771F881F91505040C1F79E3F510544F7CF
:104D1000880F911D9695879597F908955F3FACF0A0
:104D2000983E9CF0BB27869577956795B79508F4D4
:104D3000B1609395C1F7BB0F58F711F460FFE8CF4E
:104D40006F5F7F4F8F4F9F4FE3CF24CEFA01DC017F
:104D5000AA0FBB1F9B01AC01BF5728F422273327A2
:104D6000442750781FC0B75188F4AB2F00244695D4
:104D700037952795011CA395D2F3002069F0220FE7
:104D8000331F441FB395DAF30DD0FBCB61307105AF
:104D9000A0E88A07B94630F49B01AC016627772763
:104DA00088279078309621F0208331834283538383
:104DB0000895AA1BBB1B51E107C0AA1FBB1FA61762
:104DC000B70710F0A61BB70B881F991F5A95A9F7B4
:104DD00080959095BC01CD01089569279627692794
:104DE00078278727782708958ED1A59F900DB49FA7
:104DF000900DA49F800D911D11240895DF93CF93F2
:104E00001F930F939A9DF02D219FF00D8B9DF00D18
:104E10008A9DE02DF10D039FF00D029FE00DF11D25
:104E20004E9DE00DF11D5E9DF00D4F9DF00D7F93A9
:104E30006F93BF92AF925F934F93D50164D18B0173
:104E4000AC01D70160D1EB01E80FF91FD6011FD0EB
:104E50002F913F91D60157D1C60FD71FE81FF91FD9
:104E6000AF91BF9114D02F913F914DD1C60FD71F55
:104E7000E81FF91FD60147D1E60FF71F9801BE01C1
:104E8000CF0111240F911F91CF91DF9108953BD154
:104E9000460F571FC81FD91F08F43196089568940C
:104EA00001C0E894F92FF12B0AF027C0A0E0B0E090
:104EB000EBE5F7E293C0092E05941AF479D011239B
:104EC00092F4F0E80F26FFEFE094F094009510952F
:104ED000B094C094D094A194BF0ACF0ADF0AEF0A1D
:104EE000FF0A0F0B1F0B13D007FC62D0CDB7DEB744
:104EF000ECE08DC0689401C0E8948F929F92CF93AC
:104F0000DF9305D0DF91CF919F908F9008958824F3
:104F10009924F401E401B0E49F93AA279A158B0425
:104F20009C04ED05FE05CF05D007A10798F4AD2F31
:104F3000DC2FCF2FFE2FE92D982C892E982F872F2D
:104F4000762F652F542F432F322F2227B85031F759
:104F5000BF9127C01B2EBF91BB27220F331F441FB9
:104F6000551F661F771F881F991F881C991CEE1FED
:104F7000FF1FCC1FDD1FAA1FBB1F8A149B04EC055B
:104F8000FD05CE05DF05A007B10748F08A189B088C
:104F9000EC09FD09CE09DF09A00BB10B21601A94C1
:104FA000E1F62EF49401AF01BE01CD01000C08958D
:104FB0006095709580959095309540955095219588
:104FC0003F4F4F4F5F4F6F4F7F4F8F4F9F4F089512
:104FD0002F923F924F925F926F927F928F929F9209
:104FE000AF92BF92CF92DF92EF92FF920F931F93F7
:104FF000CF93DF93CDB7DEB7CA1BDB0BCDBFDEBFD0
:1050000009942A88398848885F846E847D848C84DA
:105010009B84AA84B984C884DF80EE80FD800C81E3
:105020001B81AA81B981CE0FD11DCDBFDEBFED019D
:1050300008950F93083090F0982F872F762F652FC3
:10504000542F432F322F22270850F4CF220F331F23
:10505000441F551F661F771F881F991F0A95B2F7B7
:105060000F91089597FB10F8169400080F930830DD
:1050700098F00850232F342F452F562F672F782F65
:10508000892F902DF4CF05949795879577956795FF
:1050900057954795379527950A95AAF70F91089543
:1050A0002A0D3B1D4C1D5D1D6E1D7F1D801F911F18
:1050B00008950024A7FD00942A0F301D401D501DA7
:1050C000601D701D801D901D08952A193B094C0913
:1050D0005D096E097F09800B910B08952A153B0528
:1050E0004C055D056E057F05800791070895002436
:1050F000A7FD00942A17300540055005600570058E
:10510000800590050895A29FB001B39FC001A39FA1
:10511000700D811D1124911DB29F700D811D1124F0
:10512000911D0895FB01DC0102C001900D924150D8
:0A5130005040D8F70895F894FFCF1F
:10513A00E0000000000105000100D60000000700A1
:10514A0000002A00440065007600690063006500DB
:10515A0049006E0074006500720066006100630019
:10516A0065004700550049004400730000009E0096
:10517A0000007B006500360063006400650065007E
:10518A00320030002D0037003700620034002D0055
:10519A0034003400310032002D003900650031003E
:1051AA0063002D00340038003300630039006100C9
:1051BA003500660033006600630030007D000000A1
:1051CA007B00630063003800310061003300630034
:1051DA0030002D0034003800650064002D003400D2
:1051EA003600640032002D00620039006600640057
:1051FA002D003700310036006500300033006500AD
:10520A00650062003500630066007D000000000052
:10521A002800000000010400010000000000000056
:10522A00010157494E55534200000000000000009A
:10523A0000000000000000007C210E210000162161
:10524A001221C3214E2309026500020100E032093E
:10525A0004000002030000000921110100012235A7
:10526A000007058703080004070508030800040966
:10527A0004010000FFFFFF000904010106FFFFFF10
:10528A0000070581034000010705020340000107EA
:10529A000583024000000705040240000007058557
:1052AA0001000101070506010001010012010002C7
:1052BA0000000040EB03FB3E03020102030106FF6C
:1052CA00FF0901A10109020903150026FF0075085B
:1052DA009508810209040905150026FF007508953D
:1052EA0008910209060907150026FF0075089504AA
:1052FA00B102C07301B3017B015D0100000000002F
:10530A000000000000000000FFFF0000FFFFFFFF99
:10531A00FFFFFFFF00000000000000000000000087
:10532A000000000000000000000000000000000073
:10533A000000000000000000000000000000000063
:10534A000000000000000000000000000000000053
:10535A000000000000000000000000000000000043
:10536A000000000000000000000000000000000033
:10537A000000000000000000000000000000000023
:10538A000000000000000000000000000000000013
:10539A000000000000000000000000000000000003
:1053AA0000000000000000000000000000000000F3
:1053BA0000000000000000000000000000000000E3
:1053CA0000000000000000000000000000000000D3
:1053DA0000000000000000000000000000000000C3
:1053EA0000000000000000000000000000000000B3
:1053FA0000000000000000000000000000000000A3
:10540A000000000000000000000000000000000092
:10541A000000000000000000000000000000000082
:10542A000000000000000000000000000000000072
:10543A000000000000000000000000000000000062
:10544A000000000000000000000000000000000052
:10545A000000000000000000000000000000000042
:10546A000000000000000000000000FFFFFFFFFF37
:10547A00FFFFFF0000000000000E060C0400991652
:10548A009216A4168F160000000300000000000008
:10549A00000000000000000000000000506F636B75
:1054AA006574564E41004D617274696E00000403C2
:1054BA000904010201040807060908540100004D05
:1054CA0053465431303021003132787878454600DD
:0E54DA00100020004000800000010002FF03CF
:00000001FF
